:020000040800F2
:10000000005000204D700008B99D0008BD9D0008FB
:10001000C19D0008C59D0008C99D000800000000A2
:10002000000000000000000000000000CD9D00085E
:10003000D19D000800000000D59D00089D700008BB
:100040009D7000089D7000089D7000089D7000085C
:100050009D7000089D7000089D7000089D7000084C
:100060009D7000089D7000089D7000089D7000083C
:100070009D7000089D7000089D7000089D7000082C
:100080009D7000089D7000089D7000089D7000081C
:10009000D99D00089D7000089D70000845800008EB
:1000A0009D7000089D7000089D7000089D700008FC
:1000B000A1710008E57300089D7000089D7000089C
:1000C0009D7000089D7000089D7000089D700008DC
:1000D0009D7000089D7000089D700008A96A0008C6
:1000E000A93200089D7000089D7000080000000003
:1000F0000000000000000000000000000000000000
:0C01000000000000000000005FF808F1A3
:1001100010B5054C237833B9044B13B10448AFF341
:1001200000800123237010BD38050020000000006E
:10013000D4B0000808B5034B1BB103490348AFF323
:10014000008008BD000000003C050020D4B000087D
:1001500081F0004102E000BF83F0004330B54FEA78
:1001600041044FEA430594EA050F08BF90EA020FE5
:100170001FBF54EA000C55EA020C7FEA645C7FEA78
:10018000655C00F0E2804FEA5454D4EB5555B8BF9B
:100190006D420CDD2C4480EA020281EA030382EA0C
:1001A000000083EA010180EA020281EA0303362D9E
:1001B00088BF30BD11F0004F4FEA01314FF4801C71
:1001C0004CEA113102D0404261EB410113F0004F83
:1001D0004FEA03334CEA133302D0524263EB43033A
:1001E00094EA050F00F0A780A4F10104D5F1200ED8
:1001F0000DDB02FA0EFC22FA05F2801841F1000133
:1002000003FA0EF2801843FA05F359410EE0A5F106
:1002100020050EF1200E012A03FA0EFC28BF4CF037
:10022000020C43FA05F3C01851EBE37101F00045ED
:1002300007D54FF0000EDCF1000C7EEB00006EEBFA
:100240000101B1F5801F1BD3B1F5001F0CD3490884
:100250005FEA30004FEA3C0C04F101044FEA4452DB
:1002600012F5800F80F09A80BCF1004F08BF5FEA62
:10027000500C50F1000041EB045141EA050130BD42
:100280005FEA4C0C404141EB0101013C28BFB1F554
:10029000801FE9D291F0000F04BF01460020B1FA9F
:1002A00081F308BF2033A3F10B03B3F120020CDA72
:1002B0000C3208DD02F1140CC2F10C0201FA0CF050
:1002C00021FA02F10CE002F11402D8BFC2F1200CB5
:1002D00001FA02F120FA0CFCDCBF41EA0C0190406B
:1002E000E41AA2BF01EB0451294330BD6FEA0404B4
:1002F0001F3C1CDA0C340EDC04F11404C4F120029F
:1003000020FA04F001FA02F340EA030021FA04F3B0
:1003100045EA030130BDC4F10C04C4F1200220FA07
:1003200002F001FA04F340EA0300294630BD21FA45
:1003300004F0294630BD94F0000F83F4801306BF0B
:1003400081F480110134013D4EE77FEA645C18BFFF
:100350007FEA655C29D094EA050F08BF90EA020F96
:1003600005D054EA000C04BF1946104630BD91EA8E
:10037000030F1EBF0021002030BD5FEA545C05D191
:100380004000494128BF41F0004130BD14F58004D0
:100390003CBF01F5801130BD01F0004545F0FE4144
:1003A00041F470014FF0000030BD7FEA645C1ABF79
:1003B000194610467FEA655C1CBF0B46024650EAB0
:1003C000013406BF52EA033591EA030F41F40021DC
:1003D00030BD00BF90F0000F04BF0021704730B562
:1003E0004FF4806404F132044FF000054FF0000137
:1003F00050E700BF90F0000F04BF0021704730B5F8
:100400004FF4806404F1320410F0004548BF4042CC
:100410004FF000013EE700BF42004FEAE2014FEA21
:1004200031014FEA02701FBF12F07F4393F07F4FFC
:1004300081F06051704732F07F4208BF704793F0FF
:100440007F4F04BF41F40021704730B54FF4607412
:1004500001F0004521F000411CE700BF50EA010215
:1004600008BF704730B54FF000050AE050EA0102BE
:1004700008BF704730B511F0004502D5404261EB2E
:1004800041014FF4806404F132045FEA915C3FF46F
:10049000D8AE4FF003025FEADC0C18BF03325FEA0C
:1004A000DC0C18BF033202EBDC02C2F1200300FABD
:1004B00003FC20FA02F001FA03FE40EA0E0021FAE2
:1004C00002F11444BDE600BF4FF0FF3C06E000BF60
:1004D0004FF0010C02E000BF4FF0010C4DF804CDCD
:1004E0004FEA410C7FEA6C5C4FEA430C18BF7FEA8D
:1004F0006C5C1BD001B050EA410C0CBF52EA430CBB
:1005000091EA030F02BF90EA020F0020704710F13A
:10051000000F91EA030F58BF994208BF90422CBFC9
:10052000D8176FEAE37040F0010070474FEA410CC2
:100530007FEA6C5C02D150EA013C07D14FEA430CE0
:100540007FEA6C5CD6D152EA033CD3D05DF8040B51
:10055000704700BF8446104662468C461946634683
:1005600000E000BF01B5FFF7B7FF002848BF10F15A
:10057000000F01BD4DF808EDFFF7F4FF0CBF01209F
:1005800000205DF808FB00BF4DF808EDFFF7EAFF1B
:1005900034BF012000205DF808FB00BF4DF808EDD6
:1005A000FFF7E0FF94BF012000205DF808FB00BFCB
:1005B0004DF808EDFFF7CEFF94BF012000205DF855
:1005C00008FB00BF4DF808EDFFF7C4FF34BF012062
:1005D00000205DF808FB00BF4FEA4102B2F1E043A2
:1005E00024BFB3F5001CDCF1FE5C0DD901F0004C1A
:1005F0004FEAC0024CEA5070B2F1004F40EB83006A
:1006000008BF20F00100704711F0804F21D113F195
:100610003872BCBF01F00040704741F480114FEACE
:100620005252C2F11802C2F1200C10FA0CF320FA57
:1006300002F018BF40F001004FEAC1234FEAD32374
:1006400003FA0CFC40EA0C0023FA02F34FEA4303DE
:10065000CCE77FEA625307D150EA01331EBF4FF067
:10066000FE4040F44000704701F0004040F0FE4082
:1006700040F40000704700BF80F0004002E000BF7F
:1006800081F0004142001FBF5FEA410392EA030F7D
:100690007FEA226C7FEA236C6AD04FEA1262D2EBC7
:1006A0001363C1BFD218414048404140B8BF5B42CC
:1006B000192B88BF704710F0004F40F4000020F065
:1006C0007F4018BF404211F0004F41F4000121F07B
:1006D0007F4118BF494292EA030F3FD0A2F10102C5
:1006E00041FA03FC10EB0C00C3F1200301FA03F103
:1006F00000F0004302D5494260EB4000B0F5000F26
:1007000013D3B0F1807F06D340084FEA310102F1E4
:100710000102FE2A51D2B1F1004F40EBC25008BF96
:1007200020F0010040EA03007047490040EB000060
:10073000013A28BFB0F5000FEDD2B0FA80FCACF161
:10074000080CB2EB0C0200FA0CF0AABF00EBC2508E
:1007500052421843BCBFD0401843704792F0000F7C
:1007600081F4000106BF80F400000132013BB5E7CF
:100770004FEA41037FEA226C18BF7FEA236C21D045
:1007800092EA030F04D092F0000F08BF08467047AA
:1007900090EA010F1CBF0020704712F07F4F04D178
:1007A000400028BF40F00040704712F100723CBF8B
:1007B00000F50000704700F0004343F0FE4040F4B5
:1007C000000070477FEA226216BF08467FEA236373
:1007D0000146420206BF5FEA412390EA010F40F45E
:1007E000800070474FF0000304E000BF10F00043AA
:1007F00048BF40425FEA000C08BF704743F0964391
:1008000001464FF000001CE050EA010208BF7047AB
:100810004FF000030AE000BF50EA010208BF704732
:1008200011F0004302D5404261EB41015FEA010C47
:1008300002BF84460146002043F0B64308BFA3F13F
:100840008053A3F50003BCFA8CF2083AA3EBC25321
:1008500010DB01FA02FC634400FA02FCC2F1200240
:10086000BCF1004F20FA02F243EB020008BF20F077
:100870000100704702F1200201FA02FCC2F12002DD
:1008800050EA4C0021FA02F243EB020008BF20EAD2
:10089000DC7070474FF0FF0C1CEAD0521EBF1CEA00
:1008A000D15392EA0C0F93EA0C0F6FD01A4480EAEE
:1008B000010C400218BF5FEA41211ED04FF00063D7
:1008C00043EA501043EA5111A0FB01310CF0004003
:1008D000B1F5000F3EBF490041EAD3715B0040EA29
:1008E000010062F17F02FD2A1DD8B3F1004F40EBF9
:1008F000C25008BF20F00100704790F0000F0CF0CC
:10090000004C08BF49024CEA502040EA51207F3A8F
:10091000C2BFD2F1FF0340EAC250704740F400006A
:100920004FF00003013A5DDC12F1190FDCBF00F05B
:1009300000407047C2F10002410021FA02F1C2F109
:10094000200200FA02FC5FEA310040F1000053EAA5
:100950004C0308BF20EADC70704792F0000F00F0F3
:10096000004C02BF400010F4000F013AF9D040EAF9
:100970000C0093F0000F01F0004C02BF490011F48D
:10098000000F013BF9D041EA0C018FE70CEAD1538B
:1009900092EA0C0F18BF93EA0C0F0AD030F0004C0B
:1009A00018BF31F0004CD8D180EA010000F00040BF
:1009B000704790F0000F17BF90F0004F084691F07D
:1009C000000F91F0004F14D092EA0C0F01D14202B7
:1009D0000FD193EA0C0F03D14B0218BF084608D180
:1009E00080EA010000F0004040F0FE4040F40000CA
:1009F000704740F0FE4040F4400070474FF0FF0C5D
:100A00001CEAD0521EBF1CEAD15392EA0C0F93EAA3
:100A10000C0F69D0A2EB030280EA010C49024FEAF5
:100A2000402037D04FF0805343EA111143EA1013AE
:100A30000CF000408B4238BF5B0042F17D024FF466
:100A4000000C8B4224BF5B1A40EA0C00B3EB510F41
:100A500024BFA3EB510340EA5C00B3EB910F24BF2A
:100A6000A3EB910340EA9C00B3EBD10F24BFA3EBAF
:100A7000D10340EADC001B0118BF5FEA1C1CE0D177
:100A8000FD2A3FF650AF8B4240EBC25008BF20F02A
:100A9000010070470CF0004C4CEA50207F32C2BF7E
:100AA000D2F1FF0340EAC250704740F400004FF01B
:100AB0000003013A37E792F0000F00F0004C02BF4C
:100AC000400010F4000F013AF9D040EA0C0093F016
:100AD000000F01F0004C02BF490011F4000F013B70
:100AE000F9D041EA0C0195E70CEAD15392EA0C0FD8
:100AF00008D142027FF47DAF93EA0C0F7FF470AF10
:100B0000084676E793EA0C0F04D14B023FF44CAF52
:100B100008466EE730F0004C18BF31F0004CCAD1E7
:100B200030F000427FF45CAF31F000437FF43CAF23
:100B30005FE700BF4FF0FF3C06E000BF4FF0010C45
:100B400002E000BF4FF0010C4DF804CD4FEA400227
:100B50004FEA41037FEA226C18BF7FEA236C11D071
:100B600001B052EA530C18BF90EA010F58BFB2EB24
:100B7000030088BFC81738BF6FEAE17018BF40F0A4
:100B8000010070477FEA226C02D15FEA402C05D158
:100B90007FEA236CE4D15FEA412CE1D05DF8040BDD
:100BA000704700BF844608466146FFE70FB5FFF770
:100BB000C9FF002848BF10F1000F0FBD4DF808ED28
:100BC000FFF7F4FF0CBF012000205DF808FB00BF19
:100BD0004DF808EDFFF7EAFF34BF012000205DF873
:100BE00008FB00BF4DF808EDFFF7E0FF94BF0120C0
:100BF00000205DF808FB00BF4DF808EDFFF7D2FFBD
:100C000094BF012000205DF808FB00BF4DF808EDFF
:100C1000FFF7C8FF34BF012000205DF808FB00BFCC
:100C20004FEA40024FEA41037FEA226C02D15FEAB9
:100C3000402C08D17FEA236C02D15FEA412C02D11B
:100C40004FF0000070474FF0010070474FEA40023C
:100C5000B2F1FE4F0FD34FF09E03B3EB12620DD9EA
:100C60004FEA002343F0004310F0004F23FA02F054
:100C700018BF404270474FF00000704712F1610FFB
:100C800001D1420205D110F0004008BF6FF00040D2
:100C900070474FF00000704742000ED2B2F1FE4F95
:100CA0000BD34FF09E03B3EB126209D44FEA00233B
:100CB00043F0004323FA02F070474FF00000704702
:100CC00012F1610F01D1420202D14FF0FF307047A3
:100CD0004FF00000704700BF034B40F0BF6040F48E
:100CE0000030D860704700BF00ED00E0C378FBB172
:100CF000154A0F23D2680121D24330B4C2F3022235
:100D00004478C2F1040523FA02F28378AC40134020
:100D1000234302780D481B0102F01F058418DBB243
:100D2000A94084F80033520940F8221030BC7047C3
:100D30000121037805485A0903F01F03203201FA04
:100D400003F340F82230704700ED00E000E100E0DE
:100D5000436830B423F470230C790A6823F4807359
:100D600043EA04231343436085680A4AD1E90243F6
:100D70002A4023434C79134343EA440383600A7CAB
:100D8000C36A013AD2B223F4700343EA0253C36246
:100D900030BC7047FDF7F1FF836819B143F00103E0
:100DA0008360704723F0010383607047836843F0DA
:100DB00008038360704700BF8068C0F3C0007047BD
:100DC000836843F004038360704700BF8068C0F30A
:100DD00080007047836819B143F4A00383607047B3
:100DE00023F4A00383607047092970B41BD9072638
:100DF000A1F10A0404EB4404C568A640A34025EA17
:100E000006042343062AC36019D81F24013A436B02
:100E100002EB8202944001FA02F223EA04010A433F
:100E2000426370BC70470725046901EB4106B54079
:100E3000B34024EA05042343062A0361E5D90C2ABA
:100E40000DD81F24073A036B02EB8202944001FA8B
:100E500002F223EA04010A43026370BC70471F25B3
:100E60000D3AC46A02EB8202954001FA02F324EAC9
:100E700005021343C36270BC704700BFC06C80B2F0
:100E8000704700BF83793BB31D4B01681A6810B4EB
:100E900022EA01021A605A6822EA01025A600279C3
:100EA00002F1804202F58232146821431160996890
:100EB000026821EA02019960D96821EA0201D96039
:100EC0004179102913D001F1804303F58233196869
:100ED00010BC0A431A6070470379016803F180432C
:100EE00003F582331A6822EA01021A607047996892
:100EF00010BC11439960D9680A43DA60704700BF9B
:100F0000000401400246054B19685869104003D09F
:100F1000114214BF01200020704700BF00040140AF
:100F2000014B5861704700BF00040140024B034968
:100F3000034A59605A607047002002402301674508
:100F4000AB89EFCD324AD368DB0707D4D3685907A2
:100F500048D4D368DB0619D5032070474FF43023FB
:100F6000D168C9070CD4D168490734D4D268D206F5
:100F70000AD5013B002B4FF0030008BF0520704746
:100F8000013BEDD105207047012BFBD0204A1369AE
:100F900043F0020313615061136943F0400313618E
:100FA000D368D90720D54FF43023D168C80725D49A
:100FB000D168490726D4D268013BD2064CBF032032
:100FC0000420002B08BF052041F6FD71104A13696B
:100FD0000B4013617047013B002B4FF0020008BF2C
:100FE0000520704702207047D3685B070DD4D36893
:100FF00013F0100F14BF03200420E5E7013BD4D108
:101000000520E1E70220013BDBE70220DCE700BF2F
:1010100000200240304A10B4D368DB0708D4D368FC
:101020005C0743D4D368DB061BD5032010BC704794
:101030004FF40053D468E4070CD4D468640732D466
:10104000D268D2060BD50320013B002B08BF052038
:1010500010BC7047013BEDD1052010BC7047012B3F
:10106000FAD01D4A136943F0010313610180D3686C
:10107000DB071ED54FF40053D168C80723D4D168CD
:10108000490724D4D268013BD2064CBF0320042078
:10109000002B08BF052041F6FE710F4A10BC1369F2
:1010A0000B40136170470220013BCEE7022010BCC9
:1010B0007047D3685C070DD4D36813F0100F14BFCA
:1010C00003200420E7E7013BD6D10520E3E7022017
:1010D000013BDDE70220DEE70020024030B4CC789F
:1010E000E30648BF8B7804F00F0548BF1D430B880B
:1010F00013F0FF0F33D0482C026800F0AD80282C8D
:1011000000F03381D90744BF22F00F022A43990728
:1011100044BF22F0F00242EA0512590744BF22F40C
:10112000706242EA0522190744BF22F4704242EA83
:101130000532D90644BF22F4702242EA05429906DC
:1011400044BF22F4700242EA0552590644BF22F01D
:10115000706242EA0562190600F104810260FF2B09
:1011600048D9482C426847D1D90505D54FF480713C
:1011700022F00F022A4301619C0506D54FF400714D
:1011800022F0F00242EA05120161590506D54FF43A
:10119000806122F4706242EA052201611C0506D5D5
:1011A0004FF4006122F4704242EA05320161D90431
:1011B00006D54FF4805122F4702242EA05420161C3
:1011C0009C0406D54FF4005122F4700242EA055205
:1011D0000161590406D54FF4804122F0706242EA61
:1011E000056201611B0404D54FF4004365F31F72CF
:1011F0000361426030BC7047282C6CD0D90544BFD5
:1012000022F00F022A439C0544BF22F0F00242EA7A
:101210000512590544BF22F4706242EA05221C05FA
:1012200044BF22F4704242EA0532D90444BF22F49A
:10123000702242EA05429C0444BF22F4700242EA52
:101240000552590444BF22F0706242EA05621C0450
:10125000CFD565F31F72CCE7D90704D5012122F061
:101260000F022A430161990705D5022122F0F002FD
:1012700042EA05120161590705D5042122F4706282
:1012800042EA05220161190705D5082122F47042BE
:1012900042EA05320161D90605D5102122F47022F7
:1012A00042EA05420161990605D5202122F4700227
:1012B00042EA05520161590605D5402122F07062CB
:1012C00042EA0562016119067FF548AF802165F3A6
:1012D0001F72016142E7D90505D54FF4807122F0F4
:1012E0000F022A4341619C0506D54FF4007122F09C
:1012F000F00242EA05124161590506D54FF48061BA
:1013000022F4706242EA052241611C0506D54FF4C1
:10131000006122F4704242EA05324161D90406D5E7
:101320004FF4805122F4702242EA054241619C044C
:1013300006D54FF4005122F4700242EA0552416191
:10134000590406D54FF4804122F0706242EA0562EA
:1013500041611C047FF54DAF4FF4004365F31F72EC
:10136000436146E765F31F72F8E6D90704D501210A
:1013700022F00F022A434161990705D5022122F08C
:10138000F00242EA05124161590705D5042122F411
:10139000706242EA05224161190705D5082122F44D
:1013A000704242EA05324161D90605D5102122F486
:1013B000702242EA05424161990605D5202122F4B6
:1013C000700242EA05524161590605D5402122F0DA
:1013D000706242EA0562416119067FF5BFAE802165
:1013E00065F31F724161B9E6806880B2704700BF43
:1013F00001617047416170470AB101617047416105
:10140000704700BF0028194B00F44012B4BFDB69DD
:101410005B68B2F5401F30B484B21FD0C20214D54D
:101420000322C0F30345AA4023EA020343F070639A
:1014300021B1420D120104FA02F213430B4A0028B3
:10144000B4BFD361536030BC7047420D120104FA3F
:1014500002F223EA020343F07063E9E7034D23F04D
:1014600070636A6822F070626A60E1E70000014020
:1014700010B40F2401F0FC0303F1804303F5803323
:1014800001F003019A6889008C4022EA04029A6004
:101490009A6800FA01F1114310BC9960704700BFCF
:1014A000014B1860704700BFD8004242214A30B457
:1014B000536803F00C03042B22D0082B23D01E4BBF
:1014C00003601C4A1D4C51681D4DC1F30311615C42
:1014D000CB4043605168C1F30221615C23FA01F102
:1014E00081605168C1F3C221615CCB40C360526826
:1014F000C2F38132AA5C30BCB3FBF2F303617047E4
:10150000104B0360DDE753685168C3F38343C9039D
:1015100003F1020304D40C4A02FB03F30360D0E797
:10152000526892034CBF094A064A02FB03F3036068
:10153000C7E700BF0010024000127A00040000203C
:101540000000002000350C0000093D00801A060054
:10155000044A936911B118439061704723EA00006F
:101560009061704700100240044AD36911B11843DA
:10157000D061704723EA0000D0617047001002403C
:10158000274A038890429BB212D002F50062904233
:101590000ED0B0F1804F0BD0A2F59832904207D018
:1015A00002F58062904203D002F58062904203D13E
:1015B0004A8823F0700313431A4A904217D002F569
:1015C0008062904213D0CA8823F440739BB21343C5
:1015D000134A30B48D880C88904203808585048539
:1015E0000DD10B7A0386012330BC838270470380C0
:1015F0008B8883850B8803850123838270470A4B80
:101600009842EED003F540639842EAD003F5806338
:101610009842E6D003F580639842E2D0E3E700BF4A
:10162000002C01400010004000340140038821B12B
:101630009BB243F001030380704723F001031B04B6
:101640001B0C0380704700BF83899BB212B1194302
:101650008181704723EA010181817047C94389B2C2
:101660000182704770B50D460446038ACA889BB252
:1016700023F440531343898903828289AE8822F47C
:10168000B05323F00C031B0428891B0C6A893343D5
:10169000034313439BB2A381A38A86B09BB223F476
:1016A00040730B4301A8A382FFF700FFDDE903317C
:1016B0001948A289844208BF0B4612F4004F2A68D9
:1016C00003EB830314BF5200920003EB8303B3FBCD
:1016D000F2F364221148A589A0FB0361490902FBCA
:1016E00011332A044FEA01110AD41B013233A0FB43
:1016F0000323C3F343130B439BB2238106B070BD96
:10170000DB003233A0FB0323C3F3421242EA01039E
:101710009BB2238106B070BD003801401F85EB519C
:10172000838921B19BB243F400538381704723F432
:1017300000531B041B0C8381704700BF012310B4AE
:1017400001F01F04C1F34211012903FA04F30FD081
:1017500002290CBF1030143022B1026810BC1343B0
:1017600003607047026810BC22EA030303607047FD
:101770000C30F1E7C1F3080181807047704700BF6A
:10178000704700BF024B5A7802B91A73704700BF06
:101790005413002010B5054C2378022B04D004F01C
:1017A0006FF9637803B9237310BD00BF5413002091
:1017B00010B40D4C2346C4F1006101F5FE3104F56F
:1017C00080605A18127803F8012B8342F9D12378EC
:1017D0000A2B06D04FF48062FF21034810BC08F0AA
:1017E00049BB10BC704700BFB80E0020014B185C0D
:1017F000704700BFB80E0020014B1954704700BF5E
:10180000B80E00202DE9F8430746002A3CD00023FB
:10181000DFF88880441E44448E1811F8015B63BBD6
:1018200005EBD313B142DBB204F8015FF5D11744E5
:10183000174808F80730FFF785FB04281BD14FF63F
:10184000FF77144C144EA51E04F58069A6EB08061C
:1018500034F8041C7019B94201D0FFF7DBFB29886A
:101860003019B94205F1040504F1040401D0FFF771
:10187000D1FBA145ECD1BDE8F8836B1CB14204F863
:10188000015FDBB2C9D1D2E71346DFF81080CFE7A2
:1018900000FC0108BC0E0020FEFB0108B80E002071
:1018A000F0B4F2B10024104F4D1E3D44861815F8D7
:1018B000013F74B900F8013B03EBD414B042E4B229
:1018C000F5D11144785C001BB0FA80F0F0BC4009FF
:1018D000704700F8013B864203F10103DCB2E6D118
:1018E000EFE71446004FEDE7B80E0020002108B5E1
:1018F0005022074808F0BEFA0020064905F0FAF920
:1019000000B108BD0720BDE8084004F0D5B800BF0D
:10191000B8120020E41200200149024806F0E8BD98
:1019200078130020D41200202DE9F04F0646C44F52
:101930004822002138469BB008F09CFAC14B03CBEB
:101940001A889B78C7F80100C7F80510A7F8092086
:10195000FB7296F800A0BAF1240F00F0B6820022C4
:101960008DF84720BAF1000F00F027840A924FF05B
:101970000008C346CDE90788DFF8CC92CDF8248073
:10198000CDF81880AAF14105EBB2192B00F2A08323
:10199000531C304612AA0DF147018DF8473002F072
:1019A000D5FA002800F09983DDF848804046FFF71B
:1019B00073F9C4B22046FEF719FF01464046FEF710
:1019C0005FFE4946FEF766FF08F0BAFBBAF1470F23
:1019D00082B263D0BAF14D0F27D1002A40F08E8336
:1019E000782C1DD8702C40F23E82713C072C17D801
:1019F000DFE814F0670263025F025B025702160021
:101A000016005302089B002B40F0D484262C7C70D7
:101A100040F0BD83A2F114039BB21E2B40F27A83E7
:101A2000142420461BB0BDE8F08F192DF8D801A36F
:101A300053F825F037200008211A0008211A000861
:101A4000211A0008211A00084B200008211A00085A
:101A5000211A000855200008672000087920000896
:101A60008B200008211A000895200008211A000880
:101A7000A3200008211A0008AD200008A51F0008B7
:101A8000CF1F0008211A0008211A0008211A000897
:101A90000F20000823200008E91F0008652CBFD88C
:101AA00001A353F824F000BF051A0008051A000826
:101AB000051A0008051A0008EB1E0008211A000884
:101AC000211A0008211A0008211A0008211A00080A
:101AD000FD1E0008211A0008211A0008211A00081A
:101AE000211A0008211A0008211A0008251F0008E1
:101AF000251F0008251F00082D1F00082D1F0008A6
:101B0000211A0008211A0008211A0008211A0008C9
:101B1000211A0008211A0008FD1E0008211A0008D9
:101B2000FD1E0008211A0008211A0008211A0008C9
:101B3000211A0008211A0008211A0008211A000899
:101B4000051A0008211A00084D1C0008211A000877
:101B5000211A0008611F0008211A0008211A000834
:101B6000211A0008211A0008211A0008611F000824
:101B7000211A0008211A0008211A0008EB1E00088B
:101B8000811F0008811F0008811F0008811F0008B5
:101B9000811F0008811F0008211A0008371F000854
:101BA000211A0008211A0008211A0008211A000829
:101BB000211A0008211A0008211A0008211A000819
:101BC000211A0008211A0008211A0008211A000809
:101BD000211A0008211A0008211A0008211A0008F9
:101BE000211A0008211A0008411F0008211A0008C4
:101BF000211A0008211A0008211A0008211A0008D9
:101C0000211A0008211A0008211A0008211A0008C8
:101C1000491F0008491F0008FD1E0008571F000843
:101C2000571F0008211A0008211A0008211A00086D
:101C3000211A0008211A0008E51E0008E51E000808
:101C400008130020B81200200000C8420723002A11
:101C500040F054824BFA03F2D40700F1598201227A
:101C600002FA03F343EA0B0B1FFA8BFB9DF84720A4
:101C700016F802A0BAF1000F7FF484AE079BDDF8DE
:101C80001880CDF818B023B1089B002B08BF0223A1
:101C9000089318F0200F04D0BB4B7A6A9A4200F3E5
:101CA00058820A9B002B00F0458218F0010F00F0CB
:101CB000AA82FB78012B04D1F868B449FEF7EAFD4B
:101CC000F86018F4807F02D1B14BDB683B633C784D
:101CD000042C00F04D82642C00F05D82652C40F0F5
:101CE0003A8208F0C003C02B40F04A8228F0C008B6
:101CF0001FFA88F897F80590B9F1000F00F0858277
:101D0000B9F1010F40F0668200254FF0020ACDE9DB
:101D10000B590526D146FB78012B00F08882089BE1
:101D2000032B00F079829B4B0DF1580C0FCB8CE804
:101D30000F00069B99050ED5F879062800F240831E
:101D4000934B9B79834206D016A904F0D3FF002859
:101D500000F0A3853C780A2C00F0E2825C2C00F0B5
:101D60009382089B032B33D0079A002A30D08849EE
:101D70003B79D1F84CB0002B00F04986D00740F1F8
:101D8000D886352C00F0E986814BB96BD869FEF70F
:101D900079FC079BB8639A0740F1E2867C4BF96BAC
:101DA000186AFEF76FFC079BF863580740F17885C7
:101DB000774B396C586AFEF765FC079B38641B0744
:101DC00040F1C686724B796C986AFEF75BFC7864CA
:101DD0001E2C00F07985352C00F06C851C2C00F051
:101DE00057857C78502C40F06985079A002A40F08E
:101DF000CA860A9B0D92002B00F0D88228F0210899
:101E00001FFA88F2089919B122F470581FFA88F263
:101E1000002A40F0D282CDE913221592002B00F067
:101E2000D282069B23F04903002B40F04A853B7881
:101E3000352B02D0002B40F04485554A13A8117A67
:101E4000537AD2680B4354498DF85430149201F000
:101E5000BBF8044600287FF4E4AD504B504D0FCB47
:101E600085E80F00DDE5022C0FD8002C40F023811F
:101E700003234FF400623B720B234BFA03F3D807A2
:101E800000F1468142EA0B0BF0E61E2C7FF4C8AD50
:101E90004FF400620B233C72EFE7782300223B7083
:101EA000EBE7752300223B70E7E7742300223B70C9
:101EB000E3E7732300223B70DFE7722300223B70CD
:101EC000DBE7712300223B70D7E70022012196F85F
:101ED00003A0BA7079700322BAF1000F00F0938169
:101EE0000A9144E564233C70B1E61C2C3C7000F080
:101EF00000811E2C00F0FD800023A8E6002A40F09F
:101F0000F180089B002B40F055821C2C3C7000F0A7
:101F1000D9801E2C00F0D6805C2C00F0D3800122EA
:101F2000089297E6113C02237C7190E6C4F11504F7
:101F30000623FC708BE6002A7FF472AD0A2389E643
:101F400050237B70012382E6002A40F0D9805A3C5E
:101F500003233C717EE6C4F15E040523BC7076E683
:101F6000089B002B40F02682312C00F00B810A2ABE
:101F70007FF456AD0122BA7103220823089269E664
:101F8000363C0923FC7162E6809698003333CB41DE
:101F9000B8120020E4120020081300204013002093
:101FA000D41200204FF480740822C7F83080069BBA
:101FB00043FA02F2D00725D440460021FEF708FE7E
:101FC000002840F01081069B234306934EE64046CE
:101FD000A849FEF71BFE002840F0858487F83440AE
:101FE00009224FF40074E2E7079B4FF4805443F05A
:101FF000040307930C23C7F84080069A42FA03F3C0
:10200000D907E0D5192420461BB0BDE8F08F079B07
:102010004FF4806443F001030793C7F838800A2324
:10202000EBE7079B4FF4006443F002030793C7F804
:102030003C800B23E1E7079B4FF4005443F0080377
:102040000793C7F844800D23D7E701240022C7F87F
:102050000C80ACE7099B022443F001030993C7F805
:1020600010800123C9E7099B042443F0020309936C
:10207000C7F814800223C0E7099B082443F0040337
:102080000993C7F818800323B7E787F82040042393
:102090001024B2E74046FEF7D9FD202405227862DD
:1020A00085E740240622C7F8288080E7802407239C
:1020B000C7F82C80A1E7012C7FF4EAAE4FF4006250
:1020C0000B23DAE601230893204400233870C1E58E
:1020D000012420461BB0BDE8F08F022420461BB02F
:1020E000BDE8F08F1C2C3C7005D01E2C03D05C2C5E
:1020F00004D1002AE8D00A2AE6D091E4172490E41B
:102100000A2A7FF48DAC5A2C3FF48AAC0423A1E553
:10211000152486E4584921FA03F3DD077FF580ACE6
:1021200056490123A1FB0212D208763A7A700222A4
:1021300008928FE5BB78012B57D0514A53780A9308
:10214000002B44D118F0010F7FF4B3AD1369FB608D
:10215000B7E51B2465E4712C0AD0722C08D0732CCF
:1021600006D0742C04D0752C02D0782C7FF4C2AD2C
:1021700018F0400F04D028F040081FFA88F8B9E59D
:102180001C244EE40322BB710892082362E502215D
:10219000012308915BE508F05003502BF0D108F4BF
:1021A0009073B3F5907FEBD108F08103812BE7D1D9
:1021B000A3F2732308EA03089CE5BA78D046012A03
:1021C000CDE908AACDF81CA0CDF818A0B5D1002300
:1021D0000A9376E502254FF0010A0023D146062630
:1021E0000B950C9397E504241BE4089B022BEED17E
:1021F0007B78502B3FF465AD002B3FF462AD18F0B7
:10220000010F7FF45EAD16240BE4012502230326A3
:10221000CA460B950C937EE5BB79012B7FF483AD09
:10222000079B042B3FF47FAD2524FFF7FABB079BE8
:10223000D90704D5B86B1349FEF72CFBB863079B8D
:102240009A0704D5F86B0F49FEF724FBF863079B48
:102250005B0704D5386C0B49FEF71CFB3864079B01
:1022600018077FF55CAD786C0649FEF713FB7864C0
:1022700055E500BF00007F4301041040CDCCCCCC1D
:10228000B81200203333CB41079B002B00F07C8237
:102290009F4AD907D46C40F17A821699B86BFEF741
:1022A000F1F99B4B0146D869FEF7EAF9B863079B41
:1022B0009A0740F1E9821799F86BFEF7E3F9944B1E
:1022C0000146186AFEF7DCF9F863079B5B0740F1EB
:1022D00062821899386CFEF7D5F98D4B0146586A21
:1022E000FEF7CEF92146FEF7CBF93864079B1C07B1
:1022F00040F14B83796C1998FEF7C4F9844B014681
:10230000986AFEF7BDF9786400230D937C78502C11
:1023100000F03984089B022B00F082810A9B6AE559
:10232000079B002B00F0308218F0500F3FF428AFCD
:10233000B86AFEF7B1FCC3B2062B41D897F820204B
:10234000142A06D0022A7FF46BAB18F0800F7FF4BA
:1023500067AB28F050081FFA88F8002B00F01983AB
:10236000013BDBB218460D936A4904F0C3FC002818
:1023700000F0938297F82030654A142BD46C079BA9
:1023800000F01085DA0744BFBB6B3B61079B9B07DE
:1023900044BFFB6B7B61079B5C0744BF3B6CBB612D
:1023A000079B1807B2D57B6CFB61AFE75A4A08EA76
:1023B000020227E51824FFF734BB2424FFF731BBC2
:1023C0001D24FFF72EBB554B93F85830980700F1AA
:1023D0008D824F4B5C7A0A9B03F040054C497A6A28
:1023E000BB788A614B7013B108238DF85430484A8A
:1023F000FB68D668D7F830803046414613611393A6
:10240000FEF7DCFB002800F0CA810A9B9B0600F166
:10241000C681B0460DB9CDF85080B87A97F83430FF
:102420003B4DA0422B7503D004F002FEBC7A6C72C7
:10243000374B9DF85420787A1B7A144383428DF8E9
:1024400054400BD0FFF7A6F9787A012800F00A84EF
:102450002F4A9DF85440137A184310723B78044376
:10246000042B8DF8544000F08683642B00F0958295
:10247000652B00F05083712B00F06F82722B00F0FF
:102480005582732B40F0B681BC6A00212046FEF7CE
:1024900095FB002840F0A08120464FF07E51FEF7CA
:1024A0008DFB002840F0FD83FB7819497A798B7009
:1024B000089B0A71032B00F09782154DFC79AB79CC
:1024C000A34208D016ABAC7105F12C040FCB84E805
:1024D0000F0006F003F83B783A790D49282BCA70B3
:1024E0001ED8092B2BD90A3B1E2B28D8DFE803F076
:1024F000862727272727272727272727272727270D
:102500002727712771272727272727276C27670069
:10251000B812002018130020DEFCFFFF8C160020EC
:102520005C2B00F07B84662B09D10023A24A136048
:10253000C2E90133D360A2F13C0105F0CFFF7B7803
:102540009E4A502B137003D0089A022A00F0C482CE
:102550003C7A9A4BDC71002C3FF463AA03F090FAAA
:10256000964BDB79032B00F0918346F26442002006
:10257000012440F201156421914B904E1A811A7882
:102580003071022AF070B0713480358199720ED0AA
:1025900006F12C0104F0AEFB002800F07E8105F06E
:1025A0009DFF204604F03CFD2046FFF7EBF8082095
:1025B00003F0B0FA0024814BDC71FFF732BA072038
:1025C000804904F0C9FABAE706207E4904F0C4FA4B
:1025D000B5E79DF8543043F001038DF85430089B63
:1025E000002B40F03E84784D764C284613A901F02C
:1025F000F3F995E80F0084E80F00A0E70D9D724CF9
:102600002846214604F0A8FA6C4B9B79AB4296D140
:1026100094E80F006D4C84E80F0005F05FFF8EE733
:10262000002C00F07A810021F868FEF7C7FA002834
:102630007FF4E9AD032C0BD000F21782012C00F0DF
:102640006C81022C0A9B7FF4D6AB43F004030A93FF
:10265000079B002B00F09880334200F0FF83574B1C
:1026600007EB8A0203EB8A03D969906BFEF708F83F
:10267000524B07EB850203EB85030446D969906B47
:10268000FDF7FEFF18F08003A346044600F0F28336
:1026900010224F494B4807F0DFFB002800F02D8443
:1026A000FB78012B04D1F86A4A49FEF7F3F8F86287
:1026B000F96A0846FEF7EEF84FF08141FEF7EAF8B6
:1026C000594606465846FEF7E5F821460990204649
:1026D000FEF7E0F8099B01461846FDF7D3FF0146D7
:1026E0003046FDF7CDFF00210646FEF771FA0028BF
:1026F00040F0BD83304607F087FD21460646584628
:1027000001F000FD014606F10040FEF777F97B7805
:102710000646032BFB6A08BF00F10046002118465D
:102720000993FEF755FA28B1099B06F1004603F11B
:102730000043FB6221463046FEF7ACF8014658469E
:10274000FDF79EFF4FF07C51FEF7A4F80AF1020A54
:1027500007EB8A0A5946CAF808003046FEF79AF88D
:102760002146FDF78FFF4FF07C51FEF793F80235BD
:102770000A9B28F0800807EB85051FFA88F803F00C
:102780000103A860FFF737BB1A24FFF74AB90B4BC8
:10279000DB6BBB638BE5094B5B6C3B64A6E5012CF3
:1027A00006D0204604F044FC044BD7F830805C7A15
:1027B000024BC3F80C802DE6F4120020B812002062
:1027C00054130020D412002018130020E41200201B
:1027D000401300203333CB410821AB480022FEF7E1
:1027E0000BFE4FF07E51B86AFEF7E8F9002840F082
:1027F00058823B78742B15D1BC6A00212046FEF725
:10280000DDF9002840F0E68120464FF07E51FEF7CA
:10281000D5F900283FF448AE01229B481146FEF747
:10282000EBFD3B78752B15D1BC6A00212046FEF7E5
:10283000C5F9002840F0DC8120464FF07E51FEF7BC
:10284000BDF900283FF430AE012220218E48FEF76A
:10285000D3FD3B78782B7FF427AEBC6A002120465D
:10286000FEF7ACF9002840F0F18220464FF07E518F
:10287000FEF7A4F900283FF417AE01224FF40071CF
:102880008248FEF7B9FD0FE6814B1B6CFB631CE52C
:102890000620804904F02EFAE0B90724FFF7C1B8FA
:1028A0007B4B5B6A3B64079B1A0740F15181352CD7
:1028B0007FF488AA7C78012C00F2628100230D93BA
:1028C00028E51024FFF7ADB80720724904F012FA8A
:1028D0000028E2D0079A002A40F058810A9B0D9206
:1028E0000892FFF788BA2624FFF79BB87B78013B54
:1028F000022B03D90A9B43F040030A93079B1BB1A9
:10290000089B022B00F0B481614B5C7A102C00F024
:1029100097810A9B03F0400560E5079B002B089B0D
:1029200008BF002308930A9BFFF765BABC6A002121
:102930002046FEF743F9002840F01C8220464FF065
:102940007E51FEF73BF900283FF4AEAD0122102185
:102950004D48FEF751FD3B7893E5BC6A00212046C7
:10296000FEF72CF9002840F0628220464FF07E519D
:10297000FEF724F900283FF497AD01224FF480714F
:102980004248FEF739FD3B7878E5414B9B6C7B6410
:10299000BAE4FB7918460D93E6E4BC6A3E4920464A
:1029A000FEF70CF9002840F08281386BFEF774F9CD
:1029B00006462046FEF770F90546F86AFEF76CF900
:1029C0000346F868DBB20193FEF766F9F6B2C4B2CB
:1029D000EDB23346284697F8242097F8201000944B
:1029E00005F0F4FE3B7843E5BB794B710BB900234E
:1029F0003B643C6C264B2146D86CFEF7DFF8002880
:102A00007FF45BAD224BDC6405F068FD55E5D00733
:102A100000F109811E4BDB69BB63079B990700F13D
:102A2000F5801B4B1B6AFB63079B5A0740F1C8806C
:102A3000352C00F08980396C1898FDF723FE144B73
:102A4000596CFDF71FFE5946FDF71CFE079B3864C5
:102A50001B077DD51999786CFDF714FE0C4B996C0A
:102A6000FDF710FE7864FFF7B3B904F17403DBB22D
:102A7000032B3FF653ACA4F18C03032B3FF64EAC73
:102A8000DFE803F0100C100C000C014000080140BE
:102A9000B812002018130020000010410A9B43F0D8
:102AA00010030A9304F17203DBB2012B03D80A9BD3
:102AB00043F008030A93079B002B3FF465AE1022F6
:102AC000B349B44807F0C8F9002800F016820A9B01
:102AD00003F00103FFF78FB9012B00F03C82002BBC
:102AE00000F02C82023B012B40F213829DF85430FF
:102AF000A74D43F0040328460A9A13A98DF85430D1
:102B000001F08CF9002840F0FB81A24C95E80F0001
:102B100084E80F001CE5F86AFEF7BEF80446B86AC0
:102B2000FEF7BAF8E4B22146C0B205F0D5FE3B7814
:102B3000A1E4CB699107BB6312D5352C7FF42EA994
:102B4000079B59077FF5ACAE079B1B073FF5B2AE5D
:102B5000914B9B6A7B64FFF73BB9079B9A07EFD4C5
:102B60008D4B1B6AFB63079B5B077FF599AE352C8A
:102B70007FF41EA9E8E7B86A01F00EF93B7874E427
:102B80001E24FEF74EBF1F24FEF74BBFD10702D411
:102B9000814BDB693B61079B9A0702D47E4B1B6A22
:102BA0007B61079B5B0702D47B4B5B6ABB61079B26
:102BB0001C073FF5A9AB784B9B6AFB61FFF7A4BBF1
:102BC000754B5B6A3B64079B1807C1D5352C7FF4B6
:102BD00041AF6FE6012171480022FEF70DFC4FF076
:102BE0007E51B86AFDF7EAFF00283FF41AAE13E6FB
:102BF00020216A480022FEF7FFFB4FF07E51B86AA1
:102C0000FDF7DCFF00283FF424AE1DE6352C3FF431
:102C10000BAFF96B1798FDF735FD5F4B196CFDF79E
:102C200031FDF86300E7352C3FF4F7AEB96B169829
:102C3000FDF728FD584BD96BFDF724FDB863ECE692
:102C4000554B1B78013B022B0A9B03F0400519D81A
:102C500059067FF5C3AB43F020030A9303F0400508
:102C6000FFF7BCBB4C4B9DF854401872FFF7F6BB06
:102C70000A9B43F080030A9303F04005464B5C7ABD
:102C8000FFF7ACBB5A063FF5A9ABE4E7444B1B7812
:102C9000022B3FF48FAC082005F0CEFC02F028FE9A
:102CA00088E4012208213D48FEF7A6FBA1E5386B28
:102CB000FDF7F2FF0446F86AFDF7EEFF0346F868F9
:102CC000DBB20193FDF7E8FFE4B2C0B2234697F808
:102CD000242097F820100090002005F077FD386B35
:102CE000FDF7DAFF0446F86AFDF7D6FF0346F868F9
:102CF000DBB20193FDF7D0FFE4B2C0B2234697F8F0
:102D0000242097F820100090012005F05FFD386B1B
:102D1000FDF7C2FF0446F86AFDF7BEFF0346F868F8
:102D2000DBB20193FDF7B8FFE4B2C0B2234697F8D7
:102D3000242097F820100090022005F047FD386B02
:102D4000FDF7AAFF0446F86AFDF7A6FF0346F868F8
:102D5000DBB20193FDF7A0FFE4B2C0B223460090BE
:102D600097F82420032097F8201005F02FFD3B78DA
:102D7000FFF77EBB102109480022FEF73DFB4FF014
:102D80007E51B86AFDF71AFF00283FF4E4ADDDE597
:102D900040130020D4120020B8120020000C014083
:102DA00054130020D9070AD57D4BB86BD96BFDF7BA
:102DB00069FC7B4B0146D869FDF762FC3861079BD3
:102DC0009A070AD5764BF86B196CFDF75BFC744BD0
:102DD0000146186AFDF754FC7861079B5B070DD527
:102DE0006F4B386C596CFDF74DFC6D4B0146586AC2
:102DF000FDF746FC2146FDF743FCB861079B180729
:102E00007FF584AA664C796CA06CFDF73BFC01460B
:102E1000A06AFDF735FCF861FFF778BA614C624BA8
:102E20000FCB84E80F0005F059FBFFF788BB4FF488
:102E300080715E480022FEF7DFFA4FF07E51B86ADB
:102E4000FDF7BCFE00283FF49EAD96E500224FF44E
:102E500000715648FEF7D0FABC6A06E52024FEF75A
:102E6000E0BD514813A900F0B7FDFFF7BCBB222419
:102E7000FEF7D7BD099A324200F08E80FA7828F02A
:102E80000E08012A1FFA88F86CD0023507EB850579
:102E9000A9682046FDF7F4FB06460AF1020407EB99
:102EA0008404A1685846FDF7EBFB314601F02AF98E
:102EB0000346A968A0681C4601F024F9054620468F
:102EC0002946FD62FDF7DCFB20F00044204638492E
:102ED000FDF79CFE00283FF4FAAD4FF07C512046F0
:102EE000FDF794FE48B933492846FDF7D3FC214647
:102EF000FDF76EFE00283FF4EAAD2124FEF791BDF8
:102F000001287FF425AB2C492C4805F0F1FAFFF796
:102F10001FBB0A9B244DC3F3800304930C9B274CD7
:102F2000FE6A03930B9B2246CDE90193284613A921
:102F3000A5F12803009600F083FDE7E59DF85430E5
:102F4000194D43F00103284613A98DF854301B4C4A
:102F500000F042FDDAE5144D13A9284600F03CFDCF
:102F6000164CD3E51E46164B0E951C4605461549D4
:102F7000099B334113F0010F06F1010605D02068CB
:102F80000F91FDF787FC0F992060042E04F10404D3
:102F9000EED12C460E9D78E72324FEF742BD00BFFC
:102FA000B8120020F4120020401300200008014055
:102FB0000AD7A33B6F12833A78130020D412002063
:102FC000181300203333CB4170B505460B46027A07
:102FD000C86842F00402134928602A7291F8582008
:102FE00003F13804930603D5204605F0A7FAA8B9E3
:102FF0000D4E2046294600F0EFFC347814B1002431
:10300000204670BD01F08AFA0028F8D020233370E2
:1030100004F06EFB04F044F8204670BD0F242046F7
:1030200070BD00BF8C1600205413002010B5012184
:1030300082B01C4C0420FEF78BFA1B4B20466946DD
:103040000093FEF74BF8204600224FF48071FEF704
:10305000D3F9002220464FF40071FEF7CDF901218B
:103060000820FEF775FA04F58064104B204601A98C
:103070000193FEF733F8204600221021FEF7BCF939
:10308000204600220821FEF7B7F920460022012140
:10309000FEF7B2F9204600222021FEF7ADF902B07A
:1030A00010BD00BF000801400003021039000210EB
:1030B00070B5012188B04FF40070FEF749FA002581
:1030C00002231E4801A90124ADF8043040F2011684
:1030D0008DF80750FEF702F84FF4602200231848DD
:1030E00002A9CDE904230295ADF80C608DF81840D3
:1030F000FDF72EFE2246072309211148FDF774FE35
:103100000F482146FDF748FE0D48FDF74FFE0C48DD
:10311000FDF752FE0028FAD10948FDF751FE084894
:10312000FDF754FE0028FAD101210548FDF752FEB3
:103130000348FDF7A3FE08B070BD00BF000C0140BE
:10314000002401400148FDF799BE00BF0024014062
:1031500010B5012186B00920FEF7FAF9284B29485D
:1031600001A90193FDF7BAFF01210420FEF7F0F950
:10317000254B264802A9264C0293FDF7AFFF0022FB
:103180004FF400712148FEF737F994F858301B07C7
:1031900006D44FF480721F4BC3F8842006B010BDD4
:1031A000642000F09FFF0C210120FEF761F90D2142
:1031B0000120FEF75DF90E210120FEF759F90F21DC
:1031C0000120FEF755F994F858304FF4704113F090
:1031D000400F14BF08240C240022012304A80491EA
:1031E0008DF814208DF816308DF81540FDF74AFE45
:1031F000094B03A80393FDF779FD06B010BD00BF8E
:1032000000F00348000C01400002021000080140D9
:103210008C16002000E100E0280202014FF48072C9
:10322000014BC3F88420704700E100E070B51B48F3
:10323000FEF7DAF800240546184E3046FEF7D4F8BB
:1032400001348542E4B205D03046FEF7CDF80124C2
:103250000546F2E7092CF0D9114B93F858305B067C
:103260005CBF85F47045ADB2ADB10E4B19885A887C
:103270000D4214BF0120002015429A88DB8818BF38
:1032800040F00200154218BF40F004001D4201D07A
:1032900040F0080070BD284670BD00BF000C014022
:1032A0008C16002018B3000808B54FF48050FDF7C5
:1032B00029FE88BB4FF40050FDF724FE38BB4FF4C5
:1032C0008040FDF71FFEE8B94FF40040FDF71AFEFD
:1032D00098B94FF48071134A134BC2F884111B78CC
:1032E000012B02D0114B1B7803B108BD00F0FEFD8D
:1032F000BDE80840012005F0B3B94FF40040FDF7E8
:103300000FFEE6E74FF48040FDF70AFEDCE74FF4DE
:103310000050FDF705FED2E74FF48050FDF700FEA8
:10332000C8E700BF00E100E054130020881300202C
:103330002DE9F04FDFF80C9393B099F80130069027
:1033400013B113B0BDE8F08F05460624B549CDE9A9
:103350000C330868496809AA0B9315F001038DF82E
:10336000344003C205F00104079300F0F781DFF851
:10337000D882AD49D8F83000FDF78CFA0021834699
:10338000FDF73AFC002800F0F481069BC3F34002ED
:103390009F0704920CD5A449D8F83400FDF77AFAB7
:1033A000054658462946FDF727FC002800F0DF8136
:1033B000069BC3F380025E0703920CD59A49D8F8A6
:1033C0003800FDF767FA054658462946FDF714FC14
:1033D000002800F0CA81069BC3F3C0021D070592B6
:1033E0000CD59149D8F83C00FDF754FA05465846EB
:1033F0002946FDF701FC002800F0B581E3B20193F6
:103400000423012600935B46D8F86050874F884913
:103410000EA8029305F06CF8DDE90123002A00F004
:103420002D810020B8F85A208149D407086040F166
:103430003981002E40F039810E930222BDF82440DC
:103440000198049981B10021B8F85AC078481CF05D
:10345000020F416000F01F81002E40F01F810F938A
:103460001046BDF826100C43039A8AB10022B8F822
:103470005AC06F4901301CF0040FC0B28A6000F0DE
:103480001881002E40F018811093BDF828201443B5
:10349000059A8AB10022B8F85AC0654901301CF07B
:1034A000080FC0B2CA6040F0F2800EB903F10043C9
:1034B0001193BDF82A301C43FDF794F906F0A4FEE1
:1034C0002946A9F80640FDF7E5F903460BA90EA821
:1034D0000B9301F017F9042389F8043004F008F97C
:1034E00003F0DEFD534D2EBB04F002F93B7813F0E0
:1034F000340F40F083802207F5D103F0C9FFB8F8FC
:10350000640000F0EFFD86F00104002E40F0BA8068
:103510004949D8F86800FDF7BDF90346D8F85C5072
:10352000009A02F1FF3A1AF0FF02009200F0C88000
:1035300026466CE72846FDF757FF4FF0000A834602
:103540002846FDF751FF0AF1010A58455FFA8AFA49
:1035500006D02846FDF748FF4FF0010A8346EFE703
:10356000BAF1090FECD998F8583058065CBF8BF4C3
:10357000704B1FFA8BFBBBF1000F36D02F4A13881C
:1035800052881BEA030F14BF012300231BEA020F1A
:103590002A4A18BF43F0020392881BEA020F274A07
:1035A00018BF43F00403D2881BEA020FBDF82420A1
:1035B00018BF43F00803144202D0D90748BF944310
:1035C000BDF82620144202D0980748BF9443BDF8A6
:1035D0002820144202D0590748BF9443BDF82A203E
:1035E000144202D0DB0818BF9443A9F8064004F047
:1035F0007FF83B7813F0340F3FF47DAF3B78DD0666
:10360000DCB276D4A00621D42EB3630700F1B480D7
:103610000B4B1B78002B40F0B380042005F016F80C
:103620006BE700BF20B300080000C0BF6313002099
:1036300078130020000C01400000A04018B30008DF
:1036400088130020541300208C160020072005F05A
:1036500007F8002ED9D14D48FDF7C6FE3546824603
:103660004A4C2046FDF7C0FE01355045EDB244D02E
:103670002046FDF7B9FE01258246F2E714461046C2
:103680000122DEE6D8F86830D8F8605048E7002E0E
:103690007FF40CAF0CE7002E7FF4E1AE03F10041A4
:1036A0000F91DDE6002E7FF4C7AE03F100420E92CB
:1036B000C3E6002E7FF4E8AE03F100421092E4E688
:1036C000079B0BB1324B1A60049B13B10023304AA5
:1036D0005360039B13B100232D4A9360059B13B1E4
:1036E00000232B4AD360002389F8043013B0BDE8CF
:1036F000F08F062004F0B4FF84E7092DB1D998F8C3
:10370000582051065CBF8AF470431FFA83FABAF15D
:10371000000F3FF47DAF1F4B1A8859881AEA020F39
:1037200014BF012200221B4B1AEA010F9988194B82
:1037300018BF42F002021AEA010FD98818BF42F0FE
:103740000402069B1AEA010F18BF42F00802134256
:103750003FF45EAF082004F083FF59E74FF0000B01
:10376000DFF8348011E6AB4648E6AB4633E6AB46BD
:103770001EE64FF0000B08E6092004F071FF47E752
:1037800000F0B4FB02F0B4F8DBE500BF000C014030
:103790007813002018B300088C16002010B504F030
:1037A000CDFE78B101230C4C2078E37008280AD1B3
:1037B00004F042FF01E023782BB102F099F863781E
:1037C000002BF8D010BD00F091FB022004F048FF60
:1037D000BDE8104002F08CB85413002070B50646C6
:1037E00086B04FF44070FDF777FA0125272301A832
:1037F000ADF804308DF80750FDF778FA29464FF4FC
:103800008020FDF7B1FE1A4C29460920FDF7A0FEE5
:10381000184B204669460093FDF760FC4FF40062A8
:10382000042369462046ADF800208DF80330FDF7EB
:1038300055FC00234FF44022CDE90332A4F5444463
:10384000ADF81430A38920469BB243F00C030296D6
:1038500002A9A381FDF706FF2A46204640F2255122
:10386000FDF76CFF29462046FDF75AFF06B070BDF4
:10387000000C0140000403182DE9F04F012183B032
:103880001020FDF765FE344B01A934480193FDF784
:1038900025FC05F0E9FF05F0F3FF05F093FDFDF7CA
:1038A00045FBFDF785FF2E4A46F2644B13682D4D0C
:1038B00023F00403136002F0CDFF03F089FB03F053
:1038C0005FFE04F06FFBFFF7B1FB4FF41650FFF7FC
:1038D00085FF00210A460C462348244EC0E900110A
:1038E000C0E90211DFF890A0DFF89090DFF8908037
:1038F0001F4F64211F4B8AF80040AC6089F80040DC
:10390000A97288F800402C603C702A701C70C6E9CF
:103910000044C6E902446C60AC81A5F808B003F02D
:10392000EFF8FDF7E3FF03F06DFBFDF727FFFFF76F
:103930000FFC01F09DFCFFF7BBFB00F0ABFD03F0BB
:10394000A7FD01F04BF9FDF7E7FF02F041F901F0A7
:10395000DDFF2A78CDE700BF0020021000100140F3
:1039600010E000E0541300207813002068130020BA
:103970005013002062130020641300206313002002
:103980008813002042F22831094B30B4002501246D
:103990001A4601FB00F159609D601C60136803F03A
:1039A0000113012BFAD030BC0023136093607047E1
:1039B00010E000E010B5064C4FF4005122780548A5
:1039C000FDF71AFD2378013B18BF0123237010BDBA
:1039D0001400002000100140F8B5174E0F4696F86D
:1039E000583005469906154C04D52378202B0AD06B
:1039F000FFF7D4FE2378022B05D1F8BD00F0BAFD05
:103A000038B101F09FFC01F073FF6378002BF5D013
:103A1000F3E72846394600F075FE0028EDD196F808
:103A200058309A07E9D53B7ADB06E6D5BDE8F84081
:103A3000102003F0FDBA00BF8C16002054130020A4
:103A40002DE9F04F8FB09DF864701D4653F8279014
:103A500004460D908B46484652F827109246FCF7D4
:103A600011FE9DF86860029055F826305AF826102D
:103A700018460893FCF706FE54F826100590FCF74C
:103A8000FFFD54F8271080460298FCF7F9FD044624
:103A900048462146CDF82490FCF7FCFE414681467D
:103AA0000898FCF7F7FE01464846FCF7EBFD034695
:103AB000414609989846FCF7EDFE214604460898D1
:103AC000FCF7E8FE01462046FCF7DAFD414606F029
:103AD00099FB0AEB8702039205EB87020A929DF895
:103AE000703005EB86020B920AEB86020446189DA5
:103AF0009DF86C800492002B00F00381FCF78CFC95
:103B00009BA3D3E9002306460F46FCF751FD00288E
:103B100040F01D819C4B2946DE6C2846FCF7B2FD27
:103B20003146FCF7ADFD3146FCF7B4FE06F06CFB08
:103B300003464FF07C5128461D46FCF7ABFE21465C
:103B4000FCF7A8FE294620F00040FCF757FF06F0DE
:103B5000B5FAFDF7A1F883B20193002B00F0CA80FB
:103B60009BF808601846330700F1E280FCF73EFE40
:103B7000054629464FF07E50FCF740FF054620469B
:103B80002946FCF787FE03460D9A5AF8281052F88A
:103B900028001E460C93FCF773FD2946FCF77AFEBD
:103BA000314681463046FCF775FE04464FF08040B2
:103BB0002146FCF765FD0346214674481C46FCF788
:103BC0005FFD734905463046FCF764FE0146284612
:103BD000FCF760FE03464FF07C5120460693FCF74D
:103BE00059FE019B0AEB8808012B079000F08280A8
:103BF000099B012603F10044089B002703F10045BF
:103C000040E021460698FCF745FE294608900798B3
:103C1000FCF740FE089B01461846FCF733FD0346BF
:103C2000214607981C46FCF735FE294605460698AE
:103C3000FCF730FE01462846FCF722FD25460446E7
:103C40000137FFB202992046FCF71CFD039B059942
:103C500018602846FCF716FD049B49461860D8F802
:103C60000000FCF70FFD5946C8F800005046FFF76A
:103C7000B3FE484B01365B78B2B2002B72D1019B88
:103C8000934237D90B2FBCD93046FCF7AFFD0C99C6
:103C9000FCF700FE044606F0DDF90546204606F076
:103CA0007BFA0A9B04461F68294607F100473846FD
:103CB000FCF7F0FD0B9B21461B6809901846089302
:103CC000FCF7E8FD099A01461046FCF7DBFC0246CA
:103CD000214638461446FCF7DDFD089B294605467B
:103CE0001846FCF7D7FD01462846FCF7C9FC00271B
:103CF0000546A7E759460D980FB0BDE8F04FFFF70E
:103D00006BBEFCF789FB1CA3D3E9002306460F46D4
:103D1000FCF744FC00283FF4FDAE19A3D3E90023CF
:103D200030463946FCF71AFAFCF756FC0446F1E631
:103D3000FCF75CFD0546DBF800002946FCF7AAFD10
:103D400026F00806CBF800008BF8086011E70CA3FA
:103D5000D3E9002330463946FCF7FEF9FCF73CFC7A
:103D60000446D7E60FB0BDE8F08F00BFAFF3008088
:103D70008DEDB5A0F7C6A0BE8DEDB5A0F7C6A03EEF
:103D8000182D4454FB2119408C1600200000C0401F
:103D9000ABAA2A3E54130020074B1B78022B09D0F4
:103DA00010B5044601F06CFE2046BDE8104000212D
:103DB00000F060B9704700BF5413002010B50446EE
:103DC000FFF72CFA44B12046FFF7B2FA01F090FD5C
:103DD000104B5B787BB110BD0420FFF7A9FA0320DC
:103DE000FFF7A6FA0820FFF7A3FA01F081FD094BBF
:103DF0005B78002BEFD1FDF78FFD00F0EFFE4FF465
:103E00007040FDF78DF84FF48072034BC3F88421A6
:103E10005A6010BD5413002000E100E02DE9F0418C
:103E20002E4C2378022B27D007460D46164601F06C
:103E300027FE94F80180B8F1000F1AD1C6F3C00034
:103E400084F8058001F036FA01F048FA80BB294673
:103E50003846FFF7C1FD0123214D02202B7004F0ED
:103E6000EBFB01E0237853B101F042FD6378002BB6
:103E7000F8D00220BDE8F0810020BDE8F0812B7869
:103E8000012B1ED0012363710020287001F012FA6B
:103E900001F02EFD03F0FCFA00F0FCFA00F09EFEAB
:103EA00002F098F86079003818BF0120BDE8F08171
:103EB000042004F0D5FB01F01BFD404601F0FAF9A7
:103EC000D7E7F30605D5074B074E0FCB86E80F0063
:103ED000DAE7052004F0C4FBD6E700BF5413002046
:103EE00064130020781300206813002008B5144BD9
:103EF0001B78DB0600D508BD102004F09DFB03F005
:103F00008DF8FDF73DFC0F4B1A781B7902F02C0160
:103F100003F006030B43EED0042A06D10A4B1B78AC
:103F200053B1BDE8084003F0FBB8032004F098FB50
:103F3000BDE8084003F0F4B8062004F091FBF0E778
:103F40006313002054130020881300202DE9F04F44
:103F50000E4609780546435C17462D2B83B0014475
:103F600067D02B2B20D0002201F101090192002201
:103F70001446924610460EE00134E4B2082C19D8DB
:103F80001AB10AF1FF3A4FFA8AFA00EB800003EB0C
:103F9000400019F8013B303BDBB2092BECD9FE2B7A
:103FA0000FD172B90122F4E7002301F10209019354
:103FB0004B78DCE7002AECD10AF1010A4FFA8AFAC1
:103FC000E7E794B3FCF70EFC00218346FCF7F6FD0F
:103FD000F8B9BAF1FF3F16DA5446DFF89480584634
:103FE0004146FCF757FC023464B2631C8346F6DB9F
:103FF0005FFA8AFACAF1FE0303F0FE039A440AF15B
:10400000020A4FFA8AFABAF1FF3F26D0BAF1000F3E
:1040100015D1019B13B10BF1004083460124A9EB9C
:104020000505013DC7F800B03570204603B0BDE876
:10403000F08F01224B7801F10209019297E70A4CB7
:1040400058462146FCF726FC0AF1FF3313F0FF0F18
:1040500083464FFA83FAF3D1DBE758460349FCF76E
:1040600019FC8346D5E700BF00002041CDCCCC3DF4
:104070000AD7233C70B50D461849FCF70BFC05F038
:10408000A9FFFCF709FE80B2A8B1441EA4B29DB1FD
:104090004FF6FF76124D0BE001F05EF9AB789B070F
:1040A00009D4013C3220A4B2FFF76CFCB44202D028
:1040B0006B78002BF0D070BD4FF6FF76084D08E00E
:1040C000013C01F015FCA4B23220FFF75BFCB442C6
:1040D000F1D06B78002BF3D070BD00BF0000A04181
:1040E0005413002060B138B54FF6FF75441EA4B2DA
:1040F000013C0120A4B2FFF745FCAC42F8D138BD29
:10410000704700BF10B50C460146FCF7C3FB2146C3
:1041100004460846FCF7BEFB01462046FCF7B2FA0F
:10412000BDE8104006F070B8F8B5076804460021F5
:104130003846FCF743FD002851D139463846FCF794
:10414000A9FB0546666800213046FCF737FD40B9FB
:1041500031463046FCF79EFB01462846FCF792FAB2
:104160000546A66800213046FCF728FD40B93146D7
:104170003046FCF78FFB01462846FCF783FA0546DC
:10418000E66800213046FCF719FD40B9314630465B
:10419000FCF780FB01462846FCF774FA05462846E2
:1041A00006F032F806464FF07E503146FCF726FC0A
:1041B00039460546FCF76EFB294620606068FCF72F
:1041C00069FB29466060A068FCF764FB2946A06093
:1041D000E068FCF75FFB03463046E360F8BD3D4610
:1041E000B0E700BFF8B50D680C460646002128462A
:1041F000FCF7E4FC002840D129463068FCF7FEFBC0
:1042000020F0004528462149FCF7ECFC002834D07A
:10421000676800213846FCF7D1FC50B93946706810
:10422000FCF7ECFB20F0004739462846FCF7DAFCA7
:1042300050B3A76800213846FCF7C0FC50B9394696
:10424000B068FCF7DBFB20F0004739462846FCF756
:10425000C9FCB8B1E46800212046FCF7AFFC50B9B6
:104260002146F068FCF7CAFB20F0004421462846AE
:10427000FCF7B8FC18B12846F8BD044DC8E7254640
:104280002846F8BD3D46E5E73D46D2E7FFFF7F7F84
:104290002DE9F04F7A4B83B01B780093002B00F090
:1042A000AE80784A03F1FF3814785FFA88F8444505
:1042B000019200F0A1803426734D06FB0856716A06
:1042C000306AFCF7E7FA0146FCF7DCF9D6F81CA0E7
:1042D00081465146FCF786FC06F11803002800F0E1
:1042E000C0804FF0230BC3F80090B8F1000F40F0EE
:1042F000C1805C4500F0A1804FF034085F4627E0A4
:10430000DFB2624B08FB09591B78BB422ED0D9F8AB
:104310001CA0D9F818005146FCF750FCB0B9D9F8E8
:104320002410D9F82000FCF7B5FA0146FCF7AAF9E9
:10433000DBF81810FCF7A6F9834650465946FCF7FF
:1043400065FC002800F08580C9F818B0A74212D09B
:10435000B346B94608FB07567B1E002FD0D1232752
:104360004A4B08FB09591B78BB42D0D103F0AAF98C
:10437000019B1C78CBE7424B1B780093661CF6B27E
:10438000242E08BF00264FF03409009B09FB045A75
:104390009E4231D009FB0658DAF818B0D8F81870E8
:1043A00059463846FCF732FCA0B1DAF82010DAF8AA
:1043B0002400FCF76FFA0146FCF764F95946FCF754
:1043C00061F939468246FCF703FC18B1574634467A
:1043D000C8F818A009FB06533946D869FCF7EEFB6C
:1043E000731C002818BF3446DEB2242E009B33D045
:1043F0009E4234D1019B1C7003B0BDE8F08F214B6D
:104400001C780193232CF7D01F4DD5F83C17D5F815
:104410004007FCF73FFA0146FCF734F9D5F8388736
:1044200006464146FCF7DEFBE8B14FF0220BC5F82B
:104430003467174E5C457FF45FAF144B1B78A34283
:104440009CD103F03FF90E4B1B780093019B1C7825
:1044500094E7C9F818A079E7002BCBD00026C24614
:1044600098E7D1463DE746464FF0220BC5F8346742
:10447000074EDFE7009B023B5FFA83FB39E700BF93
:10448000A40C0020A50C002054050020A60C002040
:10449000700C002038B524220021074805F0EAFC02
:1044A000002301210548064A064D074C0370117090
:1044B0002B70237038BD00BFA80C0020A50C002075
:1044C000A70C0020A60C0020A40C00200A490B4BCE
:1044D0000A781B7893420DD0531CDBB2242B08BF03
:1044E000002310B406480B700478944208BF037090
:1044F00010BC7047704700BFA60C0020A40C002021
:10450000A50C00203420034A034B127800FB023034
:10451000704700BFA40C002054050020054B064A3C
:104520001B7812789A421DBF3422044802FB030014
:1045300000207047A60C0020A40C00205405002089
:10454000094B0A4A1B7812780133DBB2242B08BFCF
:1045500000239A4205D03421054A01FB03239869C0
:1045600070470020704700BFA60C0020A40C00205C
:1045700054050020044A054B10781B78C01AB0FA85
:1045800080F04009704700BFA60C0020A70C002057
:1045900038B5837D056BDA0714D5164B587AFCF7CE
:1045A00025F91549FCF776F92946FCF773F9044615
:1045B0004FF07E512046FCF71FFB08B94FF07E54A8
:1045C000204638BD5B0704460BD40A4B187AFCF72B
:1045D0000DF90949FCF75EF901462846FCF75AF93E
:1045E0000546E46A29462046FCF7FCFA0028DFD19C
:1045F0002C46DDE7541300200AD7233C2DE9F04F69
:10460000394A3A4B15781B7885B09D42019365D0A5
:10461000374C4FF0340A207AFCF7E8F83549FCF7BC
:1046200039F90346607A0393FCF7E0F83149FCF767
:1046300031F94FF07E59DFF8C080DFF8C4B0029046
:1046400024E039460298FCF725F9044649462046FD
:10465000FCF7D2FA00B94C4621464046FCF7B8FABE
:10466000B76A002834D041464046FCF713F980462B
:1046700041463846FCF7ACFA00B30135EDB2242DC3
:10468000019BF76121D0AB4229D0A0460AFB05B6B9
:10469000B37D376BDA07D4D45B0704D4384603996B
:1046A000FCF7F8F807460AFB05B3DC6A39462046F2
:1046B000FCF798FA0028C9D13C46C7E70135EDB2AE
:1046C000242D019BC6F81C80DDD143B10025DCE719
:1046D00021462046FCF7DEF88046C9E7064C074B2A
:1046E0001C6205B0BDE8F08FA60C0020A40C0020D1
:1046F000541300200AD7233CFFFF7F7FA80C002023
:104700005405002034222DE9F04F8A468346DFF815
:104710001893B94C99F8005097B002FB0546002158
:10472000304605F0A7FB9AF808300AAF9807B37532
:104730004CBFB24BB24BD6F810800FCB87E80F00BE
:10474000B04FDBF800103A6810460192FCF7A2F86F
:1047500005F0F6FC01460A983423081A80EAE07C4A
:10476000ACEBE07CE04538BFE04603FB05F344F8E2
:1047700003C02344C3F8108002930691FCF736F877
:10478000019A1146FCF73AF900210E90FCF720FA45
:1047900028B1029B9C4A998A12880A439A827A68B5
:1047A000DBF8041010460192FCF774F805F0C8FC21
:1047B00001460B983423081A80EAE07CACEBE07CDD
:1047C000E04538BFE04603FB0543C3F804C0C3F827
:1047D000108002930791FCF709F8019A1146FCF743
:1047E0000DF900210F90FCF7F3F928B1029B8649DF
:1047F0009A8A49880A439A82BA68DBF808101046F8
:104800000192FCF747F805F09BFC01460C98342315
:10481000081A80EAE07CACEBE07CE04538BFE0467B
:1048200003FB0543C3F808C0C3F810800293089146
:10483000FBF7DCFF019A1146FCF7E0F8002110902D
:10484000FCF7C6F928B1029B6F499A8A89880A4306
:104850009A82FB68DBF80C1018460193FCF71AF8F3
:1048600005F06EFC02460D984FF0340B101A80EAEA
:10487000E071A1EBE071884538BF88460BFB054B22
:10488000CBE903180992FBF7B1FF019B1946FCF72E
:10489000B5F800211190FCF79BF930B9B8F1000F81
:1048A0000DD1404617B0BDE8F08F574BBBF8142030
:1048B000DB881343ABF81430B8F1000FF1D00DF1E1
:1048C00038084046FFF730FC4FF0340B03460BFB33
:1048D000054B4146CBF824304C48FFF783FC034698
:1048E0004146CBF820304A48FFF77CFC9BF8163055
:1048F000CBF82C00D9076CD5CBF83000454A99F895
:1049000000101278914202D09B0740F18F8034232F
:10491000002203FB05439A619A62342303FB05439B
:104920009A7D900764D4D1071F6B00F1E88053078C
:104930000AD4394B187AFBF759FF3946FBF7AAFF1F
:104940003649FBF7A7FF0746342303FB0544E46A17
:1049500039462046FCF746F900B93C464FF07E51F7
:104960002046FCF749F908B94FF07E54244D214602
:104970002F6AD6F828A03846FCF72AF9002800F05C
:10498000CD8039463846FBF785FF07463946504605
:10499000FCF71EF9002840F0BE80F761204A214E46
:1049A00011782C624B1CDBB2242B08BF002306AC11
:1049B00089F80010137098E80F0086E80F0094E85B
:1049C0000F0085E80F00FFF763FC012017B0BDE87A
:1049D000F08FDAF800101A07CBF830108ED5DBF81C
:1049E00024000193FBF756FF019BCBF8300085E7CD
:1049F000012017B0BDE8F08F540500207813002087
:104A0000A80C00208C16002010B30008AC16002063
:104A10009C160020A60C0020541300200AD7233C2B
:104A2000A70C0020B80C0020A40C0020DFF8A8A1DF
:104A3000DDF838B0DAF81030594618460193FBF724
:104A400029FF0246019B584619460192FBF718FEC2
:104A50000246DAF81430DDF83CB019465846129296
:104A60000293FBF717FF019B0146049003F10040FE
:104A7000FBF706FE0246029B584619469346FBF793
:104A8000FFFD8446DAF81830109A19461046039351
:104A90000292CDF84CC0FBF7FDFE0146059058464A
:104AA000FBF7EEFD8446039B029A19461046CDF8AB
:104AB0000CC0FBF7E5FD8446119ADAF81CA01146FC
:104AC00050460292CDF850C0FBF7E4FE8346039BAC
:104AD00059461846FBF7D4FD029A514682461046C5
:104AE000FBF7CEFD0346364950461593FCF78EF88A
:104AF000D0B13423002203FB05439A620DE7314B0A
:104B0000587AFBF773FE3946FBF7C4FE2E49FBF7D4
:104B1000C1FE044622E7C6F81CA03FE72146204616
:104B2000FBF7B8FE074631E750462849FCF750F836
:104B300028B1342303FB0543254A9A62EDE612A807
:104B4000FFF7F2FA12A92348FFF74CFB034601993D
:104B500004980193FBF796FD0599FBF793FD4FF041
:104B60007E5182465846FBF78DFD01465046FBF7C5
:104B700089FD4FF07C51FBF78DFE05F045FB824629
:104B8000019B51461846FBF785FEB96CFBF782FE88
:104B9000514607464FF07E50FBF772FD01463846FE
:104BA000FBF72CFF4FF0340B002107460BFB054BA6
:104BB000FCF722F800B90027CBF82870ADE600BF5B
:104BC000EFFF7F3F541300200AD7233CEFFF7FBF46
:104BD000FFFF7F7FAC160020A80C0020064A074B81
:104BE00010B4D2E90004D2E90212C3E90004C3E917
:104BF000021210BC704700BF78130020A80C0020E0
:104C0000064A074B12781B789A4233BF03F1FF30F4
:104C10002333981A801AC0B2704700BFA40C00203A
:104C2000A60C002008B502F04DFD044A044B127892
:104C30001A70BDE80840FFF72BBB00BFA60C002090
:104C4000A50C002010B50446007828B101F004FE40
:104C500014F8010F0028F9D110BD00BF6328F8B582
:104C600004461DD91B4EA6FB0035EF08A6FB0736F0
:104C7000F60806F1300006EB8606A7EB460601F0C3
:104C8000EBFD06F13000C0B201F0E6FD07EB870056
:104C9000A4EB40003030C0B2BDE8F84001F0DCBD0C
:104CA000092806D804F13000C0B2BDE8F84001F090
:104CB000D3BD0A26B4FBF6F505F13000C0B201F011
:104CC000CBFD06FB1540BDE8F8403030C0B201F026
:104CD000C3BD00BFCDCCCCCC30B30022F0B5144F57
:104CE00085B014460546A7FB0023DB0803EB8301D0
:104CF000A0EB410104A80619621C092D1846D2B286
:104D000006F80C1CEDD86AB10DF103039D1801AB38
:104D10002D1B9C1814F8010D3030C0B201F09CFD21
:104D2000A542F7D105B0F0BD302001F095BD00BF20
:104D3000CDCCCCCCF0B50D4685B000210646FBF7B6
:104D400047FF002840F0D280012D40F2D7802C464A
:104D5000704F30463946FBF79DFD023CE4B2012C12
:104D60000646F6D805F0010323B130466A49FBF741
:104D700091FD06464FF07C513046FBF783FCFBF774
:104D800065FF002800F0BC800024644F0246A7FBAA
:104D90000013DB0803EB8301A0EB410004A900F141
:104DA00030062144092A04F10104184601F8106C68
:104DB000E4B2EBD8A54272D93022631CDBB204A95D
:104DC00021449D4201F8102C61D9A01CC0B204A955
:104DD0001944854201F8102C59D9E11C04AEC9B21E
:104DE0003044A94200F8102C51D2201DC0B23144E9
:104DF000A84201F8102C4AD2611DC9B230448D423C
:104E000000F8102C43D9A01DC0B23144854201F8EE
:104E1000102C3CD9E11DC9B230448D4200F8102C51
:104E200035D904F10800C0B23144854201F8102C94
:104E30002DD904F10901C9B230448D4200F8102C7B
:104E400025D904F10A00C0B23144854201F8102C82
:104E50001DD9164604F10B0204A9D2B208449542AA
:104E600000F8106C13D904F10C0104A8C9B2024473
:104E70008D4202F8106C0AD904F10D02D2B201443D
:104E8000954201F8106C02D9024402F8106C6A1EB7
:104E9000141B9D4238BF00241C4404F0FF04A542AB
:104EA0001CD06CB16F1E0DEB0406FFB2A54209D0F9
:104EB00016F8010D013C01F0CFFC14F0FF04F5D110
:104EC00005B0F0BD2E2001F0C7FC16F8010D01F071
:104ED000C3FC3C46002FE9D105B0F0BD302204AB45
:104EE0006C1C2B4403F8102CE4B2DAE72D2001F0FF
:104EF000B3FC012D06F100463FF629AF2B4633E700
:104F00000446002D7FF458AF302301248DF8003083
:104F1000C8E700BF0000C84200002041CDCCCCCC87
:104F2000F0B57F4B85B093F8584014F0010473D06E
:104F30007C49FBF7AFFC00210546FBF749FE002842
:104F400040F0CD8078492846FBF7A4FC4FF07C5117
:104F5000FBF798FBFBF77AFE002800F0C6800025DF
:104F6000DFF8CCC12A460146ACFB0043DB0803EB6B
:104F70008304A0EB440000F1300704A88618013533
:104F800009291846EDB206F8107CEBD8032D23D87A
:104F90003021941CE4B204AB2B44042C03F8101C05
:104FA00000F0B6800332D2B204AB2344042A03F8E3
:104FB000101C00F0B380302304A91144022A01F828
:104FC000103C01D18DF80330042CC5F1030588BFD6
:104FD00000252C4404F0FF05042D03D130230525C2
:104FE0008DF804306E1EF6B208E013F8110C01F0D3
:104FF00033FC7EB1013D013EEDB2F6B204AB042DAF
:105000002B44F2D12E2001F027FC9DF8030001F083
:1050100023FCEFE705B0F0BD00210546FBF7D8FD06
:10502000002869D141492846FBF734FC4FF07C51F8
:10503000FBF728FBFBF70AFE002864D03C4F224612
:105040000146A7FB0043DB0803EB8304A0EB44000D
:1050500000F1300604A88518541C09291846E4B24A
:1050600005F8106CEBD8022C1AD83020931CDBB258
:1050700004A92144032B01F8100C4BD004A90B44C4
:10508000FF2A03F8100C47D1302201238DF80220AB
:10509000032BC4F1020488BF00241C4404F0FF0465
:1050A000032C03D1302304248DF80330651EEDB2A8
:1050B00009E013F8110C01F0CFFB002DAAD0013C40
:1050C000013DE4B2EDB204AB032C2344F1D12E2018
:1050D00001F0C2FB9DF8020001F0BEFBEFE72D20BE
:1050E00001F0BAFB05F100452CE743F23003054619
:1050F0000222ADF800305EE72D2001F0ADFB05F196
:10510000004005468EE743F23003ADF80030BBE7C0
:10511000032559E70224BBE70223B9E7032453E739
:105120008C1600208B42213D00401C4600007A4432
:10513000CDCCCCCCF0B54A4B85B093F8584014F0A8
:10514000010446D04749FBF7A5FB00210446FBF7C5
:105150003FFD00286DD144492046FBF79BFB4FF0F3
:105160007C51FBF78FFAFBF771FDB8B100243F4E7D
:105170000246A6FB0013DB0803EB8301A0EB410012
:1051800004A900F130052144092A04F1010418465C
:1051900001F8105CE4B2EBD8002C5DD130238DF81F
:1051A0000030302302248DF8013004AB2344013C4D
:1051B00013F8110CE4B201F04FFB012CF5D12E20B5
:1051C00001F04AFB9DF8000005B0BDE8F04001F099
:1051D00043BB00210546FBF7FBFCB0BB4FF07C5105
:1051E0002846FBF74FFAFBF731FD40B31F4F22462D
:1051F0000146A7FB0043DB0803EB8304A0EB44005C
:1052000000F1300604A88518541C09291846E4B298
:1052100005F8106CEBD894B10DF1FF331D19AD1AE0
:105220006C4414F8010D01F017FBA542F9D105B04B
:10523000F0BD2D2001F010FB04F100448BE730207D
:1052400005B0BDE8F04001F007BB2D2001F004FBE4
:1052500005F100400546C1E7012CA6D1A1E700BF3A
:105260008C1600208B42213D00002041CDCCCCCCBF
:1052700000B5012183B00820FCF76AF9094B01A9A8
:1052800009480193FBF72AFF0021084A084B92F9CD
:10529000582019808A42A4BF4FF400721A8003B0CC
:1052A0005DF804FB00020348000C01408C1600204E
:1052B0008A13002000230749074A91F958101380E8
:1052C0009942AABF4FF400714FF40073118000B1EE
:1052D000138070478C1600208A13002008B50548FB
:1052E000FCF782F8044B00F400701B88181A18BFF2
:1052F000012008BD000C01408A13002038B50B487E
:10530000FCF772F80A4B00F400701B8883420CD043
:105310000021084A084D094B094C11700FCB84E855
:105320000F002B7843F040032B7038BD000C014078
:105330008A130020641300206313002078130020D8
:105340006813002008B5FFF7E9F820B1BDE8084070
:10535000022003F071B908BD70B5B34B1B78002B68
:1053600040F08380B14CB24D2B7803F0FF0593B32E
:10537000E80600F1D780E90700F1F18015F0E80FA9
:105380000AD023789A0700F0FB806EB2002EC0F29C
:105390003281E82003F05AF9A80719D515F0680FF3
:1053A00013D12378402B00F06781002B40F04D8112
:1053B00000232371FFF7B2F820B1A37813F0400364
:1053C00000F08F810023A3702370022003F03EF9C8
:1053D000690700F1AA80974B1B7803F0FF05002BAB
:1053E00065D1954B1B7803F0FF0523B9237813F0A3
:1053F000FC0F36D170BD03F05FF9A27A15F0010FF2
:105400000CBF13466423A90744BF0A33DBB26E07FF
:1054100044BF0A3BDBB2280744BF0133DBB2E906D5
:1054200044BF03F1FF33DBB2C82B28BFC8230A2BCC
:1054300038BF0A239A4206D000212279A37242F093
:10544000080323712173AE0623781DD5102B1BD1C1
:10545000E37A002B40F019810223E37215F0C00FAC
:1054600018D1BDE8704002F043B9012603F0FF05F2
:105470006E4C2846013D267000F036FBB54274D9CB
:105480006B4D03F0F5F86FE715F0C00FAFD0002BB0
:1054900040F0ED80694E357A690640F1B28005F042
:1054A000BF052846FCF76EF9237835729FE703F0B5
:1054B000FBF8217A15F0010F0CBF0B466423AE07F1
:1054C00044BF0A33DBB2680744BF0A3BDBB22E0796
:1054D00044BF0133DBB2E80644BF03F1FF33DBB264
:1054E000C82B28BFC8230A2B38BF0A23607A15F0BF
:1054F000200F14BF6422024615F0400F18BF32225D
:1055000015F0800F18BF1922994202D182423FF450
:1055100068AF0021237262722173FFF76FF8FFF703
:1055200081FB5EE70123637070BD237813F0D00F19
:1055300002D0E378002B67D094F90220A378002AE8
:1055400066DB13F0200253D0402203F07F0343F0C8
:105550000103A3702270042003F078F83BE700F009
:1055600071FF012003F072F808E7304600F0D2FA2C
:10557000102003F06BF82E4D2B78DE06FCD580E76B
:1055800013F0280F0ED0A27812F0C00F00F0978011
:105590006AB2164668060FD599060DD4A17841F077
:1055A000400107E0002BF3D101226E06A27073D5F3
:1055B00041216AB21646A170280702D513F0E00F08
:1055C0006DD0A9067FF5E2AE062000F0A3FA94F9AB
:1055D0000220A378002A07DB2278402A00F090807E
:1055E000802A01D04022227043F02003A370CDE630
:1055F000A2702270AFE72378012B21D08023237083
:10560000C7E645F040054CE794F90230002B49DA33
:1056100000232371FEF73EFF01F03AFFFCF77CF90F
:10562000FFF7DCFAA3788CE78813002054130020DE
:10563000631300205013002062130020B8120020D2
:10564000A37843F00503A370D8E7DA067FF5BDAE73
:10565000A278D0077FF5B9AE102B7FF4A9AEE37A1C
:10566000002B3FF4A5AE43F00803E372ADE613F060
:10567000180F3FF4BCAE0DE7A37813F020027FF4BF
:10568000A4AED90635D5227092E6D8077FF5E6AEEE
:1056900043F00403E372E1E62B076EB291D51023C9
:1056A00023708EE7FFF7BEFA23799A0703D5A27815
:1056B00042F00102A27023F0060323714BE702F0CF
:1056C00001F8022223782271202B7FF46BAF6AB29B
:1056D000002A1646FFF65EAFA17861F07F01A17047
:1056E00058E70822A370227002F002F801F0D8FCFB
:1056F0006BE65E077FF569AE43F00803A37064E6CE
:105700001A077FF56FAF23F01C0343F0020369E72C
:105710002DE9F041FEF702FF002800F0C380867DEE
:10572000704CA378002B40D04FF07E574FF081484B
:105730006D4D6278002A38D1DA0731D5227812F01F
:10574000C00F34D013F0040151D0802A00F0B5808E
:10575000402A00F09180180722D56A7A012A7DD06C
:1057600099071DD4614A92F8582092076DD5227985
:10577000297A42F00802012922710BD006F040007C
:10578000FCF700F801213846FEF774FCA37803F01B
:1057900002022AB943F010030220A37002F04CFF6A
:1057A000FFF7DAFDA378002BC3D1BDE8F081E37ADF
:1057B00063B198072ED56B7A012B67D10023E37272
:1057C000FFF7CAFDA378002BB3D1EEE723791B07BF
:1057D000E6D506F0300001F023FC237923F008031E
:1057E0002371FFF7B9FDA378002BA2D1DDE70120DB
:1057F000E17201F015FC0120FBF7C4FFA37823F050
:10580000020343F00403A370FFF7A6FDA378002B67
:105810008FD1CAE713F00C0FC2D06A7A012A0CD0DC
:105820000A2000F077F9314B93F8583099073ED5AC
:105830002279E37A42F0080222711A07BED50220CB
:1058400002F0FAFE0023E372BAE706F0300001F03E
:10585000E7FB01214046FEF70DFCA378297A03F00F
:105860000202012995D0002A88D0FFF775FDA378A0
:10587000002B7FF45EAF98E702F00CFCA3780028C1
:105880007FF469AF03F0DF03A37064E7012001F048
:10589000C7FB0123E372FFF75FFDA378002B7FF4C2
:1058A00048AF82E7104B5E7A1B7A1E4338E706F05A
:1058B000300001F0B5FBE37ABFE70B2000F02AF9D6
:1058C000012001F0ADFB0120FBF75CFF01F028FC9B
:1058D0006378002B7FF469AFFFF73EFD6378002B00
:1058E000FAD062E754130020B81200208C16002072
:1058F00008B5FFF731FD044B9B7803B908BDBDE83F
:105900000840FFF705BF00BF541300202DE9F04108
:10591000574B93F858301A0700F19080554E337862
:1059200013F0810375D0022000F0F4F801233370E6
:1059300000242546DFF8408100F0B8FFFF280FD093
:105940000A281DD00D281BD0002D35D02928F3D1D1
:10595000AB07F1D500F0AAFFFF2805F0FD05EFD158
:10596000FEF7DCFD10B1022002F066FEFFF7F4FC4A
:10597000B378002B3AD17378002BDDD0BDE8F081ED
:10598000FFF7EAFCB3781BBB7778002FF6D108F855
:105990000470FEF70FF815F001051CD198F80040CF
:1059A000FCB1242C2CD0347814F0210421D009200F
:1059B00000F082F82C46BFE72028BDD92F28BBD0A5
:1059C000282824D03B2837D04E2C2AD90125B3E7EC
:1059D000FFF79EFED8E70B203C463D4600F06CF8F2
:1059E000AAE7204600F068F82546A5E7FFF790FEF5
:1059F000C1E74046FBF798FF00F05EF825469BE7BD
:105A0000404602F06BFB00F057F82C4694E7022565
:105A100092E7337002F03EFBE0B9174802F03CFB1E
:105A200086E7A0F16103DBB2192B98BF2038631C15
:105A300008F80400DCB27FE704257DE7FDF7F6FBFC
:105A400000283FF46BAF01230A4E0720337000F0AB
:105A500061F864E7094A137843F020031370FFF7F5
:105A60007BFCB378002BD8D0FFF752FED5E700BF00
:105A70008C16002054130020CC0C0020631300204F
:105A800010B5FEF74BFD10B1022002F0D5FD094C18
:105A9000FFF762FCA3784BB9637833B9FEF73EFD9C
:105AA0000028F5D12378082BF2D010BDFFF730FE87
:105AB000F2E700BF5413002010B90848FFF7C2B83E
:105AC00010B504460648FFF7BDF82046FFF7C6F8B4
:105AD000BDE810400348FFF7B5B800BFECB00008C0
