:020000040800F2
:1000000000500020717300086D8D0008718D00088C
:10001000758D0008798D00087D8D000800000000B6
:10002000000000000000000000000000818D0008BA
:10003000858D000800000000898D0008C17300084C
:10004000C1730008C1730008C1730008C1730008C0
:10005000C1730008C1730008C1730008C1730008B0
:10006000C1730008C1730008C1730008C1730008A0
:10007000C1730008C1730008C1730008C173000890
:10008000C1730008C1730008C1730008C173000880
:10009000C1730008C1730008C17300081183000810
:1000A000C1730008C1730008C1730008C173000860
:1000B000C574000809770008C1730008C1730008FF
:1000C000C1730008C1730008C1730008C173000840
:1000D000C17300082D6C0008C1730008D16D0008C1
:1000E00059340008C1730008C17300080000000003
:1000F0000000000000000000000000000000000000
:0C01000000000000000000005FF808F1A3
:1001100010B5054C237833B9044B13B10448AFF341
:1001200000800123237010BD500400200000000057
:1001300084A0000808B5034B1BB103490348AFF383
:10014000008008BD000000005404002084A00008C6
:1001500081F0004102E000BF83F0004330B54FEA78
:1001600041044FEA430594EA050F08BF90EA020FE5
:100170001FBF54EA000C55EA020C7FEA645C7FEA78
:10018000655C00F0E2804FEA5454D4EB5555B8BF9B
:100190006D420CDD2C4480EA020281EA030382EA0C
:1001A000000083EA010180EA020281EA0303362D9E
:1001B00088BF30BD11F0004F4FEA01314FF4801C71
:1001C0004CEA113102D0404261EB410113F0004F83
:1001D0004FEA03334CEA133302D0524263EB43033A
:1001E00094EA050F00F0A780A4F10104D5F1200ED8
:1001F0000DDB02FA0EFC22FA05F2801841F1000133
:1002000003FA0EF2801843FA05F359410EE0A5F106
:1002100020050EF1200E012A03FA0EFC28BF4CF037
:10022000020C43FA05F3C01851EBE37101F00045ED
:1002300007D54FF0000EDCF1000C7EEB00006EEBFA
:100240000101B1F5801F1BD3B1F5001F0CD3490884
:100250005FEA30004FEA3C0C04F101044FEA4452DB
:1002600012F5800F80F09A80BCF1004F08BF5FEA62
:10027000500C50F1000041EB045141EA050130BD42
:100280005FEA4C0C404141EB0101013C28BFB1F554
:10029000801FE9D291F0000F04BF01460020B1FA9F
:1002A00081F308BF2033A3F10B03B3F120020CDA72
:1002B0000C3208DD02F1140CC2F10C0201FA0CF050
:1002C00021FA02F10CE002F11402D8BFC2F1200CB5
:1002D00001FA02F120FA0CFCDCBF41EA0C0190406B
:1002E000E41AA2BF01EB0451294330BD6FEA0404B4
:1002F0001F3C1CDA0C340EDC04F11404C4F120029F
:1003000020FA04F001FA02F340EA030021FA04F3B0
:1003100045EA030130BDC4F10C04C4F1200220FA07
:1003200002F001FA04F340EA0300294630BD21FA45
:1003300004F0294630BD94F0000F83F4801306BF0B
:1003400081F480110134013D4EE77FEA645C18BFFF
:100350007FEA655C29D094EA050F08BF90EA020F96
:1003600005D054EA000C04BF1946104630BD91EA8E
:10037000030F1EBF0021002030BD5FEA545C05D191
:100380004000494128BF41F0004130BD14F58004D0
:100390003CBF01F5801130BD01F0004545F0FE4144
:1003A00041F470014FF0000030BD7FEA645C1ABF79
:1003B000194610467FEA655C1CBF0B46024650EAB0
:1003C000013406BF52EA033591EA030F41F40021DC
:1003D00030BD00BF90F0000F04BF0021704730B562
:1003E0004FF4806404F132044FF000054FF0000137
:1003F00050E700BF90F0000F04BF0021704730B5F8
:100400004FF4806404F1320410F0004548BF4042CC
:100410004FF000013EE700BF42004FEAE2014FEA21
:1004200031014FEA02701FBF12F07F4393F07F4FFC
:1004300081F06051704732F07F4208BF704793F0FF
:100440007F4F04BF41F40021704730B54FF4607412
:1004500001F0004521F000411CE700BF50EA010215
:1004600008BF704730B54FF000050AE050EA0102BE
:1004700008BF704730B511F0004502D5404261EB2E
:1004800041014FF4806404F132045FEA915C3FF46F
:10049000D8AE4FF003025FEADC0C18BF03325FEA0C
:1004A000DC0C18BF033202EBDC02C2F1200300FABD
:1004B00003FC20FA02F001FA03FE40EA0E0021FAE2
:1004C00002F11444BDE600BF4FF0FF3C06E000BF60
:1004D0004FF0010C02E000BF4FF0010C4DF804CDCD
:1004E0004FEA410C7FEA6C5C4FEA430C18BF7FEA8D
:1004F0006C5C1BD001B050EA410C0CBF52EA430CBB
:1005000091EA030F02BF90EA020F0020704710F13A
:10051000000F91EA030F58BF994208BF90422CBFC9
:10052000D8176FEAE37040F0010070474FEA410CC2
:100530007FEA6C5C02D150EA013C07D14FEA430CE0
:100540007FEA6C5CD6D152EA033CD3D05DF8040B51
:10055000704700BF8446104662468C461946634683
:1005600000E000BF01B5FFF7B7FF002848BF10F15A
:10057000000F01BD4DF808EDFFF7F4FF0CBF01209F
:1005800000205DF808FB00BF4DF808EDFFF7EAFF1B
:1005900034BF012000205DF808FB00BF4DF808EDD6
:1005A000FFF7E0FF94BF012000205DF808FB00BFCB
:1005B0004DF808EDFFF7CEFF94BF012000205DF855
:1005C00008FB00BF4DF808EDFFF7C4FF34BF012062
:1005D00000205DF808FB00BF4FEA4102B2F1E043A2
:1005E00024BFB3F5001CDCF1FE5C0DD901F0004C1A
:1005F0004FEAC0024CEA5070B2F1004F40EB83006A
:1006000008BF20F00100704711F0804F21D113F195
:100610003872BCBF01F00040704741F480114FEACE
:100620005252C2F11802C2F1200C10FA0CF320FA57
:1006300002F018BF40F001004FEAC1234FEAD32374
:1006400003FA0CFC40EA0C0023FA02F34FEA4303DE
:10065000CCE77FEA625307D150EA01331EBF4FF067
:10066000FE4040F44000704701F0004040F0FE4082
:1006700040F40000704700BF80F0004002E000BF7F
:1006800081F0004142001FBF5FEA410392EA030F7D
:100690007FEA226C7FEA236C6AD04FEA1262D2EBC7
:1006A0001363C1BFD218414048404140B8BF5B42CC
:1006B000192B88BF704710F0004F40F4000020F065
:1006C0007F4018BF404211F0004F41F4000121F07B
:1006D0007F4118BF494292EA030F3FD0A2F10102C5
:1006E00041FA03FC10EB0C00C3F1200301FA03F103
:1006F00000F0004302D5494260EB4000B0F5000F26
:1007000013D3B0F1807F06D340084FEA310102F1E4
:100710000102FE2A51D2B1F1004F40EBC25008BF96
:1007200020F0010040EA03007047490040EB000060
:10073000013A28BFB0F5000FEDD2B0FA80FCACF161
:10074000080CB2EB0C0200FA0CF0AABF00EBC2508E
:1007500052421843BCBFD0401843704792F0000F7C
:1007600081F4000106BF80F400000132013BB5E7CF
:100770004FEA41037FEA226C18BF7FEA236C21D045
:1007800092EA030F04D092F0000F08BF08467047AA
:1007900090EA010F1CBF0020704712F07F4F04D178
:1007A000400028BF40F00040704712F100723CBF8B
:1007B00000F50000704700F0004343F0FE4040F4B5
:1007C000000070477FEA226216BF08467FEA236373
:1007D0000146420206BF5FEA412390EA010F40F45E
:1007E000800070474FF0000304E000BF10F00043AA
:1007F00048BF40425FEA000C08BF704743F0964391
:1008000001464FF000001CE050EA010208BF7047AB
:100810004FF000030AE000BF50EA010208BF704732
:1008200011F0004302D5404261EB41015FEA010C47
:1008300002BF84460146002043F0B64308BFA3F13F
:100840008053A3F50003BCFA8CF2083AA3EBC25321
:1008500010DB01FA02FC634400FA02FCC2F1200240
:10086000BCF1004F20FA02F243EB020008BF20F077
:100870000100704702F1200201FA02FCC2F12002DD
:1008800050EA4C0021FA02F243EB020008BF20EAD2
:10089000DC7070474FF0FF0C1CEAD0521EBF1CEA00
:1008A000D15392EA0C0F93EA0C0F6FD01A4480EAEE
:1008B000010C400218BF5FEA41211ED04FF00063D7
:1008C00043EA501043EA5111A0FB01310CF0004003
:1008D000B1F5000F3EBF490041EAD3715B0040EA29
:1008E000010062F17F02FD2A1DD8B3F1004F40EBF9
:1008F000C25008BF20F00100704790F0000F0CF0CC
:10090000004C08BF49024CEA502040EA51207F3A8F
:10091000C2BFD2F1FF0340EAC250704740F400006A
:100920004FF00003013A5DDC12F1190FDCBF00F05B
:1009300000407047C2F10002410021FA02F1C2F109
:10094000200200FA02FC5FEA310040F1000053EAA5
:100950004C0308BF20EADC70704792F0000F00F0F3
:10096000004C02BF400010F4000F013AF9D040EAF9
:100970000C0093F0000F01F0004C02BF490011F48D
:10098000000F013BF9D041EA0C018FE70CEAD1538B
:1009900092EA0C0F18BF93EA0C0F0AD030F0004C0B
:1009A00018BF31F0004CD8D180EA010000F00040BF
:1009B000704790F0000F17BF90F0004F084691F07D
:1009C000000F91F0004F14D092EA0C0F01D14202B7
:1009D0000FD193EA0C0F03D14B0218BF084608D180
:1009E00080EA010000F0004040F0FE4040F40000CA
:1009F000704740F0FE4040F4400070474FF0FF0C5D
:100A00001CEAD0521EBF1CEAD15392EA0C0F93EAA3
:100A10000C0F69D0A2EB030280EA010C49024FEAF5
:100A2000402037D04FF0805343EA111143EA1013AE
:100A30000CF000408B4238BF5B0042F17D024FF466
:100A4000000C8B4224BF5B1A40EA0C00B3EB510F41
:100A500024BFA3EB510340EA5C00B3EB910F24BF2A
:100A6000A3EB910340EA9C00B3EBD10F24BFA3EBAF
:100A7000D10340EADC001B0118BF5FEA1C1CE0D177
:100A8000FD2A3FF650AF8B4240EBC25008BF20F02A
:100A9000010070470CF0004C4CEA50207F32C2BF7E
:100AA000D2F1FF0340EAC250704740F400004FF01B
:100AB0000003013A37E792F0000F00F0004C02BF4C
:100AC000400010F4000F013AF9D040EA0C0093F016
:100AD000000F01F0004C02BF490011F4000F013B70
:100AE000F9D041EA0C0195E70CEAD15392EA0C0FD8
:100AF00008D142027FF47DAF93EA0C0F7FF470AF10
:100B0000084676E793EA0C0F04D14B023FF44CAF52
:100B100008466EE730F0004C18BF31F0004CCAD1E7
:100B200030F000427FF45CAF31F000437FF43CAF23
:100B30005FE700BF4FF0FF3C06E000BF4FF0010C45
:100B400002E000BF4FF0010C4DF804CD4FEA400227
:100B50004FEA41037FEA226C18BF7FEA236C11D071
:100B600001B052EA530C18BF90EA010F58BFB2EB24
:100B7000030088BFC81738BF6FEAE17018BF40F0A4
:100B8000010070477FEA226C02D15FEA402C05D158
:100B90007FEA236CE4D15FEA412CE1D05DF8040BDD
:100BA000704700BF844608466146FFE70FB5FFF770
:100BB000C9FF002848BF10F1000F0FBD4DF808ED28
:100BC000FFF7F4FF0CBF012000205DF808FB00BF19
:100BD0004DF808EDFFF7EAFF34BF012000205DF873
:100BE00008FB00BF4DF808EDFFF7E0FF94BF0120C0
:100BF00000205DF808FB00BF4DF808EDFFF7D2FFBD
:100C000094BF012000205DF808FB00BF4DF808EDFF
:100C1000FFF7C8FF34BF012000205DF808FB00BFCC
:100C20004FEA40024FEA41037FEA226C02D15FEAB9
:100C3000402C08D17FEA236C02D15FEA412C02D11B
:100C40004FF0000070474FF0010070474FEA40023C
:100C5000B2F1FE4F0FD34FF09E03B3EB12620DD9EA
:100C60004FEA002343F0004310F0004F23FA02F054
:100C700018BF404270474FF00000704712F1610FFB
:100C800001D1420205D110F0004008BF6FF00040D2
:100C900070474FF00000704742000ED2B2F1FE4F95
:100CA0000BD34FF09E03B3EB126209D44FEA00233B
:100CB00043F0004323FA02F070474FF00000704702
:100CC00012F1610F01D1420202D14FF0FF307047A3
:100CD0004FF00000704700BF034B40F0BF6040F48E
:100CE0000030D860704700BF00ED00E0C378FBB172
:100CF000154A0F23D2680121D24330B4C2F3022235
:100D00004478C2F1040523FA02F28378AC40134020
:100D1000234302780D481B0102F01F058418DBB243
:100D2000A94084F80033520940F8221030BC7047C3
:100D30000121037805485A0903F01F03203201FA04
:100D400003F340F82230704700ED00E000E100E0DE
:100D5000436830B423F470230C790A6823F4807359
:100D600043EA04231343436085680A4AD1E90243F6
:100D70002A4023434C79134343EA440383600A7CAB
:100D8000C36A013AD2B223F4700343EA0253C36246
:100D900030BC7047FDF7F1FF836819B143F00103E0
:100DA0008360704723F0010383607047836843F0DA
:100DB00008038360704700BF8068C0F3C0007047BD
:100DC000836843F004038360704700BF8068C0F30A
:100DD00080007047836819B143F4A00383607047B3
:100DE00023F4A00383607047092970B41BD9072638
:100DF000A1F10A0404EB4404C568A640A34025EA17
:100E000006042343062AC36019D81F24013A436B02
:100E100002EB8202944001FA02F223EA04010A433F
:100E2000426370BC70470725046901EB4106B54079
:100E3000B34024EA05042343062A0361E5D90C2ABA
:100E40000DD81F24073A036B02EB8202944001FA8B
:100E500002F223EA04010A43026370BC70471F25B3
:100E60000D3AC46A02EB8202954001FA02F324EAC9
:100E700005021343C36270BC704700BFC06C80B2F0
:100E8000704700BF83793BB31D4B01681A6810B4EB
:100E900022EA01021A605A6822EA01025A600279C3
:100EA00002F1804202F58232146821431160996890
:100EB000026821EA02019960D96821EA0201D96039
:100EC0004179102913D001F1804303F58233196869
:100ED00010BC0A431A6070470379016803F180432C
:100EE00003F582331A6822EA01021A607047996892
:100EF00010BC11439960D9680A43DA60704700BF9B
:100F0000000401400246054B19685869104003D09F
:100F1000114214BF01200020704700BF00040140AF
:100F2000014B5861704700BF00040140024B034968
:100F3000034A59605A607047002002402301674508
:100F4000AB89EFCD324AD368DB0707D4D3685907A2
:100F500048D4D368DB0619D5032070474FF43023FB
:100F6000D168C9070CD4D168490734D4D268D206F5
:100F70000AD5013B002B4FF0030008BF0520704746
:100F8000013BEDD105207047012BFBD0204A1369AE
:100F900043F0020313615061136943F0400313618E
:100FA000D368D90720D54FF43023D168C80725D49A
:100FB000D168490726D4D268013BD2064CBF032032
:100FC0000420002B08BF052041F6FD71104A13696B
:100FD0000B4013617047013B002B4FF0020008BF2C
:100FE0000520704702207047D3685B070DD4D36893
:100FF00013F0100F14BF03200420E5E7013BD4D108
:101000000520E1E70220013BDBE70220DCE700BF2F
:1010100000200240304A10B4D368DB0708D4D368FC
:101020005C0743D4D368DB061BD5032010BC704794
:101030004FF40053D468E4070CD4D468640732D466
:10104000D268D2060BD50320013B002B08BF052038
:1010500010BC7047013BEDD1052010BC7047012B3F
:10106000FAD01D4A136943F0010313610180D3686C
:10107000DB071ED54FF40053D168C80723D4D168CD
:10108000490724D4D268013BD2064CBF0320042078
:10109000002B08BF052041F6FE710F4A10BC1369F2
:1010A0000B40136170470220013BCEE7022010BCC9
:1010B0007047D3685C070DD4D36813F0100F14BFCA
:1010C00003200420E7E7013BD6D10520E3E7022017
:1010D000013BDDE70220DEE70020024030B4CC789F
:1010E000E30648BF8B7804F00F0548BF1D430B880B
:1010F00013F0FF0F33D0482C026800F0AD80282C8D
:1011000000F03381D90744BF22F00F022A43990728
:1011100044BF22F0F00242EA0512590744BF22F40C
:10112000706242EA0522190744BF22F4704242EA83
:101130000532D90644BF22F4702242EA05429906DC
:1011400044BF22F4700242EA0552590644BF22F01D
:10115000706242EA0562190600F104810260FF2B09
:1011600048D9482C426847D1D90505D54FF480713C
:1011700022F00F022A4301619C0506D54FF400714D
:1011800022F0F00242EA05120161590506D54FF43A
:10119000806122F4706242EA052201611C0506D5D5
:1011A0004FF4006122F4704242EA05320161D90431
:1011B00006D54FF4805122F4702242EA05420161C3
:1011C0009C0406D54FF4005122F4700242EA055205
:1011D0000161590406D54FF4804122F0706242EA61
:1011E000056201611B0404D54FF4004365F31F72CF
:1011F0000361426030BC7047282C6CD0D90544BFD5
:1012000022F00F022A439C0544BF22F0F00242EA7A
:101210000512590544BF22F4706242EA05221C05FA
:1012200044BF22F4704242EA0532D90444BF22F49A
:10123000702242EA05429C0444BF22F4700242EA52
:101240000552590444BF22F0706242EA05621C0450
:10125000CFD565F31F72CCE7D90704D5012122F061
:101260000F022A430161990705D5022122F0F002FD
:1012700042EA05120161590705D5042122F4706282
:1012800042EA05220161190705D5082122F47042BE
:1012900042EA05320161D90605D5102122F47022F7
:1012A00042EA05420161990605D5202122F4700227
:1012B00042EA05520161590605D5402122F07062CB
:1012C00042EA0562016119067FF548AF802165F3A6
:1012D0001F72016142E7D90505D54FF4807122F0F4
:1012E0000F022A4341619C0506D54FF4007122F09C
:1012F000F00242EA05124161590506D54FF48061BA
:1013000022F4706242EA052241611C0506D54FF4C1
:10131000006122F4704242EA05324161D90406D5E7
:101320004FF4805122F4702242EA054241619C044C
:1013300006D54FF4005122F4700242EA0552416191
:10134000590406D54FF4804122F0706242EA0562EA
:1013500041611C047FF54DAF4FF4004365F31F72EC
:10136000436146E765F31F72F8E6D90704D501210A
:1013700022F00F022A434161990705D5022122F08C
:10138000F00242EA05124161590705D5042122F411
:10139000706242EA05224161190705D5082122F44D
:1013A000704242EA05324161D90605D5102122F486
:1013B000702242EA05424161990605D5202122F4B6
:1013C000700242EA05524161590605D5402122F0DA
:1013D000706242EA0562416119067FF5BFAE802165
:1013E00065F31F724161B9E6806880B2704700BF43
:1013F00001617047416170470AB101617047416105
:10140000704700BF0028194B00F44012B4BFDB69DD
:101410005B68B2F5401F30B484B21FD0C20214D54D
:101420000322C0F30345AA4023EA020343F070639A
:1014300021B1420D120104FA02F213430B4A0028B3
:10144000B4BFD361536030BC7047420D120104FA3F
:1014500002F223EA020343F07063E9E7034D23F04D
:1014600070636A6822F070626A60E1E70000014020
:1014700010B40F2401F0FC0303F1804303F5803323
:1014800001F003019A6889008C4022EA04029A6004
:101490009A6800FA01F1114310BC9960704700BFCF
:1014A000214A30B4536803F00C03042B22D0082BDC
:1014B00023D01E4B03601C4A1D4C51681D4DC1F3C7
:1014C0000311615CCB4043605168C1F30221615C50
:1014D00023FA01F181605168C1F3C221615CCB4004
:1014E000C3605268C2F38132AA5C30BCB3FBF2F332
:1014F00003617047104B0360DDE753685168C3F325
:101500008343C90303F1020304D40C4A02FB03F32F
:101510000360D0E7526892034CBF094A064A02FBB7
:1015200003F30360C7E700BF0010024000127A0017
:10153000040000200000002000350C0000093D00E0
:10154000801A0600044A936911B1184390617047EC
:1015500023EA00009061704700100240044AD369FA
:1015600011B11843D061704723EA0000D061704781
:1015700000100240274A038890429BB212D002F525
:10158000006290420ED0B0F1804F0BD0A2F598329D
:10159000904207D002F58062904203D002F580624B
:1015A000904203D14A8823F0700313431A4A9042B1
:1015B00017D002F58062904213D0CA8823F440739A
:1015C0009BB21343134A30B48D880C889042038039
:1015D000858504850DD10B7A0386012330BC838277
:1015E000704703808B8883850B8803850123838262
:1015F00070470A4B9842EED003F540639842EAD018
:1016000003F580639842E6D003F580639842E2D008
:10161000E3E700BF002C014000100040003401400F
:10162000038821B19BB243F001030380704723F08C
:1016300001031B041B0C0380704700BF83899BB20E
:1016400012B119438181704723EA010181817047FA
:10165000C94389B20182704770B50D460446038ABA
:10166000CA889BB223F44053134389890382828939
:10167000AE8822F4B05323F00C031B0428891B0C02
:101680006A893343034313439BB2A381A38A86B081
:101690009BB223F440730B4301A8A382FFF700FF22
:1016A000DDE903311948A289844208BF0B4612F4D0
:1016B000004F2A6803EB830314BF5200920003EB30
:1016C0008303B3FBF2F364221148A589A0FB0361F5
:1016D000490902FB11332A044FEA01110AD41B0104
:1016E0003233A0FB0323C3F343130B439BB2238189
:1016F00006B070BDDB003233A0FB0323C3F34212FC
:1017000042EA01039BB2238106B070BD003801405C
:101710001F85EB51838921B19BB243F40053838130
:10172000704723F400531B041B0C8381704700BFD8
:10173000012310B401F01F04C1F34211012903FA7F
:1017400004F30FD002290CBF1030143022B102680C
:1017500010BC134303607047026810BC22EA030305
:10176000036070470C30F1E7C1F3080181807047D6
:101770000388194214BF0120002070470123090A81
:101780008B40DB439BB20380704700BF704700BFB4
:10179000024B5A7802B91A73704700BF5C120020DE
:1017A00010B5054C2378022B04D004F017FB6378A6
:1017B00003B9237310BD00BF5C12002010B40D4CA0
:1017C0002346C4F1006101F5FE3104F580605A182A
:1017D000127803F8012B8342F9D123780A2B06D023
:1017E0004FF48062FF21034810BC07F01BBB10BC04
:1017F000704700BFC00D0020014B185C704700BF50
:10180000C00D0020014B1954704700BFC00D0020CF
:101810002DE9F8430746002A3CD00023DFF88880F2
:10182000441E44448E1811F8015B63BB05EBD313CF
:10183000B142DBB204F8015FF5D11744174808F84C
:101840000730FFF77FFB04281BD14FF6FF77144CBE
:10185000144EA51E04F58069A6EB080634F8041C96
:101860007019B94201D0FFF7D5FB29883019B94268
:1018700005F1040504F1040401D0FFF7CBFBA145F9
:10188000ECD1BDE8F8836B1CB14204F8015FDBB218
:10189000C9D1D2E71346DFF81080CFE700FC01087A
:1018A000C40D0020FEFB0108C00D0020F0B4F2B111
:1018B0000024104F4D1E3D44861815F8013F74B9A1
:1018C00000F8013B03EBD414B042E4B2F5D111446B
:1018D000785C001BB0FA80F0F0BC4009704700F85B
:1018E000013B864203F10103DCB2E6D1EFE7144687
:1018F000004FEDE7C00D0020002108B55022074839
:1019000007F090FA0020064905F088FB00B108BDF9
:101910000720BDE8084004F07DBA00BFC0110020D8
:10192000EC1100200149024806F048BF8012002057
:10193000DC1100202DE9F04F0746DFF8188348221C
:10194000002140469BB007F06DFAC14B03CB1A88CB
:101950009B78C8F80100C8F80510A8F8092088F895
:101960000B3097F800A0BAF1240F00F0B2820022E9
:101970008DF84720BAF1000F00F053840A9200233B
:101980001E46CDE90733DFF8D09206930993AAF1FA
:101990004105EBB2192B00F2D183531C384612AA31
:1019A0000DF147018DF8473002F088FC002800F067
:1019B000D783DDF848B05846FFF76EF9C4B2204629
:1019C000FEF714FF01465846FEF75AFE4946FEF759
:1019D00061FF07F08DFBBAF1470F81B266D0BAF113
:1019E0004D0F29D1002940F0C083782C00F261828C
:1019F000702C40F24C82713C072C18D8DFE814F0B0
:101A00007D02820287028C02910217001700780281
:101A1000089B002B40F02B85262C88F8014040F0D5
:101A2000E183A1F114039BB21E2B40F2AA8314247C
:101A300020461BB0BDE8F08F192DF8D801A353F84C
:101A400025F000BF272000082F1A00082F1A0008D1
:101A50002F1A00082F1A0008052100082F1A000865
:101A60002F1A00080F210008C7200008D9200008FD
:101A7000EB2000082F1A0008F52000082F1A000894
:101A80004D2000082F1A00086F2000087920000858
:101A9000852000082F1A00082F1A00082F1A0008A6
:101AA0009F200008B320000803200008652CBED842
:101AB00001A353F824F000BF111A0008111A0008FE
:101AC000111A0008111A0008511F00082F1A0008E7
:101AD0002F1A00082F1A00082F1A00082F1A0008C2
:101AE000651F00082F1A00082F1A00082F1A000877
:101AF0002F1A00082F1A00082F1A0008ED1F0008DF
:101B0000ED1F0008ED1F0008F71F0008F71F000871
:101B10002F1A00082F1A00082F1A00082F1A000881
:101B20002F1A00082F1A0008651F00082F1A000836
:101B3000651F00082F1A00082F1A00082F1A000826
:101B40002F1A00082F1A00082F1A00082F1A000851
:101B5000111A00082F1A00085D1C00082F1A00082F
:101B60002F1A0008911F00082F1A00082F1A0008CA
:101B70002F1A00082F1A00082F1A0008911F0008BA
:101B80002F1A00082F1A00082F1A0008511F0008EA
:101B9000B31F0008B31F0008B31F0008B31F0008DD
:101BA000B31F0008B31F00082F1A0008D91F000830
:101BB0002F1A00082F1A00082F1A00082F1A0008E1
:101BC0002F1A00082F1A00082F1A00082F1A0008D1
:101BD0002F1A00082F1A00082F1A00082F1A0008C1
:101BE0002F1A00082F1A00082F1A00082F1A0008B1
:101BF0002F1A00082F1A0008E31F00082F1A0008E8
:101C00002F1A00082F1A00082F1A00082F1A000890
:101C10002F1A00082F1A00082F1A00082F1A000880
:101C2000351F0008351F0008651F0008451F000804
:101C3000451F00082F1A00082F1A00082F1A000845
:101C40002F1A00082F1A00082D1F00082D1F00084A
:101C5000C0110020101200200000C84207220029F5
:101C600040F0838246FA02F3D90700F1888201230B
:101C700003FA02F21643B6B29DF8472017F802A005
:101C8000BAF1000F7FF483AE079B23B1089B002BB2
:101C900008BF02230893069B9D0605D5C74BD8F8BD
:101CA00024209A4200F38F820A9B002B00F07A8254
:101CB000069BDC0740F1E68298F80330012B06D141
:101CC000D8F80C00BE49FEF7E5FDC8F80C00069BED
:101CD000DB0503D4BB4BDB68C8F8303098F8004014
:101CE000042C00F08382642C00F08882652C40F084
:101CF0006C82069A02F0C003C02B40F06B8222F087
:101D0000C0039BB2069398F80590B9F1000F00F05C
:101D1000F282B9F1010F40F0928200254FF0020AE1
:101D2000CDE90B590527D14698F80330012B00F077
:101D3000B882089B032B00F0A882A34B0DF1580C2E
:101D40000FCB8CE80F00B00510D598F807000628D7
:101D500000F2CE849B4B9B79834207D016A905F0F5
:101D60005DF9002800F0238698F800400A2C00F066
:101D700028835C2C00F0D082089B032B3CD0079A70
:101D8000002A39D08F4998F80430D1F84CB0002B94
:101D900000F0CB86D00740F11286352C00F0588732
:101DA000884BD8F83810D869FEF76CFC079BC8F848
:101DB00038009A0740F15087824BD8F83C10186AD7
:101DC000FEF760FC079BC8F83C00580740F104860A
:101DD0007C4BD8F84010586AFEF754FC079BC8F8B3
:101DE00040001B0740F14787764BD8F84400996ABA
:101DF000FEF748FCC8F844001E2C00F00086352C85
:101E000000F0F5851C2C00F0CD8598F80140502C91
:101E100040F0F285079A002A40F033870A9B0D9222
:101E2000002B00F01F83069A22F0210292B208993B
:101E300011B122F4705292B2002A40F01B83CDE916
:101E400013221592002B00F01F8326F04906002E66
:101E500040F0128698F80030352B02D0002B40F06D
:101E60000B86584A13A8117A537AD2680B43574904
:101E70008DF85430149201F093F9044600287FF451
:101E8000D7AD534B534D0FCB85E80F00D0E5022C57
:101E900016D8002C40F0448103224FF400630B2439
:101EA00088F8082046FA04F4E20700F168811E432E
:101EB000E2E6FE2C7FF4BBAD0B4688F80040F1E76C
:101EC0001E2C7FF4B4AD88F808404FF400630B2457
:101ED000E8E70022012197F803A088F8022088F89B
:101EE00001100322BAF1000F00F0CC810A9146E5FF
:101EF0007824002388F80040D4E77124002388F870
:101F00000040CFE77224002388F80040CAE773241A
:101F1000002388F80040C5E77424002388F80040B7
:101F2000C0E77524002388F80040BBE7642288F8E6
:101F3000004094E6002940F01A815A3C032288F8B8
:101F400004408FE6C4F15E04052288F8024086E66C
:101F50001C2C88F8004000F0FE801E2C00F0FB8056
:101F600000227CE6002940F0EE80089B002B40F028
:101F70007E821C2C88F8004000F0D9801E2C00F0D6
:101F8000D6805C2C00F0D3801A460123089369E6C2
:101F9000089B002B40F06B82312C00F01D810A2938
:101FA0007FF445AD012388F8063003230822089307
:101FB00058E6363C092288F8074050E6809698009B
:101FC0003333CB41C0110020EC110020101200204F
:101FD00048120020DC11002000297FF428AD0A22DD
:101FE00040E65023012288F8013038E6113C0222F5
:101FF00088F8054033E6C4F11504062288F803404A
:102000002DE6079B4FF4805443F0040307930C2301
:10201000C8F840B0069A42FA03F3D90711D4069BD8
:102020002343069328E6079B069A43F00803079389
:102030000D2342FA03F3D9074FF40054C8F844B013
:10204000EDD5192420461BB0BDE8F08F40240622B0
:10205000C8F828B0069B43FA02F2D007F1D45846DC
:102060000021FEF7B5FD0028D9D00424E0E4802447
:102070000723C8F82CB0CDE74FF480740822C8F8C5
:1020800030B0E7E758469F49FEF7C0FD002840F012
:10209000C58488F8344009224FF40074DAE7079BBE
:1020A0004FF4806443F001030793C8F838B00A2363
:1020B000B0E7079B4FF4006443F002030793C8F8AE
:1020C0003CB00B23A6E7099B042443F002030993C9
:1020D000C8F814B002239DE7099B082443F00403C9
:1020E0000993C8F818B0032394E788F82040042324
:1020F00010248FE75846FEF7A9FD20240522C8F8D2
:102100002400A7E701240022C8F80CB0A2E7099B2D
:10211000022443F001030993C8F810B0012379E7C2
:10212000012C7FF4D0AE4FF400630B24BAE60123F8
:1021300008932044002288F8000093E501242046FB
:102140001BB0BDE8F08F1C2C88F8004005D01E2C79
:1021500003D05C2C09D10029EBD00A29E9D066E430
:10216000022420461BB0BDE8F08F172460E40A2942
:102170007FF45DAC5A2C3FF45AAC042272E515246E
:1021800056E4614A22FA03F3D8077FF550AC5F4B5F
:102190000122A3FB0113DB08763B88F80130022300
:1021A00008935FE598F80230012B5CD0584A5378C9
:1021B0000A93002B40D1069BD9073FF57DAD1369EB
:1021C000C8F80C3083E51B2432E4712C40D1069B07
:1021D0005D060ED41C242BE488F806300323082265
:1021E00008933FE502230122089338E5069B5F062A
:1021F000F0D523F040039BB2069384E5069A02F0E3
:102200005003502BE6D102F49073B3F5907FE1D1E7
:1022100002F08103812BDDD1A3F273231A400692D1
:1022200071E598F802205646012ACDE908AACDF8B2
:102230001CA0CDF818A0B9D100230A9347E50225C8
:102240004FF0010A0023D14606270B950C936BE54E
:10225000722CBCD0732CBAD0742CB8D0752CB6D0DC
:10226000782CB4D04FE5089B022BE5D198F80130CB
:10227000502B3FF42CAD002B3FF429AD069BD80723
:102280003FF525AD1624FFF7D3BB98F80630012B98
:102290007FF453AD079B042B3FF44FAD2524FFF78C
:1022A000C7BB079BD80706D5D8F838001949FEF7F1
:1022B000F1FAC8F83800079B990706D5D8F83C0012
:1022C0001449FEF7E7FAC8F83C00079B5A0706D501
:1022D000D8F840000F49FEF7DDFAC8F84000079B28
:1022E0001B077FF526ADD8F844000A49FEF7D2FA5D
:1022F000C8F844001DE5012502230327CA460B95B3
:102300000C9311E500007F4301041040CDCCCCCCF0
:10231000C01100203333CB41079B002B00F0B88263
:10232000564AD907D46C40F1B6821699D8F83800CD
:10233000FEF7A8F9514B0146D869FEF7A1F9C8F894
:102340003800079B9A0740F135831799D8F83C006D
:10235000FEF798F9494B0146186AFEF791F9C8F85B
:102360003C00079B5B0740F19B821899D8F840001E
:10237000FEF788F9414B0146586AFEF781F921467C
:10238000FEF77EF9C8F84000079B1C0740F18583E3
:10239000D8F844101998FEF775F9384B0146986A39
:1023A000FEF76EF9C8F8440000230D9398F8014039
:1023B000502C00F06684089B022B00F0AB810A9B36
:1023C0002EE5079B002B00F06382069C14F0500F53
:1023D0003FF400AFD8F82800FEF75EFCC3B2062B2E
:1023E00000F2868198F82020142A05D0022A7FF472
:1023F0001EAB21063FF51BAB069A22F0500292B2AB
:102400000692002B00F04483013BDBB218460D938B
:102410001B4904F003FE002800F0C98298F8203020
:10242000164A142BD46C079B00F09585DA0744BF3D
:10243000D8F83830C8F81030079B9B0744BFD8F84D
:102440003C30C8F81430079B5C0744BFD8F84030D4
:10245000C8F81830079B1807A8D5D8F84430C8F832
:102460001C30A3E7074A069911400A46DFE4182406
:10247000FFF7DEBA2424FFF7DBBA00BFC01100204B
:1024800020120020DEFCFFFF9B4B93F8583098078A
:1024900000F1DA82994B5C7A0A9B03F04005974978
:1024A000D8F8242098F802308A614B7013B10823C1
:1024B0008DF85430914AD8F80C30D668D8F830707E
:1024C0003046394613611393FEF778FB002800F07D
:1024D000EC810A9B9B0600F1E881374605B9149709
:1024E00098F80A0098F83430844DA0422B7504D037
:1024F00004F030FF98F80A406C72804B9DF854202D
:1025000098F809001B7A144383428DF854400CD08C
:10251000FFF746F998F80900012800F07A84774A15
:102520009DF85440137A1843107298F80030044311
:10253000042B8DF8544000F0D983642B00F05C83A9
:10254000652B00F0BF83712B00F03C83722B00F0F1
:102550002083732B40F0C881D8F828400021204602
:10256000FEF72CFB002840F0AC8120464FF07E5156
:10257000FEF724FB002840F0B08198F803305F4953
:1025800098F805208B70089B0A71032B00F0B78226
:102590005A4D98F80740AB79A34208D016ABAC71FE
:1025A00005F12C040FCB84E80F0006F0FDF898F835
:1025B000003098F804205149282BCA7016D8092BEE
:1025C00023D90A3B1E2B20D8DFE803F0801F1F1FF2
:1025D0001F1F1F1F1F1F1F1F1F1F1F1F1F1F6B1FBF
:1025E0006B1F1F1F1F1F1F1F661F61005C2B00F04A
:1025F0002684662B09D10023414A1360C2E90133C6
:10260000D360A2F13C0106F0CFF898F801303B4AC4
:10261000502B137003D0089A022A00F06E8398F8AA
:102620000840364BDC71002C3FF402AA03F0D6FBC5
:10263000324BDB79032B00F07F8346F264420020AB
:10264000012440F2011564212E4B2C4E1A811A7878
:102650003071022AF070B0713480358199720ED0D9
:1026600006F12C0104F0DAFC002800F0A08106F04D
:102670009BF8204604F066FE2046FFF789F8082004
:1026800003F0F6FB00241D4BDC71FFF7D1B90720E6
:102690001D4904F0F5FBB8E706201B4904F0F0FBE8
:1026A000B3E79DF8543043F001038DF85430089B94
:1026B000002B40F0B684154D134C284613A901F0A9
:1026C00063FB95E80F0084E80F009EE70D9D0F4C1B
:1026D0002846214604F0D4FB084B9B79AB4294D1A9
:1026E00094E80F000A4C84E80F0006F05DF88CE7D0
:1026F0001D24FFF79DB900BF94150020C0110020D4
:10270000FC1100205C120020DC11002020120020AF
:10271000EC110020002C00F0B2810021D8F80C0050
:10272000FEF74CFA00287FF4ADAD032C0BD000F27D
:10273000B981012C00F0A381022C0A9B7FF470ABBD
:1027400043F004030A93079B002B00F0A1803B4257
:1027500000F06D84B34B08EB8A0203EB8A03D9695E
:10276000906BFDF78DFFAF4B08EB850203EB850304
:102770000446D969906BFDF783FF069BA34613F0CF
:102780008003044600F09A841022A749A74806F067
:102790003BFB002800F0D78498F80330012B06D1CA
:1027A000D8F82C00A249FEF775F8C8F82C00D8F824
:1027B0002C100846FEF76EF84FF08141FEF76AF8DC
:1027C000594607465846FEF765F8214609902046C7
:1027D000FEF760F8099B01461846FDF753FF0146D6
:1027E0003846FDF74DFF00210746FEF7F1F90028B6
:1027F00040F02084384606F0DFFC21460746584664
:1028000001F038FE014607F10040FEF7F7F898F8AE
:1028100001300746032BD8F82C3008BF00F10047E1
:10282000002118460993FEF7D3F930B1099B07F14F
:10283000004703F10043C8F82C30069B214623F0E3
:1028400080039BB238460693FEF724F801465846AB
:10285000FDF716FF4FF07C51FEF71CF80AF1020A53
:1028600008EB8A0A5946CAF808003846FEF712F8FB
:102870002146FDF707FF4FF07C51FEF70BF80235BC
:102880000A9B08EB850503F00103A860FFF7C8BAAF
:102890001A24FFF7CDB8634BDB6BC8F8383050E52E
:1028A000604B5B6CC8F840306EE5012C06D02046CA
:1028B00004F050FD5B4BD8F830705C7A594BDF6008
:1028C0000CE608215B480022FEF796FD4FF07E5192
:1028D000D8F82800FEF772F920B1012208215548E6
:1028E000FEF78AFD98F80030742B17D1D8F82840ED
:1028F00000212046FEF762F9002840F0568220466B
:102900004FF07E51FEF75AF900283FF436AE01220F
:1029100048481146FEF770FD98F80030752B17D126
:10292000D8F8284000212046FEF748F9002840F05A
:102930004B8220464FF07E51FEF740F900283FF4CD
:102940001CAE012220213B48FEF756FD98F80030CE
:10295000782B18D1D8F8284000212046FEF72EF910
:10296000002840F05C8220464FF07E51FEF726F9A9
:1029700000283FF402AE01224FF400712E48FEF70A
:102980003BFD98F80030FE2B7FF4F7ADBFF34F8F7F
:102990002A492B4BCA6802F4E0621343CB60BFF3B1
:1029A0004F8FFEE70620274904F038FB68BB072459
:1029B000FFF73EB81B4B1B6CC8F83C30D1E4CB6929
:1029C0009107C8F8383040F14781352C7FF4F4A9DD
:1029D000079B590700F14B81124B5B6AC8F84030E6
:1029E000079B1A0740F14781352C7FF4FDA998F821
:1029F0000140012C00F2778100230D93DBE40720D6
:102A0000104904F00BFB0028D1D0079A002A40F0AF
:102A10003B810A9B0D920892FFF702BA2624FFF72A
:102A200007B800BFC011002048120020DC110020B0
:102A30003333CB41000C01400008014000ED00E0C1
:102A40000400FA052012002098F80130013B022B07
:102A500003D90A9B43F040030A93079B1BB1089BD1
:102A6000022B00F0C081BA4B5C7A102C00F0F08190
:102A70000A9B03F0400512E51024FEF7D9BF079B1F
:102A8000002B089B08BF002308930A9BFFF7C8B9D7
:102A900098F8073018460D93BAE4AD4B9B6CC8F814
:102AA000443081E404F17403DBB2032B3FF687ACBE
:102AB000A4F18C03032B3FF682ACDFE803F006029F
:102AC00006020A9B43F010030A9304F17203DBB27F
:102AD000012B03D80A9B43F008030A93079B002BA2
:102AE0003FF4D6AE10229B499B4806F08DF9002892
:102AF00000F029830A9B03F00103FFF791B998F8CE
:102B000006304B7113B90023C8F84030D8F8404064
:102B10008F4B2146D86CFEF751F800287FF438AD72
:102B20008B4BDC6405F040FE32E5D00700F1668295
:102B3000874BDB69C8F83830079B990700F14F8253
:102B4000834B1B6AC8F83C30079B5A0740F15581FC
:102B5000352C00F08C80D8F840101898FDF792FDC5
:102B60007B4B596CFDF78EFD5946FDF78BFD079B9E
:102B7000C8F840001B077ED51999D8F84400FDF726
:102B800081FD734B996CFDF77DFDC8F84400FFF79C
:102B900033B9D8F8284000212046FEF70FF8002866
:102BA00040F0E48020464FF07E51FEF707F8002801
:102BB0003FF4E3AC012210216848FEF71DFC98F8B1
:102BC0000030C6E4D8F8284000212046FDF7F6FF83
:102BD000002840F0DA8020464FF07E51FDF7EEFFEE
:102BE00000283FF4CAAC01224FF480715C48FEF724
:102BF00003FC98F80030A9E4D8F828405949204649
:102C0000FDF7DCFF002840F03681D8F83000FEF7F1
:102C100043F806462046FEF73FF80546D8F82C0054
:102C2000FEF73AF80346D8F80C00DBB20193FEF742
:102C300033F8F6B2C4B2EDB23346284698F82420F1
:102C400098F82010009405F027FF98F8003077E4FA
:102C5000079B9A073FF5BCAE3D4B1B6AC8F83C305A
:102C6000079B5B077FF5B8AE352C7FF4B1A8079BB7
:102C70001B073FF5BCAE364B9B6AC8F84430FFF7E4
:102C8000BBB81F24FEF7D4BED10703D4304BDB6999
:102C9000C8F81030079B9A0703D42D4B1B6AC8F85D
:102CA0001430079B5B0703D4294B5B6AC8F81830C4
:102CB000079B1C073FF578AB254B9B6AC8F81C3077
:102CC000FFF772BBD8F82C00FDF7E6FF0446D8F8F2
:102CD0002800FDF7E1FFE4B22146C0B205F062FF33
:102CE00098F800302FE41E24FEF7A2BED8F8280082
:102CF00001F02AFA98F800301FE4012B00F0D78188
:102D0000002B00F0C781023B012B40F29F819DF810
:102D10005430104D43F0040328460A9A13A98DF845
:102D2000543001F053FA002840F087810A4C95E8AE
:102D30000F0084E80F0072E40B4B1B78022B3FF46A
:102D4000A1AC082005F0DEFD02F08AFF9AE400BF86
:102D5000C011002048120020DC110020000C0140AE
:102D600000080140000010415C1200201021C24800
:102D70000022FEF741FB4FF07E51D8F82800FDF706
:102D80001DFF00283FF41BAF14E74FF48071BB48D0
:102D90000022FEF731FB4FF07E51D8F82800FDF7F6
:102DA0000DFF00283FF425AF1DE70121B2480022A6
:102DB000FEF722FB4FF07E51D8F82800FDF7FEFE0B
:102DC00000283FF4A9ADA2E52021AB480022FEF780
:102DD00013FB4FF07E51D8F82800FDF7EFFE0028D6
:102DE0003FF4B4ADADE50A9B43F080030A9303F0D2
:102DF0004005A34B5C7AFFF752BBA14B5B6AC8F856
:102E00004030079B18077FF536AF352C7FF4B4AE02
:102E1000EDE59B4B9DF854401872FFF786BB4FF4CD
:102E2000007196480022FEF7E7FA4FF07E51D8F87D
:102E30002800FDF7C3FE00283FF4A3AD9BE5914CAD
:102E4000914B0FCB84E80F0005F0AEFCFFF7DDBB24
:102E50008B4B1B78013B022B0A9B03F0400500F2D1
:102E6000DC8059067FF51BAB43F020030A9303F087
:102E70004005FFF714BBD8F83000FDF70DFF0446FE
:102E8000D8F82C00FDF708FF0346D8F80C00DBB299
:102E90000193FDF701FFE4B2C0B2234698F8242065
:102EA00098F820100090002005F0F6FDD8F83000CA
:102EB000FDF7F2FE0446D8F82C00FDF7EDFE0346C0
:102EC000D8F80C00DBB20193FDF7E6FEE4B2C0B225
:102ED000234698F8242098F820100090012005F04F
:102EE000DBFDD8F83000FDF7D7FE0446D8F82C00FB
:102EF000FDF7D2FE0346D8F80C00DBB20193FDF7D4
:102F0000CBFEE4B2C0B2234698F8242098F82010F3
:102F10000090022005F0C0FDD8F83000FDF7BCFE9F
:102F20000446D8F82C00FDF7B7FE0346D8F80C008D
:102F3000DBB20193FDF7B0FEE4B2C0B223460090CD
:102F400098F82420032098F8201005F0A5FD98F8A3
:102F50000030FFF7F5BAD9070CD5494BD8F838003F
:102F6000D96BFDF78FFB464B0146D869FDF788FB0F
:102F7000C8F81000079B9A070CD5414BD8F83C00C5
:102F8000196CFDF77FFB3E4B0146186AFDF778FB95
:102F9000C8F81400079B5B070FD5394BD8F84000E1
:102FA000596CFDF76FFB364B0146586AFDF768FB1D
:102FB0002146FDF765FBC8F81800079B18077FF549
:102FC000F5A92F4CD8F84410A06CFDF75BFB014627
:102FD000A06AFDF755FBC8F81C00FFF7E7B9352CD0
:102FE0003FF4B2ADD8F83C101798FDF74BFB244BDB
:102FF000196CFDF747FBC8F83C00A5E5352C3FF4FC
:103000009BADD8F838101698FDF73CFB1C4BD96BDC
:10301000FDF738FBC8F838008EE55A063FF53FAAA1
:1030200022E7194813A900F0AFFEFFF744BB2024A4
:10303000FEF7FEBC2224FEF7FBBC01287FF4EFAABA
:103040001249134805F0BAFBFFF7E9BA0A9B0E4D87
:10305000C3F3800304930C9B0D4CD8F82C600393AE
:103060000B9B2246CDE90193284613A9A5F128031D
:10307000009600F0BDFE5AE6000C01400008014039
:10308000C0110020FC1100204812002080120020F6
:10309000DC1100209DF854303B4D43F001032846DD
:1030A00013A98DF85430394C00F06EFE3FE6364DD2
:1030B00013A9284600F068FE344C38E6099A3A42D3
:1030C00044D0069998F8032021F00E0189B2012A14
:1030D00006913ED0023508EB8505A9682046FDF72C
:1030E000CFFA07460AF1020408EB8404A1685846A7
:1030F000FDF7C6FA394601F0BDF90346A968A06894
:103100001C4601F0B7F9054620462946C8F82C5060
:10311000FDF7B6FA20F0004420461D49FDF776FD84
:1031200000283FF4E7AC4FF07C512046FDF76EFDE0
:1031300048B918492846FDF7ADFB2146FDF748FD83
:1031400000283FF4D7AC2124FEF772BC2324FEF7FD
:103150006FBC1F46104B0E951C4605460F49099B38
:103160003B4113F0010F07F1010705D020680F91D3
:10317000FDF790FB0F992060042F04F10404EED1B9
:103180002C460E9DA6E700BF48120020DC1100204F
:103190000AD7A33B6F12833A201200203333CB416E
:1031A00070B505460B46027AC86842F0040213491E
:1031B00028602A7291F8582003F13804930603D549
:1031C000204605F021FBA8B90D4E2046294600F007
:1031D000DBFD347814B10024204670BD01F056FBAD
:1031E0000028F8D02023337004F014FC04F0EAF82F
:1031F000204670BD0F24204670BD00BF94150020EE
:103200005C12002010B5012182B01C4C0420FEF796
:1032100099F91B4B204669460093FDF75FFF204656
:1032200000224FF48071FEF7E7F8002220464FF4A9
:103230000071FEF7E1F801210820FEF783F904F59B
:103240008064104B204601A90193FDF747FF2046FB
:1032500000221021FEF7D0F8204600220821FEF7B8
:10326000CBF8204600220121FEF7C6F820460022B6
:103270002021FEF7C1F802B010BD00BF00080140D8
:10328000000302103900021070B5012188B04FF41C
:103290000070FEF757F9002502231E4801A90124FA
:1032A000ADF8043040F201168DF80750FDF716FF17
:1032B0004FF460220023184802A9CDE904230295A7
:1032C000ADF80C608DF81840FDF742FD224607234B
:1032D00009211148FDF788FD0F482146FDF75CFDE7
:1032E0000D48FDF763FD0C48FDF766FD0028FAD197
:1032F0000948FDF765FD0848FDF768FD0028FAD18B
:1033000001210548FDF766FD0348FDF7B7FD08B04C
:1033100070BD00BF000C0140002401400148FDF7D2
:10332000ADBD00BF0024014010B5012184B00920CB
:10333000FEF708F9204C214B694621480093FDF720
:10334000CDFE94F858301B0706D44FF480721D4B05
:10335000C3F8842004B010BD642001F07BF80C2178
:103360000120FEF785F80D210120FEF781F80E21DE
:103370000120FEF77DF80F210120FEF779F894F87F
:1033800058304FF4704113F0400F14BF08240C2440
:103390000022012302A802918DF80C208DF80E3036
:1033A0008DF80D40FDF76EFD074B01A80193FDF769
:1033B0009DFC04B010BD00BF9415002000F0034830
:1033C000000C014000E100E0280202014FF480728D
:1033D000014BC3F88420704700E100E070B51B4842
:1033E000FEF702F800240546184E3046FDF7FCFFB4
:1033F00001348542E4B205D03046FDF7F5FF0124E3
:103400000546F2E7092CF0D9114B93F858305B06CA
:103410005CBF85F47045ADB2ADB10E4B19885A88CA
:103420000D4214BF0120002015429A88DB8818BF86
:1034300040F00200154218BF40F004001D4201D0C8
:1034400040F0080070BD284670BD00BF000C014070
:1034500094150020C8A2000808B54FF48050FDF76D
:1034600051FD88BB4FF40050FDF74CFD38BB4FF4C5
:103470008040FDF747FDE8B94FF40040FDF742FDFD
:1034800098B94FF48071134A134BC2F884111B781A
:10349000012B02D0114B1B7803B108BD00F0FEFEDA
:1034A000BDE80840012005F041BA4FF40040FDF7A7
:1034B00037FDE6E74FF48040FDF732FDDCE74FF4DF
:1034C0000050FDF72DFDD2E74FF48050FDF728FDA9
:1034D000C8E700BF00E100E05C120020901200206D
:1034E0002DE9F04F374B93B05B78069013B113B0D2
:1034F000BDE8F08F054606243349CDE90C33086852
:10350000496809AA0B9315F001038DF8344003C2F2
:1035100005F00104079300F0C7822C4E2C49306B54
:10352000FDF7B8F900218146FDF766FB002800F0A1
:10353000C882069BC3F3400204929A070BD5244924
:10354000706BFDF7A7F9054648462946FDF754FB81
:10355000002800F0B482069BC3F380025B0703924D
:103560000BD51B49B06BFDF795F905464846294632
:10357000FDF742FB002800F0A082069BC3F3C002C7
:103580001F0705920BD51249F06BFDF783F905462D
:1035900048462946FDF730FB002800F08C820D4894
:1035A000FDF722FF002782460A4D2846FDF71CFF43
:1035B00001375045FFB20FD02846FDF715FF012710
:1035C0008246F2E75C120020D0A200089415002089
:1035D0000000C0BF000C0140092FE6D996F8583012
:1035E0005D065CBF8AF4704A1FFA8AFABAF1000FCE
:1035F00000F05882814B19885A881AEA010F14BFCB
:103600004FF001084FF000081AEA020F9A88DB8891
:1036100018BF48F002081AEA020F18BF48F0040861
:103620001AEA030F40F044824FF0010A0322D6F851
:1036300060B0E3B25F460293D3464B469246C14622
:103640006F4D70490EA8019305F0B8F8DDE901321D
:10365000002A00F08B810020B6F85A206949D4076F
:10366000086040F1BD81BBF1000F00F0C18119F08D
:10367000010F40F0BD8103F100420E920222BDF81D
:10368000244002980499B9B10021B6F85AC05D48A7
:103690001CF0020F416000F0B681BBF1000F00F09A
:1036A000BA8119F0020F40F0B68103F100410F9189
:1036B0001046BDF826100C43039AC2B10022B6F89A
:1036C0005AC0504901301CF0040FC0B28A6000F0AB
:1036D0007D81BBF1000F00F0818119F0040F40F0F3
:1036E0007D8103F100421092BDF828201443059A11
:1036F000B2B10022B6F85AC0424901301CF0080F9E
:10370000C0B2CA6040F07681BBF1000F02D019F060
:10371000080F01D003F100431193BDF82A301C4378
:10372000FDF760F805F048FD374B3946DC80FDF7C2
:10373000B1F803460BA90EA80B9301F09BF90423E3
:10374000314ACDF804A013715F4604F063F903F029
:1037500039FEDFF8BCA0002F3AD104F05BF92B78DA
:1037600013F0340F40F0B7802207F4D104F022F8B0
:10377000B6F8640000F06EFE87F0010B002F40F0F9
:10378000F9802249B06EFDF785F80346F76D019A7E
:1037900002F1FF3A5FFA8AFA002A7FF452AF079BE0
:1037A0000BB1184B1A60049B13B10023154A5360E8
:1037B000039B13B10023134A9360059B13B10023AD
:1037C000104AD3600023104A137113B0BDE8F08F84
:1037D0005046FDF709FE4FF0000883465046FDF7BE
:1037E00003FE08F1010858455FFA88F812D05046E8
:1037F000FDF7FAFD4FF001088346EFE7C8A2000885
:103800006B120020801200205C1200200000A040FB
:10381000000C0140B8F1090FE0D996F8583058066D
:103820005CBF8BF4704B1FFA8BFBBBF1000F66D0B3
:10383000A54A138852881BEA030F14BF01230023F3
:103840001BEA020FA04A18BF43F0020392881BEA4A
:10385000020F9D4A18BF43F00403D2881BEA020FEF
:10386000BDF8242018BF43F00803144207D0D9073D
:1038700040F1848019F0010F01D124EA0204BDF85F
:103880002620144207D0980740F1858019F0020FD6
:1038900001D124EA0204BDF82820144207D05907B8
:1038A00040F1878019F0040F01D124EA0204BDF829
:1038B0002A20144206D0DB0831D019F0080F01D1BC
:1038C00024EA0204814BDC8004F0A4F82B7813F086
:1038D000340F3FF449AF2B78DCB2DB0600F19D805A
:1038E000A00628D467B3630700F1D880784B1B7813
:1038F000002B40F0CC80042005F00EF836E7BDF830
:103900002420144239D1BDF82620144242D1BDF8FA
:10391000282014424CD1BDF82A201442D2D019F0EC
:10392000080FCFD0019B09F0F709013BDBB20193EF
:1039300087F00107C4E7072004F0F8FF002FD2D179
:103940006448FDF751FDBA468346624C2046FDF7B8
:103950004BFD0AF1010A58455FFA8AFA61D0204608
:10396000FDF742FD4FF0010A8346EFE7144610468B
:10397000012287E6B36E376E09E75B4619F0010F47
:103980003FF47DAF019900270139C9B2019109F0D7
:10399000FE0972E75B4619F0020F3FF47CAF019914
:1039A00009F0FD090139C9B2019187F0010770E7FB
:1039B0005B4619F0040F3FF47AAF019909F0FB0957
:1039C0000139C9B2019187F001076EE7BBF1000F21
:1039D0003FF487AE19F0040F7FF483AE109383E6B3
:1039E000BBF1000F3FF447AE19F0010F7FF443AE77
:1039F0000E9343E6BBF1000F3FF48EAE19F0080FB3
:103A00007FF48AAE86E6BBF1000F3FF44EAE19F0AC
:103A1000020F7FF44AAE0F934AE6062004F086FFB9
:103A20005EE7BAF1090F91D996F8583059065CBF94
:103A30008BF4704B1FFA8BFBBBF1000F3FF456AFBA
:103A4000214A138852881BEA030F14BF0123002365
:103A50001BEA020F1C4A18BF43F0020392881BEABC
:103A6000020F194A18BF43F00403D2881BEA020F61
:103A7000069A18BF43F008031A423FF437AF0820F4
:103A800004F054FF124B1B78002B3FF434AF00F0CE
:103A900005FC02F0E5F813B0BDE8F08F092004F052
:103AA00045FF23E7D046BFE54FF000090A4E40E549
:103AB00048F00808B8E5A94671E5A9465DE5A946BC
:103AC00049E54FF0000934E5C8A200085C12002067
:103AD00090120020000C01409415002010B504F055
:103AE00093FE78B101230C4C2078E37008280AD1AA
:103AF00004F008FF01E023782BB102F0B1F86378FD
:103B0000002BF8D010BD00F0C9FB022004F00EFF1E
:103B1000BDE8104002F0A4B85C120020F0B50546E4
:103B200087B04FF44070FDF7D7F80126252301A890
:103B3000ADF804308DF80760FDF7D8F8314644F24F
:103B40000900FDF7FFFC1F4C31460420FDF75AFC2D
:103B50001D4B204669460093FDF7C0FA1B4B694692
:103B6000204600270093FDF7B9FA4FF44023184A86
:103B700004F53054A2FB0525204602A9ED08CDE945
:103B800003730295ADF81470FDF766FD20464021E1
:103B9000FDF7EEFDA3893A469BB243F00C03A381E7
:103BA000204640F22771FDF7C3FD3246204640F221
:103BB0002551FDF7BDFD31462046FDF7ABFD07B0B1
:103BC000F0BD00BF000C014040000318800003045A
:103BD0008988888870B5064686B04FF44070FDF736
:103BE0007BF80125272301A8ADF804308DF8075094
:103BF000FDF77CF829460920FDF7A4FC1A4C29465C
:103C00004FF48020FDF7AAFC184B2046694600932C
:103C1000FDF764FA4FF40062042369462046ADF8CC
:103C200000208DF80330FDF759FA00234FF44022AD
:103C3000CDE90332A4F54444ADF81430A3892046FD
:103C40009BB243F00C03029602A9A381FDF704FD89
:103C50002A46204640F22551FDF76AFD29462046B6
:103C6000FDF758FD06B070BD000C014000040318BC
:103C70002DE9F84F4FF4E130FFF750FFFDF756F90B
:103C8000FDF79CFD2B4A46F2644B13682A4D23F046
:103C90000403136002F08CFF03F02EFB03F002FE1E
:103CA00004F012FBFFF7AEFA4FF41650FFF792FF45
:103CB00000210A460C462148214EC0E90011C0E906
:103CC0000211DFF888A0DFF88890DFF888801D4FA8
:103CD00064211D4B8AF80040AC6089F80040A9724D
:103CE00088F800402C603C702A701C70C6E90044C3
:103CF000C6E902446C60AC81A5F808B003F094F802
:103D0000FDF7FAFD03F012FBFDF740FDFFF70CFB9A
:103D100001F066FCFFF7B8FA00F074FD03F04AFD0D
:103D200001F014F9FDF7FEFD02F000F901F0A6FF25
:103D30002A78CDE710E000E05C120020801200201D
:103D400070120020581200206A1200206C1200200D
:103D50006B1200209012002042F22831094B30B43F
:103D6000002501241A4601FB00F159609D601C608A
:103D7000136803F00113012BFAD030BC0023136049
:103D80009360704710E000E0F8B5174E0F4696F8C4
:103D9000583005469906154C04D52378202B0AD0B7
:103DA000FFF79CFE2378022B05D1F8BD00F09AFDA9
:103DB00038B101F07FFC01F053FF6378002BF5D0A0
:103DC000F3E72846394600F055FE0028EDD196F875
:103DD00058309A07E9D53B7ADB06E6D5BDE8F840CE
:103DE000102003F0B7BA00BF941500205C12002029
:103DF0002DE9F04F8FB09DF864701D4653F8279061
:103E000004460D908B46484652F827109246FCF720
:103E100039FC9DF86860029055F826305AF8261053
:103E200018460893FCF72EFC54F826100590FCF772
:103E300027FC54F8271080460298FCF721FC044622
:103E400048462146CDF82490FCF724FD41468146A2
:103E50000898FCF71FFD01464846FCF713FC034693
:103E6000414609989846FCF715FD214604460898F6
:103E7000FCF710FD01462046FCF702FC414605F028
:103E800099F90AEB8702039205EB87020A929DF8E3
:103E9000703005EB86020B920AEB86020446189DF1
:103EA0009DF86C800492002B00F00381FCF7B4FABB
:103EB0009BA3D3E9002306460F46FCF779FB0028B5
:103EC00040F01D819C4B2946DE6C2846FCF7DAFB4E
:103ED0003146FCF7D5FB3146FCF7DCFC05F06CF90C
:103EE00003464FF07C5128461D46FCF7D3FC214683
:103EF000FCF7D0FC294620F00040FCF77FFD05F0E0
:103F0000B5F8FCF7C9FE83B20193002B00F0CA801C
:103F10009BF808601846330700F1E280FCF766FC66
:103F2000054629464FF07E50FCF768FD05462046C1
:103F30002946FCF7AFFC03460D9A5AF8281052F8B0
:103F400028001E460C93FCF79BFB2946FCF7A2FCBD
:103F5000314681463046FCF79DFC04464FF08040D8
:103F60002146FCF78DFB0346214674481C46FCF7AE
:103F700087FB734905463046FCF78CFC0146284612
:103F8000FCF788FC03464FF07C5120460693FCF773
:103F900081FC019B0AEB8808012B079000F08280CE
:103FA000099B012603F10044089B002703F100450B
:103FB00040E021460698FCF76DFC294608900798DA
:103FC000FCF768FC089B01461846FCF75BFB0346C0
:103FD000214607981C46FCF75DFC294605460698D5
:103FE000FCF758FC01462846FCF74AFB25460446E8
:103FF0000137FFB202992046FCF744FB039B059969
:1040000018602846FCF73EFB049B49461860D8F828
:104010000000FCF737FB5946C8F800005046FFF790
:10402000B3FE484B01365B78B2B2002B72D1019BD4
:10403000934237D90B2FBCD93046FCF7D7FB0C99EC
:10404000FCF728FC044604F0DDFF0546204605F099
:104050007BF80A9B04461F68294607F1004738464B
:10406000FCF718FC0B9B21461B6809901846089327
:10407000FCF710FC099A01461046FCF703FB0246C8
:10408000214638461446FCF705FC089B29460546A0
:104090001846FCF7FFFB01462846FCF7F1FA00271B
:1040A0000546A7E759460D980FB0BDE8F04FFFF75A
:1040B0006BBEFCF7B1F91CA3D3E9002306460F46FB
:1040C000FCF76CFA00283FF4FDAE19A3D3E90023F6
:1040D00030463946FCF742F8FCF77EFA0446F1E632
:1040E000FCF784FB0546DBF800002946FCF7D2FB11
:1040F00026F00806CBF800008BF8086011E70CA347
:10410000D3E9002330463946FCF726F8FCF764FA79
:104110000446D7E60FB0BDE8F08F00BFAFF30080D4
:104120008DEDB5A0F7C6A0BE8DEDB5A0F7C6A03E3B
:10413000182D4454FB211940941500200000C04064
:10414000ABAA2A3E5C120020074B1B78022B09D039
:1041500010B5044601F042FE2046BDE810400021A3
:1041600000F040B9704700BF5C12002010B5044653
:10417000FFF72CF944B12046FFF7B2F901F070FDCA
:10418000104B5B787BB110BD0420FFF7A9F9032029
:10419000FFF7A6F90820FFF7A3F901F061FD094B2D
:1041A0005B78002BEFD1FDF7BDFB00F0CFFE4FF4A5
:1041B0007040FCF7B5FE4FF48072034BC3F88421C6
:1041C0005A6010BD5C12002000E100E02DE9F041D2
:1041D0002E4C2378022B27D007460D46164601F0B9
:1041E000FDFD94F80180B8F1000F1AD1C6F3C000AC
:1041F00084F8058001F016FA01F028FA80BB294600
:104200003846FFF7C1FD0123214D02202B7004F039
:1042100079FB01E0237853B101F022FD6378002B94
:10422000F8D00220BDE8F0810020BDE8F0812B78B5
:10423000012B1ED0012363710020287001F0F2F9D8
:1042400001F00EFD03F0B6FA00F0DCFA00F07EFE9D
:1042500002F06EF86079003818BF0120BDE8F081E7
:10426000042004F063FB01F0FBFC404601F0DAF9A6
:10427000D7E7F30605D5074B074E0FCB86E80F00AF
:10428000DAE7052004F052FBD6E700BF5C120020FD
:104290006C1200208012002070120020BFF34F8F9C
:1042A0000449054BCA6802F4E0621343CB60BFF3D4
:1042B0004F8FFEE700ED00E00400FA052DE9F04F16
:1042C0000E4609780546435C17462D2B83B0014402
:1042D00067D02B2B20D0002201F10109019200228E
:1042E0001446924610460EE00134E4B2082C19D868
:1042F0001AB10AF1FF3A4FFA8AFA00EB800003EB99
:10430000400019F8013B303BDBB2092BECD9FE2B06
:104310000FD172B90122F4E7002301F102090193E0
:104320004B78DCE7002AECD10AF1010A4FFA8AFA4D
:10433000E7E794B3FCF756FA00218346FCF73EFC0E
:10434000F8B9BAF1FF3F16DA5446DFF894805846C0
:104350004146FCF79FFA023464B2631C8346F6DBE5
:104360005FFA8AFACAF1FE0303F0FE039A440AF1E7
:10437000020A4FFA8AFABAF1FF3F26D0BAF1000FCB
:1043800015D1019B13B10BF1004083460124A9EB29
:104390000505013DC7F800B03570204603B0BDE803
:1043A000F08F01224B7801F10209019297E70A4C44
:1043B00058462146FCF76EFA0AF1FF3313F0FF0F5F
:1043C00083464FFA83FAF3D1DBE758460349FCF7FB
:1043D00061FA8346D5E700BF00002041CDCCCC3D3B
:1043E0000AD7233C70B50D461849FCF753FA04F080
:1043F000C9FDFCF751FC80B2A8B1441EA4B29DB126
:104400004FF6FF76124D0BE001F05EF9AB789B079B
:1044100009D4013C3220A4B2FFF79EFCB44202D082
:104420006B78002BF0D070BD4FF6FF76084D08E09A
:10443000013C01F015FCA4B23220FFF78DFCB44220
:10444000F1D06B78002BF3D070BD00BF0000A0410D
:104450005C12002060B138B54FF6FF75441EA4B25F
:10446000013C0120A4B2FFF777FCAC42F8D138BD83
:10447000704700BF10B50C460146FCF70BFA214609
:1044800004460846FCF706FA01462046FCF7FAF80F
:10449000BDE8104004F090BEF8B50768044600215E
:1044A0003846FCF78BFB002851D139463846FCF7DB
:1044B000F1F90546666800213046FCF77FFB40B9FC
:1044C00031463046FCF7E6F901462846FCF7DAF8B3
:1044D0000546A66800213046FCF770FB40B931461E
:1044E0003046FCF7D7F901462846FCF7CBF80546DD
:1044F000E66800213046FCF761FB40B931463046A2
:10450000FCF7C8F901462846FCF7BCF805462846E2
:1045100004F052FE06464FF07E503146FCF76EFA2C
:1045200039460546FCF7B6F9294620606068FCF775
:10453000B1F929466060A068FCF7ACF92946A06093
:10454000E068FCF7A7F903463046E360F8BD3D4656
:10455000B0E700BFF8B50D680C46064600212846B6
:10456000FCF72CFB002840D129463068FCF746FABE
:1045700020F0004528462149FCF734FB002834D0C0
:10458000676800213846FCF719FB50B93946706856
:10459000FCF734FA20F0004739462846FCF722FBA6
:1045A00050B3A76800213846FCF708FB50B93946DC
:1045B000B068FCF723FA20F0004739462846FCF79C
:1045C00011FBB8B1E46800212046FCF7F7FA50B9B6
:1045D0002146F068FCF712FA20F0004421462846F4
:1045E000FCF700FB18B12846F8BD044DC8E7254686
:1045F0002846F8BD3D46E5E73D46D2E7FFFF7F7F11
:104600002DE9F04F7A4B83B01B780093002B00F01C
:10461000AE80784A03F1FF3814785FFA88F8444591
:10462000019200F0A1803426734D06FB0856716A92
:10463000306AFCF72FF90146FCF724F8D6F81CA0E5
:1046400081465146FCF7CEFA06F11803002800F027
:10465000C0804FF0230BC3F80090B8F1000F40F07A
:10466000C1805C4500F0A1804FF034085F4627E030
:10467000DFB2624B08FB09591B78BB422ED0D9F838
:104680001CA0D9F818005146FCF798FAB0B9D9F82F
:104690002410D9F82000FCF7FDF80146FBF7F2FFE3
:1046A000DBF81810FBF7EEFF834650465946FCF73F
:1046B000ADFA002800F08580C9F818B0A74212D0E2
:1046C000B346B94608FB07567B1E002FD0D12327DF
:1046D0004A4B08FB09591B78BB42D0D103F084F93F
:1046E000019B1C78CBE7424B1B780093661CF6B20B
:1046F000242E08BF00264FF03409009B09FB045A02
:104700009E4231D009FB0658DAF818B0D8F8187074
:1047100059463846FCF77AFAA0B1DAF82010DAF8F0
:104720002400FCF7B7F80146FBF7ACFF5946FBF74E
:10473000A9FF39468246FCF74BFA18B15746344672
:10474000C8F818A009FB06533946D869FCF736FAB1
:10475000731C002818BF3446DEB2242E009B33D0D1
:104760009E4234D1019B1C7003B0BDE8F08F214BF9
:104770001C780193232CF7D01F4DD5F83C17D5F8A2
:104780004007FCF787F80146FBF77CFFD5F8388730
:1047900006464146FCF726FAE8B14FF0220BC5F871
:1047A0003467174E5C457FF45FAF144B1B78A34210
:1047B0009CD103F019F90E4B1B780093019B1C78D8
:1047C00094E7C9F818A079E7002BCBD00026C246A1
:1047D00098E7D1463DE746464FF0220BC5F83467CF
:1047E000074EDFE7009B023B5FFA83FB39E700BF20
:1047F000BC0B0020BD0B00206C040020BE0B002071
:10480000880B002038B524220021074804F00AFB59
:10481000002301210548064A064D074C037011701C
:104820002B70237038BD00BFC00B0020BD0B0020D3
:10483000BF0B0020BE0B0020BC0B00200A490B4B15
:104840000A781B7893420DD0531CDBB2242B08BF8F
:10485000002310B406480B700478944208BF03701C
:1048600010BC7047704700BFBE0B0020BC0B00207F
:10487000BD0B00203420034A034B127800FB0230AA
:10488000704700BFBC0B00206C040020054B064A9B
:104890001B7812789A421DBF3422044802FB0300A1
:1048A00000207047BE0B0020BC0B00206C040020D1
:1048B000094B0A4A1B7812780133DBB2242B08BF5C
:1048C00000239A4205D03421054A01FB032398694D
:1048D00070470020704700BFBE0B0020BC0B0020BB
:1048E0006C040020044A054B10781B78C01AB0FAFB
:1048F00080F04009704700BFBE0B0020BF0B0020B6
:1049000038B5837D056BDA0714D5164B587AFBF75B
:104910006DFF1549FBF7BEFF2946FBF7BBFF0446B9
:104920004FF07E512046FCF767F908B94FF07E54EE
:10493000204638BD5B0704460BD40A4B187AFBF7B8
:1049400055FF0949FBF7A6FF01462846FBF7A2FFE2
:104950000546E46A29462046FCF744F90028DFD1E1
:104960002C46DDE75C1200200AD7233C2DE9F04FEE
:10497000394A3A4B15781B7885B09D42019365D032
:10498000374C4FF0340A207AFBF730FF3549FBF7FC
:1049900081FF0346607A0393FBF728FF3149FBF759
:1049A00079FF4FF07E59DFF8C080DFF8C4B0029085
:1049B00024E039460298FBF76DFF0446494620463D
:1049C000FCF71AF900B94C4621464046FCF700F9BD
:1049D000B76A002834D041464046FBF75BFF80466B
:1049E00041463846FCF7F4F800B30135EDB2242D0A
:1049F000019BF76121D0AB4229D0A0460AFB05B646
:104A0000B37D376BDA07D4D45B0704D438460399F7
:104A1000FBF740FF07460AFB05B3DC6A3946204630
:104A2000FCF7E0F80028C9D13C46C7E70135EDB2F4
:104A3000242D019BC6F81C80DDD143B10025DCE7A5
:104A400021462046FBF726FF8046C9E7064C074B68
:104A50001C6205B0BDE8F08FBE0B0020BC0B00202F
:104A60005C1200200AD7233CFFFF7F7FC00B002091
:104A70006C04002034222DE9F04F8A468346DFF88B
:104A80001893B94C99F8005097B002FB05460021E5
:104A9000304604F0C7F99AF808300AAF9807B375A2
:104AA0004CBFB24BB24BD6F810800FCB87E80F004B
:104AB000B04FDBF800103A6810460192FBF7EAFEAF
:104AC00004F016FB01460A983423081A80EAE07CB9
:104AD000ACEBE07CE04538BFE04603FB05F344F86F
:104AE00003C02344C3F8108002930691FBF77EFEB7
:104AF000019A1146FBF782FF00210E90FCF768F83F
:104B000028B1029B9C4A998A12880A439A827A6841
:104B1000DBF8041010460192FBF7BCFE04F0E8FA43
:104B200001460B983423081A80EAE07CACEBE07C69
:104B3000E04538BFE04603FB0543C3F804C0C3F8B3
:104B4000108002930791FBF751FE019A1146FBF783
:104B500055FF00210F90FCF73BF828B1029B8649D6
:104B60009A8A49880A439A82BA68DBF80810104684
:104B70000192FBF78FFE04F0BBFA01460C98342338
:104B8000081A80EAE07CACEBE07CE04538BFE04608
:104B900003FB0543C3F808C0C3F8108002930891D3
:104BA000FBF724FE019A1146FBF728FF0021109025
:104BB000FCF70EF828B1029B6F499A8A89880A434C
:104BC0009A82FB68DBF80C1018460193FBF762FE33
:104BD00004F08EFA02460D984FF0340B101A80EA5A
:104BE000E071A1EBE071884538BF88460BFB054BAF
:104BF000CBE903180992FBF7F9FD019B1946FBF776
:104C0000FDFE00211190FBF7E3FF30B9B8F1000F72
:104C10000DD1404617B0BDE8F08F574BBBF81420BC
:104C2000DB881343ABF81430B8F1000FF1D00DF16D
:104C300038084046FFF730FC4FF0340B03460BFBBF
:104C4000054B4146CBF824304C48FFF783FC034624
:104C50004146CBF820304A48FFF77CFC9BF81630E1
:104C6000CBF82C00D9076CD5CBF83000454A99F821
:104C700000101278914202D09B0740F18F803423BC
:104C8000002203FB05439A619A62342303FB054328
:104C90009A7D900764D4D1071F6B00F1E880530719
:104CA0000AD4394B187AFBF7A1FD3946FBF7F2FD20
:104CB0003649FBF7EFFD0746342303FB0544E46A5E
:104CC00039462046FBF78EFF00B93C464FF07E5137
:104CD0002046FBF791FF08B94FF07E54244D214642
:104CE0002F6AD6F828A03846FBF772FF002800F09C
:104CF000CD8039463846FBF7CDFD0746394650464C
:104D0000FBF766FF002840F0BE80F761204A214E85
:104D100011782C624B1CDBB2242B08BF002306AC9D
:104D200089F80010137098E80F0086E80F0094E8E7
:104D30000F0085E80F00FFF763FC012017B0BDE806
:104D4000F08FDAF800101A07CBF830108ED5DBF8A8
:104D500024000193FBF79EFD019BCBF8300085E713
:104D6000012017B0BDE8F08F6C04002080120020F5
:104D7000C00B002094150020C0A20008B41500202C
:104D8000A4150020BE0B00205C1200200AD7233C93
:104D9000BF0B0020D00B0020BC0B0020DFF8A8A127
:104DA000DDF838B0DAF81030594618460193FBF7B1
:104DB00071FD0246019B584619460192FBF760FCC3
:104DC0000246DAF81430DDF83CB019465846129223
:104DD0000293FBF75FFD019B0146049003F1004045
:104DE000FBF74EFC0246029B584619469346FBF7DA
:104DF00047FC8446DAF81830109A19461046039397
:104E00000292CDF84CC0FBF745FD0146059058468F
:104E1000FBF736FC8446039B029A19461046CDF8F0
:104E20000CC0FBF72DFC8446119ADAF81CA0114641
:104E300050460292CDF850C0FBF72CFD8346039BF1
:104E400059461846FBF71CFC029A5146824610460A
:104E5000FBF716FC0346364950461593FBF7D6FE82
:104E6000D0B13423002203FB05439A620DE7314B96
:104E7000587AFBF7BBFC3946FBF70CFD2E49FBF7D4
:104E800009FD044622E7C6F81CA03FE7214620465C
:104E9000FBF700FD074631E750462849FBF798FE2F
:104EA00028B1342303FB0543254A9A62EDE612A894
:104EB000FFF7F2FA12A92348FFF74CFB03460199CA
:104EC00004980193FBF7DEFB0599FBF7DBFB4FF042
:104ED0007E5182465846FBF7D5FB01465046FBF70C
:104EE000D1FB4FF07C51FBF7D5FC04F065F982460D
:104EF000019B51461846FBF7CDFCB96CFBF7CAFC89
:104F0000514607464FF07E50FBF7BAFB0146384644
:104F1000FBF774FD4FF0340B002107460BFB054BEC
:104F2000FBF76AFE00B90027CBF82870ADE600BF9A
:104F3000EFFF7F3F5C1200200AD7233CEFFF7FBFCB
:104F4000FFFF7F7FB4150020C00B0020064A074BEF
:104F500010B4D2E90004D2E90212C3E90004C3E9A3
:104F6000021210BC704700BF80120020C00B00204E
:104F7000064A074B12781B789A4233BF03F1FF3081
:104F80002333981A801AC0B2704700BFBC0B0020B0
:104F9000BE0B002008B502F027FD044A044B12782E
:104FA0001A70BDE80840FFF72BBB00BFBE0B002006
:104FB000BD0B002010B50446007828B101F0FAFDC1
:104FC00014F8010F0028F9D110BD00BF6328F8B50F
:104FD00004461DD91B4EA6FB0035EF08A6FB07367D
:104FE000F60806F1300006EB8606A7EB460601F050
:104FF000E1FD06F13000C0B201F0DCFD07EB8700F7
:10500000A4EB40003030C0B2BDE8F84001F0D2BDA2
:10501000092806D804F13000C0B2BDE8F84001F01C
:10502000C9BD0A26B4FBF6F505F13000C0B201F0A7
:10503000C1FD06FB1540BDE8F8403030C0B201F0BC
:10504000B9BD00BFCDCCCCCC30B30022F0B5144FED
:1050500085B014460546A7FB0023DB0803EB83015C
:10506000A0EB410104A80619621C092D1846D2B212
:1050700006F80C1CEDD86AB10DF103039D1801ABC5
:105080002D1B9C1814F8010D3030C0B201F092FDB8
:10509000A542F7D105B0F0BD302001F08BBD00BFB7
:1050A000CDCCCCCCF0B50D4685B000210646FBF743
:1050B0008FFD002840F0D280012D40F2D7802C4691
:1050C000704F30463946FBF7E5FB023CE4B2012C59
:1050D0000646F6D805F0010323B130466A49FBF7CE
:1050E000D9FB06464FF07C513046FBF7CBFAFBF775
:1050F000ADFD002800F0BC800024644F0246A7FBF1
:105100000013DB0803EB8301A0EB410004A900F1CD
:1051100030062144092A04F10104184601F8106CF4
:10512000E4B2EBD8A54272D93022631CDBB204A9E9
:1051300021449D4201F8102C61D9A01CC0B204A9E1
:105140001944854201F8102C59D9E11C04AEC9B2AA
:105150003044A94200F8102C51D2201DC0B2314475
:10516000A84201F8102C4AD2611DC9B230448D42C8
:1051700000F8102C43D9A01DC0B23144854201F87B
:10518000102C3CD9E11DC9B230448D4200F8102CDE
:1051900035D904F10800C0B23144854201F8102C21
:1051A0002DD904F10901C9B230448D4200F8102C08
:1051B00025D904F10A00C0B23144854201F8102C0F
:1051C0001DD9164604F10B0204A9D2B20844954237
:1051D00000F8106C13D904F10C0104A8C9B2024400
:1051E0008D4202F8106C0AD904F10D02D2B20144CA
:1051F000954201F8106C02D9024402F8106C6A1E44
:10520000141B9D4238BF00241C4404F0FF04A54237
:105210001CD06CB16F1E0DEB0406FFB2A54209D085
:1052200016F8010D013C01F0C5FC14F0FF04F5D1A6
:1052300005B0F0BD2E2001F0BDFC16F8010D01F007
:10524000B9FC3C46002FE9D105B0F0BD302204ABDB
:105250006C1C2B4403F8102CE4B2DAE72D2001F08B
:10526000A9FC012D06F100463FF629AF2B4633E796
:105270000446002D7FF458AF302301248DF8003010
:10528000C8E700BF0000C84200002041CDCCCCCC14
:10529000F0B57F4B85B093F8584014F0010473D0FB
:1052A0007C49FBF7F7FA00210546FBF791FC002843
:1052B00040F0CD8078492846FBF7ECFA4FF07C515E
:1052C000FBF7E0F9FBF7C2FC002800F0C6800025E0
:1052D000DFF8CCC12A460146ACFB0043DB0803EBF8
:1052E0008304A0EB440000F1300704A886180135C0
:1052F00009291846EDB206F8107CEBD8032D23D807
:105300003021941CE4B204AB2B44042C03F8101C91
:1053100000F0B6800332D2B204AB2344042A03F86F
:10532000101C00F0B380302304A91144022A01F8B4
:10533000103C01D18DF80330042CC5F1030588BF62
:1053400000252C4404F0FF05042D03D1302305254E
:105350008DF804306E1EF6B208E013F8110C01F05F
:1053600029FC7EB1013D013EEDB2F6B204AB042D45
:105370002B44F2D12E2001F01DFC9DF8030001F01A
:1053800019FCEFE705B0F0BD00210546FBF720FC56
:10539000002869D141492846FBF77CFA4FF07C513F
:1053A000FBF770F9FBF752FC002864D03C4F224613
:1053B0000146A7FB0043DB0803EB8304A0EB44009A
:1053C00000F1300604A88518541C09291846E4B2D7
:1053D00005F8106CEBD8022C1AD83020931CDBB2E5
:1053E00004A92144032B01F8100C4BD004A90B4451
:1053F000FF2A03F8100C47D1302201238DF8022038
:10540000032BC4F1020488BF00241C4404F0FF04F1
:10541000032C03D1302304248DF80330651EEDB234
:1054200009E013F8110C01F0C5FB002DAAD0013CD6
:10543000013DE4B2EDB204AB032C2344F1D12E20A4
:1054400001F0B8FB9DF8020001F0B4FBEFE72D205E
:1054500001F0B0FB05F100452CE743F230030546AF
:105460000222ADF800305EE72D2001F0A3FB05F12C
:10547000004005468EE743F23003ADF80030BBE74D
:10548000032559E70224BBE70223B9E7032453E7C6
:10549000941500208B42213D00401C4600007A44B8
:1054A000CDCCCCCCF0B54A4B85B093F8584014F035
:1054B000010446D04749FBF7EDF900210446FBF70C
:1054C00087FB00286DD144492046FBF7E3F94FF0F4
:1054D0007C51FBF7D7F8FBF7B9FBB8B100243F4E7E
:1054E0000246A6FB0013DB0803EB8301A0EB41009F
:1054F00004A900F130052144092A04F101041846E9
:1055000001F8105CE4B2EBD8002C5DD130238DF8AB
:105510000030302302248DF8013004AB2344013CD9
:1055200013F8110CE4B201F045FB012CF5D12E204B
:1055300001F040FB9DF8000005B0BDE8F04001F02F
:1055400039BB00210546FBF743FBB0BB4FF07C5154
:105550002846FBF797F8FBF779FB40B31F4F22462D
:105560000146A7FB0043DB0803EB8304A0EB4400E8
:1055700000F1300604A88518541C09291846E4B225
:1055800005F8106CEBD894B10DF1FF331D19AD1A6D
:105590006C4414F8010D01F00DFBA542F9D105B0E2
:1055A000F0BD2D2001F006FB04F100448BE7302014
:1055B00005B0BDE8F04001F0FDBA2D2001F0FAFA87
:1055C00005F100400546C1E7012CA6D1A1E700BFC7
:1055D000941500208B42213D00002041CDCCCCCC45
:1055E00000B5012183B00820FBF7ACFF094B01A9EE
:1055F00009480193FBF772FD0021084A084B92F914
:10560000582019808A42A4BF4FF400721A8003B058
:105610005DF804FB00020348000C014094150020D3
:105620009212002000230749074A91F9581013806D
:105630009942AABF4FF400714FF40073118000B17A
:1056400013807047941500209212002008B5054879
:10565000FBF7CAFE044B00F400701B88181A18BF31
:10566000012008BD000C01409212002038B50B4803
:10567000FBF7BAFE0A4B00F400701B8883420CD083
:105680000021084A084D094B094C11700FCB84E8E2
:105690000F002B7843F040032B7038BD000C014005
:1056A000921200206C1200206B1200208012002049
:1056B0007012002008B5FFF7E9F820B1BDE80840F6
:1056C000022003F01FB908BD70B5B34B1B78002B47
:1056D00040F08380B14CB24D2B7803F0FF0593B3BB
:1056E000E80600F1D780E90700F1F18015F0E80F36
:1056F0000AD023789A0700F0FB806EB2002EC0F229
:105700003281E82003F008F9A80719D515F0680FD1
:1057100013D12378402B00F06781002B40F04D819E
:1057200000232371FFF7B2F820B1A37813F04003F0
:1057300000F08F810023A3702370022003F0ECF8A7
:10574000690700F1AA80974B1B7803F0FF05002B37
:1057500065D1954B1B7803F0FF0523B9237813F02F
:10576000FC0F36D170BD03F00DF9A27A15F0010FD0
:105770000CBF13466423A90744BF0A33DBB26E078C
:1057800044BF0A3BDBB2280744BF0133DBB2E90662
:1057900044BF03F1FF33DBB2C82B28BFC8230A2B59
:1057A00038BF0A239A4206D000212279A37242F020
:1057B000080323712173AE0623781DD5102B1BD14E
:1057C000E37A002B40F019810223E37215F0C00F39
:1057D00018D1BDE8704002F01DB9012603F0FF05A5
:1057E0006E4C2846013D267000F02CFBB54274D962
:1057F0006B4D03F0A3F86FE715F0C00FAFD0002B8F
:1058000040F0ED80694E357A690640F1B28005F0CE
:10581000BF052846FBF7BCFF237835729FE703F0EE
:10582000A9F8217A15F0010F0CBF0B466423AE07CF
:1058300044BF0A33DBB2680744BF0A3BDBB22E0722
:1058400044BF0133DBB2E80644BF03F1FF33DBB2F0
:10585000C82B28BFC8230A2B38BF0A23607A15F04B
:10586000200F14BF6422024615F0400F18BF3222E9
:1058700015F0800F18BF1922994202D182423FF4DD
:1058800068AF0021237262722173FFF76FF8FFF790
:1058900081FB5EE70123637070BD237813F0D00FA6
:1058A00002D0E378002B67D094F90220A378002A75
:1058B00066DB13F0200253D0402203F07F0343F055
:1058C0000103A3702270042003F026F83BE700F0E8
:1058D00067FF012003F020F808E7304600F0C8FA1F
:1058E000102003F019F82E4D2B78DE06FCD580E74A
:1058F00013F0280F0ED0A27812F0C00F00F097809E
:105900006AB2164668060FD599060DD4A17841F003
:10591000400107E0002BF3D101226E06A27073D57F
:1059200041216AB21646A170280702D513F0E00F94
:105930006DD0A9067FF5E2AE062000F099FA94F941
:105940000220A378002A07DB2278402A00F090800A
:10595000802A01D04022227043F02003A370CDE6BC
:10596000A2702270AFE72378012B21D0802323700F
:10597000C7E645F040054CE794F90230002B49DAC0
:1059800000232371FEF73EFF01F014FFFBF7CAFF6F
:10599000FFF7DCFAA3788CE7901200205C1200205D
:1059A0006B120020581200206A120020C011002043
:1059B000A37843F00503A370D8E7DA067FF5BDAE00
:1059C000A278D0077FF5B9AE102B7FF4A9AEE37AA9
:1059D000002B3FF4A5AE43F00803E372ADE613F0ED
:1059E000180F3FF4BCAE0DE7A37813F020027FF44C
:1059F000A4AED90635D5227092E6D8077FF5E6AE7B
:105A000043F00403E372E1E62B076EB291D5102355
:105A100023708EE7FFF7BEFA23799A0703D5A278A1
:105A200042F00102A27023F0060323714BE701F05C
:105A3000DBFF022223782271202B7FF46BAF6AB246
:105A4000002A1646FFF65EAFA17861F07F01A170D3
:105A500058E70822A370227001F0DCFF01F0B2FCCD
:105A60006BE65E077FF569AE43F00803A37064E65A
:105A70001A077FF56FAF23F01C0343F0020369E7B9
:105A80002DE9F041FEF702FF002800F0C380867D7B
:105A9000704CA378002B40D04FF07E574FF08148D8
:105AA0006D4D6278002A38D1DA0731D5227812F0AC
:105AB000C00F34D013F0040151D0802A00F0B5801B
:105AC000402A00F09180180722D56A7A012A7DD0F9
:105AD00099071DD4614A92F8582092076DD5227912
