:020000040800F2
:100000000050002045720008418C0008458C000813
:10001000498C00084D8C0008518C0008000000003D
:10002000000000000000000000000000558C0008E7
:10003000598C0008000000005D8C000895720008D3
:100040009572000895720008957200089572000874
:100050009572000895720008957200089572000864
:100060009572000895720008957200089572000854
:100070009572000895720008957200089572000844
:100080009572000895720008957200089572000834
:10009000957200089572000895720008E5810008C5
:1000A0009572000895720008957200089572000814
:1000B00099730008DD7500089572000895720008B4
:1000C00095720008957200089572000895720008F4
:1000D00095720008FD6A000895720008A16C00087E
:1000E0009132000895720008957200080000000027
:1000F0000000000000000000000000000000000000
:0C01000000000000000000005FF808F1A3
:1001100010B5054C237833B9044B13B10448AFF341
:1001200000800123237010BD500400200000000057
:10013000589F000808B5034B1BB103490348AFF3B0
:10014000008008BD0000000054040020589F0008F3
:1001500081F0004102E000BF83F0004330B54FEA78
:1001600041044FEA430594EA050F08BF90EA020FE5
:100170001FBF54EA000C55EA020C7FEA645C7FEA78
:10018000655C00F0E2804FEA5454D4EB5555B8BF9B
:100190006D420CDD2C4480EA020281EA030382EA0C
:1001A000000083EA010180EA020281EA0303362D9E
:1001B00088BF30BD11F0004F4FEA01314FF4801C71
:1001C0004CEA113102D0404261EB410113F0004F83
:1001D0004FEA03334CEA133302D0524263EB43033A
:1001E00094EA050F00F0A780A4F10104D5F1200ED8
:1001F0000DDB02FA0EFC22FA05F2801841F1000133
:1002000003FA0EF2801843FA05F359410EE0A5F106
:1002100020050EF1200E012A03FA0EFC28BF4CF037
:10022000020C43FA05F3C01851EBE37101F00045ED
:1002300007D54FF0000EDCF1000C7EEB00006EEBFA
:100240000101B1F5801F1BD3B1F5001F0CD3490884
:100250005FEA30004FEA3C0C04F101044FEA4452DB
:1002600012F5800F80F09A80BCF1004F08BF5FEA62
:10027000500C50F1000041EB045141EA050130BD42
:100280005FEA4C0C404141EB0101013C28BFB1F554
:10029000801FE9D291F0000F04BF01460020B1FA9F
:1002A00081F308BF2033A3F10B03B3F120020CDA72
:1002B0000C3208DD02F1140CC2F10C0201FA0CF050
:1002C00021FA02F10CE002F11402D8BFC2F1200CB5
:1002D00001FA02F120FA0CFCDCBF41EA0C0190406B
:1002E000E41AA2BF01EB0451294330BD6FEA0404B4
:1002F0001F3C1CDA0C340EDC04F11404C4F120029F
:1003000020FA04F001FA02F340EA030021FA04F3B0
:1003100045EA030130BDC4F10C04C4F1200220FA07
:1003200002F001FA04F340EA0300294630BD21FA45
:1003300004F0294630BD94F0000F83F4801306BF0B
:1003400081F480110134013D4EE77FEA645C18BFFF
:100350007FEA655C29D094EA050F08BF90EA020F96
:1003600005D054EA000C04BF1946104630BD91EA8E
:10037000030F1EBF0021002030BD5FEA545C05D191
:100380004000494128BF41F0004130BD14F58004D0
:100390003CBF01F5801130BD01F0004545F0FE4144
:1003A00041F470014FF0000030BD7FEA645C1ABF79
:1003B000194610467FEA655C1CBF0B46024650EAB0
:1003C000013406BF52EA033591EA030F41F40021DC
:1003D00030BD00BF90F0000F04BF0021704730B562
:1003E0004FF4806404F132044FF000054FF0000137
:1003F00050E700BF90F0000F04BF0021704730B5F8
:100400004FF4806404F1320410F0004548BF4042CC
:100410004FF000013EE700BF42004FEAE2014FEA21
:1004200031014FEA02701FBF12F07F4393F07F4FFC
:1004300081F06051704732F07F4208BF704793F0FF
:100440007F4F04BF41F40021704730B54FF4607412
:1004500001F0004521F000411CE700BF50EA010215
:1004600008BF704730B54FF000050AE050EA0102BE
:1004700008BF704730B511F0004502D5404261EB2E
:1004800041014FF4806404F132045FEA915C3FF46F
:10049000D8AE4FF003025FEADC0C18BF03325FEA0C
:1004A000DC0C18BF033202EBDC02C2F1200300FABD
:1004B00003FC20FA02F001FA03FE40EA0E0021FAE2
:1004C00002F11444BDE600BF4FF0FF3C06E000BF60
:1004D0004FF0010C02E000BF4FF0010C4DF804CDCD
:1004E0004FEA410C7FEA6C5C4FEA430C18BF7FEA8D
:1004F0006C5C1BD001B050EA410C0CBF52EA430CBB
:1005000091EA030F02BF90EA020F0020704710F13A
:10051000000F91EA030F58BF994208BF90422CBFC9
:10052000D8176FEAE37040F0010070474FEA410CC2
:100530007FEA6C5C02D150EA013C07D14FEA430CE0
:100540007FEA6C5CD6D152EA033CD3D05DF8040B51
:10055000704700BF8446104662468C461946634683
:1005600000E000BF01B5FFF7B7FF002848BF10F15A
:10057000000F01BD4DF808EDFFF7F4FF0CBF01209F
:1005800000205DF808FB00BF4DF808EDFFF7EAFF1B
:1005900034BF012000205DF808FB00BF4DF808EDD6
:1005A000FFF7E0FF94BF012000205DF808FB00BFCB
:1005B0004DF808EDFFF7CEFF94BF012000205DF855
:1005C00008FB00BF4DF808EDFFF7C4FF34BF012062
:1005D00000205DF808FB00BF4FEA4102B2F1E043A2
:1005E00024BFB3F5001CDCF1FE5C0DD901F0004C1A
:1005F0004FEAC0024CEA5070B2F1004F40EB83006A
:1006000008BF20F00100704711F0804F21D113F195
:100610003872BCBF01F00040704741F480114FEACE
:100620005252C2F11802C2F1200C10FA0CF320FA57
:1006300002F018BF40F001004FEAC1234FEAD32374
:1006400003FA0CFC40EA0C0023FA02F34FEA4303DE
:10065000CCE77FEA625307D150EA01331EBF4FF067
:10066000FE4040F44000704701F0004040F0FE4082
:1006700040F40000704700BF80F0004002E000BF7F
:1006800081F0004142001FBF5FEA410392EA030F7D
:100690007FEA226C7FEA236C6AD04FEA1262D2EBC7
:1006A0001363C1BFD218414048404140B8BF5B42CC
:1006B000192B88BF704710F0004F40F4000020F065
:1006C0007F4018BF404211F0004F41F4000121F07B
:1006D0007F4118BF494292EA030F3FD0A2F10102C5
:1006E00041FA03FC10EB0C00C3F1200301FA03F103
:1006F00000F0004302D5494260EB4000B0F5000F26
:1007000013D3B0F1807F06D340084FEA310102F1E4
:100710000102FE2A51D2B1F1004F40EBC25008BF96
:1007200020F0010040EA03007047490040EB000060
:10073000013A28BFB0F5000FEDD2B0FA80FCACF161
:10074000080CB2EB0C0200FA0CF0AABF00EBC2508E
:1007500052421843BCBFD0401843704792F0000F7C
:1007600081F4000106BF80F400000132013BB5E7CF
:100770004FEA41037FEA226C18BF7FEA236C21D045
:1007800092EA030F04D092F0000F08BF08467047AA
:1007900090EA010F1CBF0020704712F07F4F04D178
:1007A000400028BF40F00040704712F100723CBF8B
:1007B00000F50000704700F0004343F0FE4040F4B5
:1007C000000070477FEA226216BF08467FEA236373
:1007D0000146420206BF5FEA412390EA010F40F45E
:1007E000800070474FF0000304E000BF10F00043AA
:1007F00048BF40425FEA000C08BF704743F0964391
:1008000001464FF000001CE050EA010208BF7047AB
:100810004FF000030AE000BF50EA010208BF704732
:1008200011F0004302D5404261EB41015FEA010C47
:1008300002BF84460146002043F0B64308BFA3F13F
:100840008053A3F50003BCFA8CF2083AA3EBC25321
:1008500010DB01FA02FC634400FA02FCC2F1200240
:10086000BCF1004F20FA02F243EB020008BF20F077
:100870000100704702F1200201FA02FCC2F12002DD
:1008800050EA4C0021FA02F243EB020008BF20EAD2
:10089000DC7070474FF0FF0C1CEAD0521EBF1CEA00
:1008A000D15392EA0C0F93EA0C0F6FD01A4480EAEE
:1008B000010C400218BF5FEA41211ED04FF00063D7
:1008C00043EA501043EA5111A0FB01310CF0004003
:1008D000B1F5000F3EBF490041EAD3715B0040EA29
:1008E000010062F17F02FD2A1DD8B3F1004F40EBF9
:1008F000C25008BF20F00100704790F0000F0CF0CC
:10090000004C08BF49024CEA502040EA51207F3A8F
:10091000C2BFD2F1FF0340EAC250704740F400006A
:100920004FF00003013A5DDC12F1190FDCBF00F05B
:1009300000407047C2F10002410021FA02F1C2F109
:10094000200200FA02FC5FEA310040F1000053EAA5
:100950004C0308BF20EADC70704792F0000F00F0F3
:10096000004C02BF400010F4000F013AF9D040EAF9
:100970000C0093F0000F01F0004C02BF490011F48D
:10098000000F013BF9D041EA0C018FE70CEAD1538B
:1009900092EA0C0F18BF93EA0C0F0AD030F0004C0B
:1009A00018BF31F0004CD8D180EA010000F00040BF
:1009B000704790F0000F17BF90F0004F084691F07D
:1009C000000F91F0004F14D092EA0C0F01D14202B7
:1009D0000FD193EA0C0F03D14B0218BF084608D180
:1009E00080EA010000F0004040F0FE4040F40000CA
:1009F000704740F0FE4040F4400070474FF0FF0C5D
:100A00001CEAD0521EBF1CEAD15392EA0C0F93EAA3
:100A10000C0F69D0A2EB030280EA010C49024FEAF5
:100A2000402037D04FF0805343EA111143EA1013AE
:100A30000CF000408B4238BF5B0042F17D024FF466
:100A4000000C8B4224BF5B1A40EA0C00B3EB510F41
:100A500024BFA3EB510340EA5C00B3EB910F24BF2A
:100A6000A3EB910340EA9C00B3EBD10F24BFA3EBAF
:100A7000D10340EADC001B0118BF5FEA1C1CE0D177
:100A8000FD2A3FF650AF8B4240EBC25008BF20F02A
:100A9000010070470CF0004C4CEA50207F32C2BF7E
:100AA000D2F1FF0340EAC250704740F400004FF01B
:100AB0000003013A37E792F0000F00F0004C02BF4C
:100AC000400010F4000F013AF9D040EA0C0093F016
:100AD000000F01F0004C02BF490011F4000F013B70
:100AE000F9D041EA0C0195E70CEAD15392EA0C0FD8
:100AF00008D142027FF47DAF93EA0C0F7FF470AF10
:100B0000084676E793EA0C0F04D14B023FF44CAF52
:100B100008466EE730F0004C18BF31F0004CCAD1E7
:100B200030F000427FF45CAF31F000437FF43CAF23
:100B30005FE700BF4FF0FF3C06E000BF4FF0010C45
:100B400002E000BF4FF0010C4DF804CD4FEA400227
:100B50004FEA41037FEA226C18BF7FEA236C11D071
:100B600001B052EA530C18BF90EA010F58BFB2EB24
:100B7000030088BFC81738BF6FEAE17018BF40F0A4
:100B8000010070477FEA226C02D15FEA402C05D158
:100B90007FEA236CE4D15FEA412CE1D05DF8040BDD
:100BA000704700BF844608466146FFE70FB5FFF770
:100BB000C9FF002848BF10F1000F0FBD4DF808ED28
:100BC000FFF7F4FF0CBF012000205DF808FB00BF19
:100BD0004DF808EDFFF7EAFF34BF012000205DF873
:100BE00008FB00BF4DF808EDFFF7E0FF94BF0120C0
:100BF00000205DF808FB00BF4DF808EDFFF7D2FFBD
:100C000094BF012000205DF808FB00BF4DF808EDFF
:100C1000FFF7C8FF34BF012000205DF808FB00BFCC
:100C20004FEA40024FEA41037FEA226C02D15FEAB9
:100C3000402C08D17FEA236C02D15FEA412C02D11B
:100C40004FF0000070474FF0010070474FEA40023C
:100C5000B2F1FE4F0FD34FF09E03B3EB12620DD9EA
:100C60004FEA002343F0004310F0004F23FA02F054
:100C700018BF404270474FF00000704712F1610FFB
:100C800001D1420205D110F0004008BF6FF00040D2
:100C900070474FF00000704742000ED2B2F1FE4F95
:100CA0000BD34FF09E03B3EB126209D44FEA00233B
:100CB00043F0004323FA02F070474FF00000704702
:100CC00012F1610F01D1420202D14FF0FF307047A3
:100CD0004FF00000704700BF034B40F0BF6040F48E
:100CE0000030D860704700BF00ED00E0C378FBB172
:100CF000154A0F23D2680121D24330B4C2F3022235
:100D00004478C2F1040523FA02F28378AC40134020
:100D1000234302780D481B0102F01F058418DBB243
:100D2000A94084F80033520940F8221030BC7047C3
:100D30000121037805485A0903F01F03203201FA04
:100D400003F340F82230704700ED00E000E100E0DE
:100D5000436830B423F470230C790A6823F4807359
:100D600043EA04231343436085680A4AD1E90243F6
:100D70002A4023434C79134343EA440383600A7CAB
:100D8000C36A013AD2B223F4700343EA0253C36246
:100D900030BC7047FDF7F1FF836819B143F00103E0
:100DA0008360704723F0010383607047836843F0DA
:100DB00008038360704700BF8068C0F3C0007047BD
:100DC000836843F004038360704700BF8068C0F30A
:100DD00080007047836819B143F4A00383607047B3
:100DE00023F4A00383607047092970B41BD9072638
:100DF000A1F10A0404EB4404C568A640A34025EA17
:100E000006042343062AC36019D81F24013A436B02
:100E100002EB8202944001FA02F223EA04010A433F
:100E2000426370BC70470725046901EB4106B54079
:100E3000B34024EA05042343062A0361E5D90C2ABA
:100E40000DD81F24073A036B02EB8202944001FA8B
:100E500002F223EA04010A43026370BC70471F25B3
:100E60000D3AC46A02EB8202954001FA02F324EAC9
:100E700005021343C36270BC704700BFC06C80B2F0
:100E8000704700BF83793BB31D4B01681A6810B4EB
:100E900022EA01021A605A6822EA01025A600279C3
:100EA00002F1804202F58232146821431160996890
:100EB000026821EA02019960D96821EA0201D96039
:100EC0004179102913D001F1804303F58233196869
:100ED00010BC0A431A6070470379016803F180432C
:100EE00003F582331A6822EA01021A607047996892
:100EF00010BC11439960D9680A43DA60704700BF9B
:100F0000000401400246054B19685869104003D09F
:100F1000114214BF01200020704700BF00040140AF
:100F2000014B5861704700BF00040140024B034968
:100F3000034A59605A607047002002402301674508
:100F4000AB89EFCD324AD368DB0707D4D3685907A2
:100F500048D4D368DB0619D5032070474FF43023FB
:100F6000D168C9070CD4D168490734D4D268D206F5
:100F70000AD5013B002B4FF0030008BF0520704746
:100F8000013BEDD105207047012BFBD0204A1369AE
:100F900043F0020313615061136943F0400313618E
:100FA000D368D90720D54FF43023D168C80725D49A
:100FB000D168490726D4D268013BD2064CBF032032
:100FC0000420002B08BF052041F6FD71104A13696B
:100FD0000B4013617047013B002B4FF0020008BF2C
:100FE0000520704702207047D3685B070DD4D36893
:100FF00013F0100F14BF03200420E5E7013BD4D108
:101000000520E1E70220013BDBE70220DCE700BF2F
:1010100000200240304A10B4D368DB0708D4D368FC
:101020005C0743D4D368DB061BD5032010BC704794
:101030004FF40053D468E4070CD4D468640732D466
:10104000D268D2060BD50320013B002B08BF052038
:1010500010BC7047013BEDD1052010BC7047012B3F
:10106000FAD01D4A136943F0010313610180D3686C
:10107000DB071ED54FF40053D168C80723D4D168CD
:10108000490724D4D268013BD2064CBF0320042078
:10109000002B08BF052041F6FE710F4A10BC1369F2
:1010A0000B40136170470220013BCEE7022010BCC9
:1010B0007047D3685C070DD4D36813F0100F14BFCA
:1010C00003200420E7E7013BD6D10520E3E7022017
:1010D000013BDDE70220DEE70020024030B4CC789F
:1010E000E30648BF8B7804F00F0548BF1D430B880B
:1010F00013F0FF0F33D0482C026800F0AD80282C8D
:1011000000F03381D90744BF22F00F022A43990728
:1011100044BF22F0F00242EA0512590744BF22F40C
:10112000706242EA0522190744BF22F4704242EA83
:101130000532D90644BF22F4702242EA05429906DC
:1011400044BF22F4700242EA0552590644BF22F01D
:10115000706242EA0562190600F104810260FF2B09
:1011600048D9482C426847D1D90505D54FF480713C
:1011700022F00F022A4301619C0506D54FF400714D
:1011800022F0F00242EA05120161590506D54FF43A
:10119000806122F4706242EA052201611C0506D5D5
:1011A0004FF4006122F4704242EA05320161D90431
:1011B00006D54FF4805122F4702242EA05420161C3
:1011C0009C0406D54FF4005122F4700242EA055205
:1011D0000161590406D54FF4804122F0706242EA61
:1011E000056201611B0404D54FF4004365F31F72CF
:1011F0000361426030BC7047282C6CD0D90544BFD5
:1012000022F00F022A439C0544BF22F0F00242EA7A
:101210000512590544BF22F4706242EA05221C05FA
:1012200044BF22F4704242EA0532D90444BF22F49A
:10123000702242EA05429C0444BF22F4700242EA52
:101240000552590444BF22F0706242EA05621C0450
:10125000CFD565F31F72CCE7D90704D5012122F061
:101260000F022A430161990705D5022122F0F002FD
:1012700042EA05120161590705D5042122F4706282
:1012800042EA05220161190705D5082122F47042BE
:1012900042EA05320161D90605D5102122F47022F7
:1012A00042EA05420161990605D5202122F4700227
:1012B00042EA05520161590605D5402122F07062CB
:1012C00042EA0562016119067FF548AF802165F3A6
:1012D0001F72016142E7D90505D54FF4807122F0F4
:1012E0000F022A4341619C0506D54FF4007122F09C
:1012F000F00242EA05124161590506D54FF48061BA
:1013000022F4706242EA052241611C0506D54FF4C1
:10131000006122F4704242EA05324161D90406D5E7
:101320004FF4805122F4702242EA054241619C044C
:1013300006D54FF4005122F4700242EA0552416191
:10134000590406D54FF4804122F0706242EA0562EA
:1013500041611C047FF54DAF4FF4004365F31F72EC
:10136000436146E765F31F72F8E6D90704D501210A
:1013700022F00F022A434161990705D5022122F08C
:10138000F00242EA05124161590705D5042122F411
:10139000706242EA05224161190705D5082122F44D
:1013A000704242EA05324161D90605D5102122F486
:1013B000702242EA05424161990605D5202122F4B6
:1013C000700242EA05524161590605D5402122F0DA
:1013D000706242EA0562416119067FF5BFAE802165
:1013E00065F31F724161B9E6806880B2704700BF43
:1013F00001617047416170470AB101617047416105
:10140000704700BF0028194B00F44012B4BFDB69DD
:101410005B68B2F5401F30B484B21FD0C20214D54D
:101420000322C0F30345AA4023EA020343F070639A
:1014300021B1420D120104FA02F213430B4A0028B3
:10144000B4BFD361536030BC7047420D120104FA3F
:1014500002F223EA020343F07063E9E7034D23F04D
:1014600070636A6822F070626A60E1E70000014020
:1014700010B40F2401F0FC0303F1804303F5803323
:1014800001F003019A6889008C4022EA04029A6004
:101490009A6800FA01F1114310BC9960704700BFCF
:1014A000214A30B4536803F00C03042B22D0082BDC
:1014B00023D01E4B03601C4A1D4C51681D4DC1F3C7
:1014C0000311615CCB4043605168C1F30221615C50
:1014D00023FA01F181605168C1F3C221615CCB4004
:1014E000C3605268C2F38132AA5C30BCB3FBF2F332
:1014F00003617047104B0360DDE753685168C3F325
:101500008343C90303F1020304D40C4A02FB03F32F
:101510000360D0E7526892034CBF094A064A02FBB7
:1015200003F30360C7E700BF0010024000127A0017
:10153000040000200000002000350C0000093D00E0
:10154000801A0600044A936911B1184390617047EC
:1015500023EA00009061704700100240044AD369FA
:1015600011B11843D061704723EA0000D061704781
:1015700000100240274A038890429BB212D002F525
:10158000006290420ED0B0F1804F0BD0A2F598329D
:10159000904207D002F58062904203D002F580624B
:1015A000904203D14A8823F0700313431A4A9042B1
:1015B00017D002F58062904213D0CA8823F440739A
:1015C0009BB21343134A30B48D880C889042038039
:1015D000858504850DD10B7A0386012330BC838277
:1015E000704703808B8883850B8803850123838262
:1015F00070470A4B9842EED003F540639842EAD018
:1016000003F580639842E6D003F580639842E2D008
:10161000E3E700BF002C014000100040003401400F
:10162000038821B19BB243F001030380704723F08C
:1016300001031B041B0C0380704700BF83899BB20E
:1016400012B119438181704723EA010181817047FA
:10165000C94389B20182704770B50D460446038ABA
:10166000CA889BB223F44053134389890382828939
:10167000AE8822F4B05323F00C031B0428891B0C02
:101680006A893343034313439BB2A381A38A86B081
:101690009BB223F440730B4301A8A382FFF700FF22
:1016A000DDE903311948A289844208BF0B4612F4D0
:1016B000004F2A6803EB830314BF5200920003EB30
:1016C0008303B3FBF2F364221148A589A0FB0361F5
:1016D000490902FB11332A044FEA01110AD41B0104
:1016E0003233A0FB0323C3F343130B439BB2238189
:1016F00006B070BDDB003233A0FB0323C3F34212FC
:1017000042EA01039BB2238106B070BD003801405C
:101710001F85EB51838921B19BB243F40053838130
:10172000704723F400531B041B0C8381704700BFD8
:10173000012310B401F01F04C1F34211012903FA7F
:1017400004F30FD002290CBF1030143022B102680C
:1017500010BC134303607047026810BC22EA030305
:10176000036070470C30F1E7C1F3080181807047D6
:101770000388194214BF0120002070470123090A81
:101780008B40DB439BB20380704700BF704700BFB4
:10179000704700BF024B5A7802B91A73704700BFF6
:1017A0005C12002010B5054C2378022B04D004F005
:1017B0007DFA637803B9237310BD00BF5C1200206B
:1017C00010B40D4C2346C4F1006101F5FE3104F55F
:1017D00080605A18127803F8012B8342F9D12378DC
:1017E0000A2B06D04FF48062FF21034810BC07F09B
:1017F00083BA10BC704700BFC00D0020014B185CBD
:10180000704700BFC00D0020014B1954704700BF46
:10181000C00D00202DE9F8430746002A3CD00023E4
:10182000DFF88880441E44448E1811F8015B63BBC6
:1018300005EBD313B142DBB204F8015FF5D11744D5
:10184000174808F80730FFF77DFB04281BD14FF637
:10185000FF77144C144EA51E04F58069A6EB08060C
:1018600034F8041C7019B94201D0FFF7D3FB298862
:101870003019B94205F1040504F1040401D0FFF761
:10188000C9FBA145ECD1BDE8F8836B1CB14204F85B
:10189000015FDBB2C9D1D2E71346DFF81080CFE792
:1018A00000FC0108C40D0020FEFB0108C00D002053
:1018B000F0B4F2B10024104F4D1E3D44861815F8C7
:1018C000013F74B900F8013B03EBD414B042E4B219
:1018D000F5D11144785C001BB0FA80F0F0BC4009EF
:1018E000704700F8013B864203F10103DCB2E6D108
:1018F000EFE71446004FEDE7C00D0020002108B5CA
:101900005022074807F0F8F90020064905F0EEFAE2
:1019100000B108BD0720BDE8084004F0E3B900BFEE
:10192000C0110020EC1100200149024806F0B0BEB1
:1019300080120020DC1100202DE9F04F0646C44F34
:101940004822002138469BB007F0D6F9C14B03CBA3
:101950001A889B78C7F80100C7F80510A7F8092076
:10196000FB7296F800A0BAF1240F00F0B6820022B4
:101970008DF84720BAF1000F00F027840A924FF04B
:101980000008C346CDE90788DFF8CC92CDF8248063
:10199000CDF81880AAF14105EBB2192B00F2A08313
:1019A000531C304612AA0DF147018DF8473002F062
:1019B000EDFB002800F09983DDF848804046FFF7F2
:1019C0006BF9C4B22046FEF711FF01464046FEF710
:1019D00057FE4946FEF75EFF07F0F4FABAF1470FEB
:1019E00082B263D0BAF14D0F27D1002A40F08E8326
:1019F000782C1DD8702C40F23E82713C072C17D8F1
:101A0000DFE814F0670263025F025B025702160010
:101A100016005302089B002B40F0D484262C7C70C7
:101A200040F0BD83A2F114039BB21E2B40F27A83D7
:101A3000142420461BB0BDE8F08F192DF8D801A35F
:101A400053F825F047200008311A0008311A000821
:101A5000311A0008311A00085B200008311A00080A
:101A6000311A000865200008772000088920000846
:101A70009B200008311A0008A5200008311A000830
:101A8000B3200008311A0008BD200008B51F000867
:101A9000DF1F0008311A0008311A0008311A000847
:101AA0001F20000833200008F91F0008652CBFD84C
:101AB00001A353F824F000BF151A0008151A0008F6
:101AC000151A0008151A0008FB1E0008311A000834
:101AD000311A0008311A0008311A0008311A0008BA
:101AE0000D1F0008311A0008311A0008311A0008C9
:101AF000311A0008311A0008311A0008351F000891
:101B0000351F0008351F00083D1F00083D1F000855
:101B1000311A0008311A0008311A0008311A000879
:101B2000311A0008311A00080D1F0008311A000888
:101B30000D1F0008311A0008311A0008311A000878
:101B4000311A0008311A0008311A0008311A000849
:101B5000151A0008311A00085D1C0008311A000827
:101B6000311A0008711F0008311A0008311A0008E4
:101B7000311A0008311A0008311A0008711F0008D4
:101B8000311A0008311A0008311A0008FB1E00083B
:101B9000911F0008911F0008911F0008911F000865
:101BA000911F0008911F0008311A0008471F000804
:101BB000311A0008311A0008311A0008311A0008D9
:101BC000311A0008311A0008311A0008311A0008C9
:101BD000311A0008311A0008311A0008311A0008B9
:101BE000311A0008311A0008311A0008311A0008A9
:101BF000311A0008311A0008511F0008311A000874
:101C0000311A0008311A0008311A0008311A000888
:101C1000311A0008311A0008311A0008311A000878
:101C2000591F0008591F00080D1F0008671F0008F2
:101C3000671F0008311A0008311A0008311A00081D
:101C4000311A0008311A0008F51E0008F51E0008B8
:101C500010120020C01100200000C8420723002AF3
:101C600040F054824BFA03F2D40700F1598201226A
:101C700002FA03F343EA0B0B1FFA8BFB9DF8472094
:101C800016F802A0BAF1000F7FF484AE079BDDF8CE
:101C90001880CDF818B023B1089B002B08BF022391
:101CA000089318F0200F04D0BB4B7A6A9A4200F3D5
:101CB00058820A9B002B00F0458218F0010F00F0BB
:101CC000AA82FB78012B04D1F868B449FEF7E2FD43
:101CD000F86018F4807F02D1B14BDB683B633C783D
:101CE000042C00F04D82642C00F05D82652C40F0E5
:101CF0003A8208F0C003C02B40F04A8228F0C008A6
:101D00001FFA88F897F80590B9F1000F00F0858266
:101D1000B9F1010F40F0668200254FF0020ACDE9CB
:101D20000B590526D146FB78012B00F08882089BD1
:101D3000032B00F079829B4B0DF1580C0FCB8CE8F4
:101D40000F00069B99050ED5F879062800F240830E
:101D5000934B9B79834206D016A905F0C7F800285B
:101D600000F0A3853C780A2C00F0E2825C2C00F0A5
:101D70009382089B032B33D0079A002A30D08849DE
:101D80003B79D1F84CB0002B00F04986D00740F1E8
:101D9000D886352C00F0E986814BB96BD869FEF7FF
:101DA00071FC079BB8639A0740F1E2867C4BF96BA4
:101DB000186AFEF767FC079BF863580740F17885BF
:101DC000774B396C586AFEF75DFC079B38641B073C
:101DD00040F1C686724B796C986AFEF753FC7864C2
:101DE0001E2C00F07985352C00F06C851C2C00F041
:101DF00057857C78502C40F06985079A002A40F07E
:101E0000CA860A9B0D92002B00F0D88228F0210888
:101E10001FFA88F2089919B122F470581FFA88F253
:101E2000002A40F0D282CDE913221592002B00F057
:101E3000D282069B23F04903002B40F04A853B7871
:101E4000352B02D0002B40F04485554A13A8117A57
:101E5000537AD2680B4354498DF85430149201F0F0
:101E6000BBF8044600287FF4E4AD504B504D0FCB37
:101E700085E80F00DDE5022C0FD8002C40F023810F
:101E800003234FF400623B720B234BFA03F3D80792
:101E900000F1468142EA0B0BF0E61E2C7FF4C8AD40
:101EA0004FF400620B233C72EFE7782300223B7073
:101EB000EBE7752300223B70E7E7742300223B70B9
:101EC000E3E7732300223B70DFE7722300223B70BD
:101ED000DBE7712300223B70D7E70022012196F84F
:101EE00003A0BA7079700322BAF1000F00F0938159
:101EF0000A9144E564233C70B1E61C2C3C7000F070
:101F000000811E2C00F0FD800023A8E6002A40F08E
:101F1000F180089B002B40F055821C2C3C7000F097
:101F2000D9801E2C00F0D6805C2C00F0D3800122DA
:101F3000089297E6113C02237C7190E6C4F11504E7
:101F40000623FC708BE6002A7FF472AD0A2389E633
:101F500050237B70012382E6002A40F0D9805A3C4E
:101F600003233C717EE6C4F15E040523BC7076E673
:101F7000089B002B40F02682312C00F00B810A2AAE
:101F80007FF456AD0122BA7103220823089269E654
:101F9000363C0923FC7162E6809698003333CB41CE
:101FA000C0110020EC110020101200204812002067
:101FB000DC1100204FF480740822C7F83080069BA3
:101FC00043FA02F2D00725D440460021FEF700FE76
:101FD000002840F01081069B234306934EE64046BE
:101FE000A849FEF713FE002840F0858487F83440A6
:101FF00009224FF40074E2E7079B4FF4805443F04A
:10200000040307930C23C7F84080069A42FA03F3AF
:10201000D907E0D5192420461BB0BDE8F08F079BF7
:102020004FF4806443F001030793C7F838800A2314
:10203000EBE7079B4FF4006443F002030793C7F8F4
:102040003C800B23E1E7079B4FF4005443F0080367
:102050000793C7F844800D23D7E701240022C7F86F
:102060000C80ACE7099B022443F001030993C7F8F5
:1020700010800123C9E7099B042443F0020309935C
:10208000C7F814800223C0E7099B082443F0040327
:102090000993C7F818800323B7E787F82040042383
:1020A0001024B2E74046FEF7D1FD202405227862D5
:1020B00085E740240622C7F8288080E7802407238C
:1020C000C7F82C80A1E7012C7FF4EAAE4FF4006240
:1020D0000B23DAE601230893204400233870C1E57E
:1020E000012420461BB0BDE8F08F022420461BB01F
:1020F000BDE8F08F1C2C3C7005D01E2C03D05C2C4E
:1021000004D1002AE8D00A2AE6D091E4172490E40A
:102110000A2A7FF48DAC5A2C3FF48AAC0423A1E543
:10212000152486E4584921FA03F3DD077FF580ACD6
:1021300056490123A1FB0212D208763A7A70022294
:1021400008928FE5BB78012B57D0514A53780A93F8
:10215000002B44D118F0010F7FF4B3AD1369FB607D
:10216000B7E51B2465E4712C0AD0722C08D0732CBF
:1021700006D0742C04D0752C02D0782C7FF4C2AD1C
:1021800018F0400F04D028F040081FFA88F8B9E58D
:102190001C244EE40322BB710892082362E502214D
:1021A000012308915BE508F05003502BF0D108F4AF
:1021B0009073B3F5907FEBD108F08103812BE7D1C9
:1021C000A3F2732308EA03089CE5BA78D046012AF3
:1021D000CDE908AACDF81CA0CDF818A0B5D10023F0
:1021E0000A9376E502254FF0010A0023D146062620
:1021F0000B950C9397E504241BE4089B022BEED16E
:102200007B78502B3FF465AD002B3FF462AD18F0A6
:10221000010F7FF45EAD16240BE401250223032693
:10222000CA460B950C937EE5BB79012B7FF483ADF9
:10223000079B042B3FF47FAD2524FFF7FABB079BD8
:10224000D90704D5B86B1349FEF724FBB863079B85
:102250009A0704D5F86B0F49FEF71CFBF863079B40
:102260005B0704D5386C0B49FEF714FB3864079BF9
:1022700018077FF55CAD786C0649FEF70BFB7864B8
:1022800055E500BF00007F4301041040CDCCCCCC0D
:10229000C01100203333CB41079B002B00F07C8220
:1022A0009F4AD907D46C40F17A821699B86BFEF731
:1022B000E9F99B4B0146D869FEF7E2F9B863079B41
:1022C0009A0740F1E9821799F86BFEF7DBF9944B16
:1022D0000146186AFEF7D4F9F863079B5B0740F1E3
:1022E00062821899386CFEF7CDF98D4B0146586A19
:1022F000FEF7C6F92146FEF7C3F93864079B1C07B1
:1023000040F14B83796C1998FEF7BCF9844B014678
:10231000986AFEF7B5F9786400230D937C78502C09
:1023200000F03984089B022B00F082810A9B6AE549
:10233000079B002B00F0308218F0500F3FF428AFBD
:10234000B86AFEF7A9FCC3B2062B41D897F8202043
:10235000142A06D0022A7FF46BAB18F0800F7FF4AA
:1023600067AB28F050081FFA88F8002B00F019839B
:10237000013BDBB218460D936A4904F0B7FD002813
:1023800000F0938297F82030654A142BD46C079B99
:1023900000F01085DA0744BFBB6B3B61079B9B07CE
:1023A00044BFFB6B7B61079B5C0744BF3B6CBB611D
:1023B000079B1807B2D57B6CFB61AFE75A4A08EA66
:1023C000020227E51824FFF734BB2424FFF731BBB2
:1023D0001D24FFF72EBB554B93F85830980700F19A
:1023E0008D824F4B5C7A0A9B03F040054C497A6A18
:1023F000BB788A614B7013B108238DF85430484A7A
:10240000FB68D668D7F83080304641461361139395
:10241000FEF7D4FB002800F0CA810A9B9B0600F15E
:10242000C681B0460DB9CDF85080B87A97F83430EF
:102430003B4DA0422B7503D004F0F6FEBC7A6C72C3
:10244000374B9DF85420787A1B7A144383428DF8D9
:1024500054400BD0FFF7A6F9787A012800F00A84DF
:102460002F4A9DF85440137A184310723B78044366
:10247000042B8DF8544000F08683642B00F0958285
:10248000652B00F05083712B00F06F82722B00F0EF
:102490005582732B40F0B681BC6A00212046FEF7BE
:1024A0008DFB002840F0A08120464FF07E51FEF7C2
:1024B00085FB002840F0FD83FB7819497A798B7001
:1024C000089B0A71032B00F09782154DFC79AB79BC
:1024D000A34208D016ABAC7105F12C040FCB84E8F5
:1024E0000F0006F0CBF83B783A790D49282BCA70DB
:1024F0001ED8092B2BD90A3B1E2B28D8DFE803F066
:1025000086272727272727272727272727272727FC
:102510002727712771272727272727276C27670059
:10252000C011002020120020DEFCFFFF94150020C7
:102530005C2B00F07B84662B09D10023A24A136038
:10254000C2E90133D360A2F13C0106F097F87B7831
:102550009E4A502B137003D0089A022A00F0C482BE
:102560003C7A9A4BDC71002C3FF463AA03F09EFB8B
:10257000964BDB79032B00F0918346F264420020F6
:10258000012440F201156421914B904E1A811A7872
:102590003071022AF070B0713480358199720ED09A
:1025A00006F12C0104F0A2FC002800F07E8106F068
:1025B00065F8204604F030FE2046FFF7EBF80820CF
:1025C00003F0BEFB0024814BDC71FFF732BA072019
:1025D000804904F0BDFBBAE706207E4904F0B8FB51
:1025E000B5E79DF8543043F001038DF85430089B53
:1025F000002B40F03E84784D764C284613A901F01C
:102600000BFB95E80F0084E80F00A0E70D9D724CCE
:102610002846214604F09CFB6C4B9B79AB4296D13B
:1026200094E80F006D4C84E80F0006F027F88EE761
:10263000002C00F07A810021F868FEF7BFFA00282C
:102640007FF4E9AD032C0BD000F21782012C00F0CF
:102650006C81022C0A9B7FF4D6AB43F004030A93EF
:10266000079B002B00F09880334200F0FF83574B0C
:1026700007EB8A0203EB8A03D969906BFEF700F837
:10268000524B07EB850203EB85030446D969906B37
:10269000FDF7F6FF18F08003A346044600F0F2832E
:1026A00010224F494B4806F019FB002800F02D84FA
:1026B000FB78012B04D1F86A4A49FEF7EBF8F8627F
:1026C000F96A0846FEF7E6F84FF08141FEF7E2F8B6
:1026D000594606465846FEF7DDF821460990204641
:1026E000FEF7D8F8099B01461846FDF7CBFF0146D7
:1026F0003046FDF7C5FF00210646FEF769FA0028BF
:1027000040F0BD83304606F0C1FC214606465846DF
:1027100001F018FE014606F10040FEF76FF97B78E4
:102720000646032BFB6A08BF00F10046002118464D
:102730000993FEF74DFA28B1099B06F1004603F113
:102740000043FB6221463046FEF7A4F80146584696
:10275000FDF796FF4FF07C51FEF79CF80AF1020A54
:1027600007EB8A0A5946CAF808003046FEF792F885
:102770002146FDF787FF4FF07C51FEF78BF80235BD
:102780000A9B28F0800807EB85051FFA88F803F0FC
:102790000103A860FFF737BB1A24FFF74AB90B4BB8
:1027A000DB6BBB638BE5094B5B6C3B64A6E5012CE3
:1027B00006D0204604F038FD044BD7F830805C7A10
:1027C000024BC3F80C802DE6FC110020C011002044
:1027D0005C120020DC11002020120020EC110020EF
:1027E000481200203333CB410821AB480022FEF7CA
:1027F00003FE4FF07E51B86AFEF7E0F9002840F082
:1028000058823B78742B15D1BC6A00212046FEF714
:10281000D5F9002840F0E68120464FF07E51FEF7C2
:10282000CDF900283FF448AE01229B481146FEF73F
:10283000E3FD3B78752B15D1BC6A00212046FEF7DD
:10284000BDF9002840F0DC8120464FF07E51FEF7B4
:10285000B5F900283FF430AE012220218E48FEF762
:10286000CBFD3B78782B7FF427AEBC6A0021204655
:10287000FEF7A4F9002840F0F18220464FF07E5187
:10288000FEF79CF900283FF417AE01224FF40071C7
:102890008248FEF7B1FD0FE6814B1B6CFB631CE524
:1028A0000620804904F022FBE0B90724FFF7C1B8F5
:1028B0007B4B5B6A3B64079B1A0740F15181352CC7
:1028C0007FF488AA7C78012C00F2628100230D93AA
:1028D00028E51024FFF7ADB80720724904F006FB85
:1028E0000028E2D0079A002A40F058810A9B0D92F6
:1028F0000892FFF788BA2624FFF79BB87B78013B44
:10290000022B03D90A9B43F040030A93079B1BB198
:10291000089B022B00F0B481614B5C7A102C00F014
:1029200097810A9B03F0400560E5079B002B089BFD
:1029300008BF002308930A9BFFF765BABC6A002111
:102940002046FEF73BF9002840F01C8220464FF05D
:102950007E51FEF733F900283FF4AEAD012210217D
:102960004D48FEF749FD3B7893E5BC6A00212046BF
:10297000FEF724F9002840F0628220464FF07E5195
:10298000FEF71CF900283FF497AD01224FF4807147
:102990004248FEF731FD3B7878E5414B9B6C7B6408
:1029A000BAE4FB7918460D93E6E4BC6A3E4920463A
:1029B000FEF704F9002840F08281386BFEF76CF9CD
:1029C00006462046FEF768F90546F86AFEF764F900
:1029D0000346F868DBB20193FEF75EF9F6B2C4B2C3
:1029E000EDB23346284697F8242097F8201000943B
:1029F00005F0BCFF3B7843E5BB794B710BB9002375
:102A00003B643C6C264B2146D86CFEF7D7F8002877
:102A10007FF45BAD224BDC6405F030FE55E5D0075A
:102A200000F109811E4BDB69BB63079B990700F12D
:102A3000F5801B4B1B6AFB63079B5A0740F1C8805C
:102A4000352C00F08980396C1898FDF71BFE144B6B
:102A5000596CFDF717FE5946FDF714FE079B3864C5
:102A60001B077DD51999786CFDF70CFE0C4B996C02
:102A7000FDF708FE7864FFF7B3B904F17403DBB225
:102A8000032B3FF653ACA4F18C03032B3FF64EAC63
:102A9000DFE803F0100C100C000C014000080140AE
:102AA000C011002020120020000010410A9B43F0BA
:102AB00010030A9304F17203DBB2012B03D80A9BC3
:102AC00043F008030A93079B002B3FF465AE1022E6
:102AD000B349B44806F002F9002800F016820A9BB8
:102AE00003F00103FFF78FB9012B00F03C82002BAC
:102AF00000F02C82023B012B40F213829DF85430EF
:102B0000A74D43F0040328460A9A13A98DF85430C0
:102B100001F0A4FA002840F0FB81A24C95E80F00D8
:102B200084E80F001CE5F86AFEF7B6F80446B86AB8
:102B3000FEF7B2F8E4B22146C0B205F09DFF3B7843
:102B4000A1E4CB699107BB6312D5352C7FF42EA984
:102B5000079B59077FF5ACAE079B1B073FF5B2AE4D
:102B6000914B9B6A7B64FFF73BB9079B9A07EFD4B5
:102B70008D4B1B6AFB63079B5B077FF599AE352C7A
:102B80007FF41EA9E8E7B86A01F026FA3B7874E4FE
:102B90001E24FEF74EBF1F24FEF74BBFD10702D401
:102BA000814BDB693B61079B9A0702D47E4B1B6A12
:102BB0007B61079B5B0702D47B4B5B6ABB61079B16
:102BC0001C073FF5A9AB784B9B6AFB61FFF7A4BBE1
:102BD000754B5B6A3B64079B1807C1D5352C7FF4A6
:102BE00041AF6FE6012171480022FEF705FC4FF06E
:102BF0007E51B86AFDF7E2FF00283FF41AAE13E6F3
:102C000020216A480022FEF7F7FB4FF07E51B86A98
:102C1000FDF7D4FF00283FF424AE1DE6352C3FF429
:102C20000BAFF96B1798FDF72DFD5F4B196CFDF796
:102C300029FDF86300E7352C3FF4F7AEB96B169821
:102C4000FDF720FD584BD96BFDF71CFDB863ECE692
:102C5000554B1B78013B022B0A9B03F0400519D80A
:102C600059067FF5C3AB43F020030A9303F04005F8
:102C7000FFF7BCBB4C4B9DF854401872FFF7F6BBF6
:102C80000A9B43F080030A9303F04005464B5C7AAD
:102C9000FFF7ACBB5A063FF5A9ABE4E7444B1B7802
:102CA000022B3FF48FAC082005F096FD02F040FFA8
:102CB00088E4012208213D48FEF79EFBA1E5386B20
:102CC000FDF7EAFF0446F86AFDF7E6FF0346F868F9
:102CD000DBB20193FDF7E0FFE4B2C0B2234697F800
:102CE000242097F820100090002005F03FFE386B5C
:102CF000FDF7D2FF0446F86AFDF7CEFF0346F868F9
:102D0000DBB20193FDF7C8FFE4B2C0B2234697F8E7
:102D1000242097F820100090012005F027FE386B42
:102D2000FDF7BAFF0446F86AFDF7B6FF0346F868F8
:102D3000DBB20193FDF7B0FFE4B2C0B2234697F8CF
:102D4000242097F820100090022005F00FFE386B29
:102D5000FDF7A2FF0446F86AFDF79EFF0346F868F8
:102D6000DBB20193FDF798FFE4B2C0B223460090B6
:102D700097F82420032097F8201005F0F7FD3B7802
:102D8000FFF77EBB102109480022FEF735FB4FF00C
:102D90007E51B86AFDF712FF00283FF4E4ADDDE58F
:102DA00048120020DC110020C0110020000C01405E
:102DB0005C120020D9070AD57D4BB86BD96BFDF7A3
:102DC00061FC7B4B0146D869FDF75AFC3861079BD3
:102DD0009A070AD5764BF86B196CFDF753FC744BC8
:102DE0000146186AFDF74CFC7861079B5B070DD51F
:102DF0006F4B386C596CFDF745FC6D4B0146586ABA
:102E0000FDF73EFC2146FDF73BFCB861079B180728
:102E10007FF584AA664C796CA06CFDF733FC014603
:102E2000A06AFDF72DFCF861FFF778BA614C624BA0
:102E30000FCB84E80F0005F021FCFFF788BB4FF4AF
:102E400080715E480022FEF7D7FA4FF07E51B86AD3
:102E5000FDF7B4FE00283FF49EAD96E500224FF446
:102E600000715648FEF7C8FABC6A06E52024FEF752
:102E7000E0BD514813A900F0CFFEFFF7BCBB2224F0
:102E8000FEF7D7BD099A324200F08E80FA7828F01A
:102E90000E08012A1FFA88F86CD0023507EB850569
:102EA000A9682046FDF7ECFB06460AF1020407EB91
:102EB0008404A1685846FDF7E3FB314601F042FA6D
:102EC0000346A968A0681C4601F03CFA0546204666
:102ED0002946FD62FDF7D4FB20F000442046384926
:102EE000FDF794FE00283FF4FAAD4FF07C512046E8
:102EF000FDF78CFE48B933492846FDF7CBFC214647
:102F0000FDF766FE00283FF4EAAD2124FEF791BDEF
:102F100001287FF425AB2C492C4805F0B9FBFFF7BD
:102F20001FBB0A9B244DC3F3800304930C9B274CC7
:102F3000FE6A03930B9B2246CDE90193284613A911
:102F4000A5F12803009600F09BFEE7E59DF85430BC
:102F5000194D43F00103284613A98DF854301B4C3A
:102F600000F05AFEDAE5144D13A9284600F054FE8D
:102F7000164CD3E51E46164B0E951C4605461549C4
:102F8000099B334113F0010F06F1010605D02068BB
:102F90000F91FDF77FFC0F992060042E04F10404CB
:102FA000EED12C460E9D78E72324FEF742BD00BFEC
:102FB000C0110020FC110020481200200008014030
:102FC0000AD7A33B6F12833A80120020DC11002045
:102FD000201200203333CB4170B505460B46027AF0
:102FE000C86842F00402134928602A7291F85820F8
:102FF00003F13804930603D5204605F06FFBA8B90A
:103000000D4E2046294600F007FE347814B1002406
:10301000204670BD01F0A2FB0028F8D020233370B9
:1030200004F062FC04F038F9204670BD0F242046FD
:1030300070BD00BF941500205C12002010B5012166
:1030400082B01C4C0420FEF77DFA1B4B20466946DB
:103050000093FEF743F8204600224FF48071FEF7FC
:10306000CBF9002220464FF40071FEF7C5F901218B
:103070000820FEF767FA04F58064104B204601A98A
:103080000193FEF72BF8204600221021FEF7B4F939
:10309000204600220821FEF7AFF920460022012138
:1030A000FEF7AAF9204600222021FEF7A5F902B07A
:1030B00010BD00BF000801400003021039000210DB
:1030C00070B5012188B04FF40070FEF73BFA00257F
:1030D00002231E4801A90124ADF8043040F2011674
:1030E0008DF80750FDF7FAFF4FF4602200231848CF
:1030F00002A9CDE904230295ADF80C608DF81840C3
:10310000FDF726FE2246072309211148FDF76CFE34
:103110000F482146FDF740FE0D48FDF747FE0C48DD
:10312000FDF74AFE0028FAD10948FDF749FE084894
:10313000FDF74CFE0028FAD101210548FDF74AFEB3
:103140000348FDF79BFE08B070BD00BF000C0140B6
:10315000002401400148FDF791BE00BF002401405A
:1031600010B5012184B00920FEF7ECF9204C214B69
:10317000694621480093FDF7B1FF94F858301B07CA
:1031800006D44FF480721D4BC3F8842004B010BDE8
:10319000642001F0C7F80C210120FEF769F90D2128
:1031A0000120FEF765F90E210120FEF761F90F21DC
:1031B0000120FEF75DF994F858304FF4704113F098
:1031C000400F14BF08240C240022012302A80291FE
:1031D0008DF80C208DF80E308DF80D40FDF752FE65
:1031E000074B01A80193FDF781FD04B010BD00BF9E
:1031F0009415002000F00348000C014000E100E0BD
:10320000280202014FF48072014BC3F884207047FA
:1032100000E100E070B51B48FEF7E6F80024054623
:10322000184E3046FEF7E0F801348542E4B205D08E
:103230003046FEF7D9F801240546F2E7092CF0D90B
:10324000114B93F858305B065CBF85F47045ADB206
:10325000ADB10E4B19885A880D4214BF01200020D1
:1032600015429A88DB8818BF40F00200154218BF4B
:1032700040F004001D4201D040F0080070BD284617
:1032800070BD00BF000C01409415002058A200083A
:1032900008B54FF48050FDF735FE88BB4FF4005061
:1032A000FDF730FE38BB4FF48040FDF72BFEE8B948
:1032B0004FF40040FDF726FE98B94FF48071134A91
:1032C000134BC2F884111B78012B02D0114B1B78D1
:1032D00003B108BD00F02AFFBDE80840012005F059
:1032E0008FBA4FF40040FDF71BFEE6E74FF4804035
:1032F000FDF716FEDCE74FF40050FDF711FED2E7B4
:103300004FF48050FDF70CFEC8E700BF00E100E07D
:103310005C120020901200202DE9F04F374B93B043
:103320005B78069013B113B0BDE8F08F0546062414
:103330003349CDE90C330868496809AA0B9315F0A5
:1033400001038DF8344003C205F00104079300F037
:10335000C7822C4E2C49306BFDF79CFA0021814628
:10336000FDF74AFC002800F0C882069BC3F3400228
:1033700004929A070BD52449706BFDF78BFA05462A
:1033800048462946FDF738FC002800F0B482069B29
:10339000C3F380025B0703920BD51B49B06BFDF7AB
:1033A00079FA054648462946FDF726FC002800F034
:1033B000A082069BC3F3C0021F0705920BD51249DA
:1033C000F06BFDF767FA054648462946FDF714FC01
:1033D000002800F08C820D48FEF706F80027824690
:1033E0000A4D2846FEF700F801375045FFB20FD0CE
:1033F0002846FDF7F9FF01278246F2E75C1200201C
:1034000060A20008941500200000C0BF000C01401D
:10341000092FE6D996F858305D065CBF8AF4704AE9
:103420001FFA8AFABAF1000F00F05882814B19880E
:103430005A881AEA010F14BF4FF001084FF0000834
:103440001AEA020F9A88DB8818BF48F002081AEAC5
:10345000020F18BF48F004081AEA030F40F0448234
:103460004FF0010A0322D6F860B0E3B25F46029340
:10347000D3464B469246C1466F4D70490EA8019304
:1034800005F006F9DDE90132002A00F08B81002009
:10349000B6F85A206949D407086040F1BD81BBF1F4
:1034A000000F00F0C18119F0010F40F0BD8103F160
:1034B00000420E920222BDF8244002980499B9B14C
:1034C0000021B6F85AC05D481CF0020F416000F0C0
:1034D000B681BBF1000F00F0BA8119F0020F40F085
:1034E000B68103F100410F911046BDF826100C4340
:1034F000039AC2B10022B6F85AC0504901301CF0FC
:10350000040FC0B28A6000F07D81BBF1000F00F0B3
:10351000818119F0040F40F07D8103F10042109287
:10352000BDF828201443059AB2B10022B6F85AC05B
:10353000424901301CF0080FC0B2CA6040F07681E9
:10354000BBF1000F02D019F0080F01D003F10043C6
:103550001193BDF82A301C43FDF744F905F096FDA0
:10356000374B3946DC80FDF795F903460BA90EA8C9
:103570000B9301F0E7F90423314ACDF804A013714D
:103580005F4604F0B1F903F087FEDFF8BCA0002F1E
:103590003AD104F0A9F92B7813F0340F40F0B7803A
:1035A0002207F4D104F070F8B6F8640000F0BAFE17
:1035B00087F0010B002F40F0F9802249B06EFDF733
:1035C00069F90346F76D019A02F1FF3A5FFA8AFA48
:1035D000002A7FF452AF079B0BB1184B1A60049B73
:1035E00013B10023154A5360039B13B10023134A00
:1035F0009360059B13B10023104AD3600023104A47
:10360000137113B0BDE8F08F5046FDF7EDFE4FF09B
:10361000000883465046FDF7E7FE08F101085845CB
:103620005FFA88F812D05046FDF7DEFE4FF0010831
:103630008346EFE758A200086B120020801200209A
:103640005C1200200000A040000C0140B8F1090FFE
:10365000E0D996F8583058065CBF8BF4704B1FFACF
:103660008BFBBBF1000F66D0A54A138852881BEA7A
:10367000030F14BF012300231BEA020FA04A18BF47
:1036800043F0020392881BEA020F9D4A18BF43F0E1
:103690000403D2881BEA020FBDF8242018BF43F0B0
:1036A0000803144207D0D90740F1848019F0010FB4
:1036B00001D124EA0204BDF82620144207D098075D
:1036C00040F1858019F0020F01D124EA0204BDF80F
:1036D0002820144207D0590740F1878019F0040FC1
:1036E00001D124EA0204BDF82A20144206D0DB08E6
:1036F00031D019F0080F01D124EA0204814BDC809B
:1037000004F0F2F82B7813F0340F3FF449AF2B7824
:10371000DCB2DB0600F19D80A00628D467B3630706
:1037200000F1D880784B1B78002B40F0CC8004202F
:1037300005F05CF836E7BDF82420144239D1BDF815
:103740002620144242D1BDF8282014424CD1BDF8A5
:103750002A201442D2D019F0080FCFD0019B09F0D3
:10376000F709013BDBB2019387F00107C4E70720AB
:1037700005F046F8002FD2D16448FDF735FEBA4671
:103780008346624C2046FDF72FFE0AF1010A584598
:103790005FFA8AFA61D02046FDF726FE4FF0010A53
:1037A0008346EFE714461046012287E6B36E376E74
:1037B00009E75B4619F0010F3FF47DAF019900273F
:1037C0000139C9B2019109F0FE0972E75B4619F0AF
:1037D000020F3FF47CAF019909F0FD090139C9B22C
:1037E000019187F0010770E75B4619F0040F3FF481
:1037F0007AAF019909F0FB090139C9B2019187F04B
:1038000001076EE7BBF1000F3FF487AE19F0040F1C
:103810007FF483AE109383E6BBF1000F3FF447AE15
:1038200019F0010F7FF443AE0E9343E6BBF1000F96
:103830003FF48EAE19F0080F7FF48AAE86E6BBF136
:10384000000F3FF44EAE19F0020F7FF44AAE0F9313
:103850004AE6062004F0D4FF5EE7BAF1090F91D9D9
:1038600096F8583059065CBF8BF4704B1FFA8BFBEF
:10387000BBF1000F3FF456AF214A138852881BEA70
:10388000030F14BF012300231BEA020F1C4A18BFB9
:1038900043F0020392881BEA020F194A18BF43F053
:1038A0000403D2881BEA020F069A18BF43F00803EC
:1038B0001A423FF437AF082004F0A2FF124B1B78E6
:1038C000002B3FF434AF00F031FC02F031F913B0BB
:1038D000BDE8F08F092004F093FF23E7D046BFE551
:1038E0004FF000090A4E40E548F00808B8E5A9463F
:1038F00071E5A9465DE5A94649E54FF0000934E5C3
:1039000058A200085C12002090120020000C014018
:103910009415002010B504F0E1FE78B101230C4CA1
:103920002078E37008280AD104F056FF01E02378DC
:103930002BB102F0FDF86378002BF8D010BD00F039
:10394000F5FB022004F05CFFBDE8104002F0F0B887
:103950005C120020F0B5054687B04FF44070FDF7CB
:10396000BBF90126252301A8ADF804308DF80760C6
:10397000FDF7BCF9314644F20900FDF7E3FD1F4CA9
:1039800031460420FDF73EFD1D4B2046694600935D
:10399000FDF7A4FB1B4B6946204600270093FDF76B
:1039A0009DFB4FF44023184A04F53054A2FB052533
:1039B000204602A9ED08CDE903730295ADF8147015
:1039C000FDF74AFE20464021FDF7D2FEA3893A4684
:1039D0009BB243F00C03A381204640F22771FDF710
:1039E000A7FE3246204640F22551FDF7A1FE3146A2
:1039F0002046FDF78FFE07B0F0BD00BF000C014070
:103A000040000318800003048988888870B5064642
:103A100086B04FF44070FDF75FF90125272301A818
:103A2000ADF804308DF80750FDF760F929460920FC
:103A3000FDF788FD1A4C29464FF48020FDF78EFDD6
:103A4000184B204669460093FDF748FB4FF400628F
:103A5000042369462046ADF800208DF80330FDF7B9
:103A60003DFB00234FF44022CDE90332A4F544444A
:103A7000ADF81430A38920469BB243F00C030296A4
:103A800002A9A381FDF7E8FD2A46204640F2255110
:103A9000FDF74EFE29462046FDF73CFE06B070BD00
:103AA000000C0140000403182DE9F84F4FF4E130F9
:103AB000FFF750FF3B4801F0E5F9FDF737FAFDF756
:103AC0007FFE3949394D0A68394F22F004020A60F5
:103AD00002F0D6FF03F078FB03F04EFE354801F00C
:103AE000D1F904F05BFB344801F0CCF9FFF7A6FAFA
:103AF000324801F0C7F94FF41650FFF787FF3048FE
:103B000001F0C0F900210A460C462E48DFF8C8B083
:103B1000C0E90011C0E90211DFF8C0A0DFF8C090D1
:103B2000DFF8C080284E46F2644C6421274B3046B3
:103B30008BF80040AC608AF80040A5F808C0A97274
:103B400089F800402C6088F800402A701C70C7E992
:103B50000044C7E902446C60AC8101F093F903F0C2
:103B6000CBF8FDF7CBFE03F049FBFDF70FFEFFF7A7
:103B7000F7FA01F09DFC164801F084F9154801F0B0
:103B800081F9FFF79DFA00F0A5FD03F07DFD01F03E
:103B900045F9FDF7C9FE02F031F901F0D7FF2A78A7
:103BA000C1E700BF709F000810E000E05C12002039
:103BB00070120020889F0008A09F0008B89F00088E
:103BC000D49F000880120020EC9F00086A12002099
:103BD000FC9F000818A000086C1200206B12002047
:103BE000901200205812002042F22831094B30B4C4
:103BF000002501241A4601FB00F159609D601C60FC
:103C0000136803F00113012BFAD030BC00231360BA
:103C10009360704710E000E0F8B5174E0F4696F835
:103C2000583005469906154C04D52378202B0AD028
:103C3000FFF770FE2378022B05D1F8BD00F0BAFD26
:103C400038B101F09FFC01F073FF6378002BF5D0D1
:103C5000F3E72846394600F075FE0028EDD196F8C6
:103C600058309A07E9D53B7ADB06E6D5BDE8F8403F
:103C7000102003F0D9BA00BF941500205C12002078
:103C80002DE9F04F8FB09DF864701D4653F82790D2
:103C900004460D908B46484652F827109246FCF792
:103CA000F1FC9DF86860029055F826305AF826100D
:103CB00018460893FCF7E6FC54F826100590FCF72C
:103CC000DFFC54F8271080460298FCF7D9FC044624
:103CD00048462146CDF82490FCF7DCFD414681465C
:103CE0000898FCF7D7FD01464846FCF7CBFC034695
:103CF000414609989846FCF7CDFD214604460898B0
:103D0000FCF7C8FD01462046FCF7BAFC414605F029
:103D1000BBF90AEB8702039205EB87020A929DF832
:103D2000703005EB86020B920AEB86020446189D62
:103D30009DF86C800492002B00F00381FCF76CFB73
:103D40009BA3D3E9002306460F46FCF731FC00286D
:103D500040F01D819C4B2946DE6C2846FCF792FC06
:103D60003146FCF78DFC3146FCF794FD05F08EF9E9
:103D700003464FF07C5128461D46FCF78BFD21463B
:103D8000FCF788FD294620F00040FCF737FE05F0DF
:103D9000D7F8FCF781FF83B20193002B00F0CA80B3
:103DA0009BF808601846330700F1E280FCF71EFD1F
:103DB000054629464FF07E50FCF720FE054620467A
:103DC0002946FCF767FD03460D9A5AF8281052F869
:103DD00028001E460C93FCF753FC2946FCF75AFDBD
:103DE000314681463046FCF755FD04464FF0804091
:103DF0002146FCF745FC0346214674481C46FCF767
:103E00003FFC734905463046FCF744FD0146284611
:103E1000FCF740FD03464FF07C5120460693FCF72B
:103E200039FD019B0AEB8808012B079000F0828086
:103E3000099B012603F10044089B002703F100457C
:103E400040E021460698FCF725FD29460890079892
:103E5000FCF720FD089B01461846FCF713FC0346BF
:103E6000214607981C46FCF715FD2946054606988D
:103E7000FCF710FD01462846FCF702FC25460446E7
:103E80000137FFB202992046FCF7FCFB039B059922
:103E900018602846FCF7F6FB049B49461860D8F8E2
:103EA0000000FCF7EFFB5946C8F800005046FFF74A
:103EB000B3FE484B01365B78B2B2002B72D1019B46
:103EC000934237D90B2FBCD93046FCF78FFC0C99A5
:103ED000FCF7E0FC044604F0FFFF0546204605F031
:103EE0009DF80A9B04461F68294607F1004738469B
:103EF000FCF7D0FC0B9B21461B68099018460893E1
:103F0000FCF7C8FC099A01461046FCF7BBFB0246C9
:103F1000214638461446FCF7BDFC089B2946054659
:103F20001846FCF7B7FC01462846FCF7A9FB00271A
:103F30000546A7E759460D980FB0BDE8F04FFFF7CB
:103F40006BBEFCF769FA1CA3D3E9002306460F46B3
:103F5000FCF724FB00283FF4FDAE19A3D3E90023AE
:103F600030463946FCF7FAF8FCF736FB0446F1E632
:103F7000FCF73CFC0546DBF800002946FCF78AFC10
:103F800026F00806CBF800008BF8086011E70CA3B8
:103F9000D3E9002330463946FCF7DEF8FCF71CFB7A
:103FA0000446D7E60FB0BDE8F08F00BFAFF3008046
:103FB0008DEDB5A0F7C6A0BE8DEDB5A0F7C6A03EAD
:103FC000182D4454FB211940941500200000C040D6
:103FD000ABAA2A3E5C120020074B1B78022B09D0AB
:103FE00010B5044601F062FE2046BDE810400021F5
:103FF00000F060B9704700BF5C12002010B50446A5
:10400000FFF700F944B12046FFF786F901F090FD73
:10401000104B5B787BB110BD0420FFF77DF90320C6
:10402000FFF77AF90820FFF777F901F081FD094BD6
:104030005B78002BEFD1FDF777FC00F0EFFE4FF43B
:104040007040FCF76DFF4FF48072034BC3F884217E
:104050005A6010BD5C12002000E100E02DE9F04143
:104060002E4C2378022B27D007460D46164601F02A
:104070001DFE94F80180B8F1000F1AD1C6F3C000FC
:1040800084F8058001F036FA01F048FA80BB294631
:104090003846FFF7C1FD0123214D02202B7004F0AB
:1040A0009BFB01E0237853B101F042FD6378002BC4
:1040B000F8D00220BDE8F0810020BDE8F0812B7827
:1040C000012B1ED0012363710020287001F012FA29
:1040D00001F02EFD03F0D8FA00F0FCFA00F09EFE8D
:1040E00002F08EF86079003818BF0120BDE8F08139
:1040F000042004F085FB01F01BFD404601F0FAF9B5
:10410000D7E7F30605D5074B074E0FCB86E80F0020
:10411000DAE7052004F074FBD6E700BF5C1200204C
:104120006C120020801200207012002008B5144B81
:104130001B78DB0600D508BD102004F04DFB03F012
:1041400069F8FDF725FB0F4B1A781B7902F02C015B
:1041500003F006030B43EED0042A06D10A4B1B786A
:1041600053B1BDE8084003F0D7B8032004F048FB82
:10417000BDE8084003F0D0B8062004F041FBF0E7AA
:104180006B1200205C120020901200202DE9F04FED
:104190000E4609780546435C17462D2B83B0014433
:1041A00067D02B2B20D0002201F1010901920022BF
:1041B0001446924610460EE00134E4B2082C19D899
:1041C0001AB10AF1FF3A4FFA8AFA00EB800003EBCA
:1041D000400019F8013B303BDBB2092BECD9FE2B38
:1041E0000FD172B90122F4E7002301F10209019312
:1041F0004B78DCE7002AECD10AF1010A4FFA8AFA7F
:10420000E7E794B3FCF7EEFA00218346FCF7D6FC0F
:10421000F8B9BAF1FF3F16DA5446DFF894805846F1
:104220004146FCF737FB023464B2631C8346F6DB7D
:104230005FFA8AFACAF1FE0303F0FE039A440AF118
:10424000020A4FFA8AFABAF1FF3F26D0BAF1000FFC
:1042500015D1019B13B10BF1004083460124A9EB5A
:104260000505013DC7F800B03570204603B0BDE834
:10427000F08F01224B7801F10209019297E70A4C75
:1042800058462146FCF706FB0AF1FF3313F0FF0FF7
:1042900083464FFA83FAF3D1DBE758460349FCF72C
:1042A000F9FA8346D5E700BF00002041CDCCCC3DD4
:1042B0000AD7233C70B50D461849FCF7EBFA04F019
:1042C000CBFDFCF7E9FC80B2A8B1441EA4B29DB1BD
:1042D0004FF6FF76124D0BE001F05EF9AB789B07CD
:1042E00009D4013C3220A4B2FFF77EFCB44202D0D4
:1042F0006B78002BF0D070BD4FF6FF76084D08E0CC
:10430000013C01F015FCA4B23220FFF76DFCB44271
:10431000F1D06B78002BF3D070BD00BF0000A0413E
:104320005C12002060B138B54FF6FF75441EA4B290
:10433000013C0120A4B2FFF757FCAC42F8D138BDD4
:10434000704700BF10B50C460146FCF7A3FA2146A2
:1043500004460846FCF79EFA01462046FCF792F90F
:10436000BDE8104004F092BEF8B50768044600218D
:104370003846FCF723FC002851D139463846FCF773
:1043800089FA0546666800213046FCF717FC40B9FB
:1043900031463046FCF77EFA01462846FCF772F9B2
:1043A0000546A66800213046FCF708FC40B93146B6
:1043B0003046FCF76FFA01462846FCF763F90546DC
:1043C000E66800213046FCF7F9FB40B9314630463B
:1043D000FCF760FA01462846FCF754F905462846E2
:1043E00004F054FE06464FF07E503146FCF706FBC3
:1043F00039460546FCF74EFA294620606068FCF70E
:1044000049FA29466060A068FCF744FA2946A06092
:10441000E068FCF73FFA03463046E360F8BD3D46EE
:10442000B0E700BFF8B50D680C46064600212846E7
:10443000FCF7C4FB002840D129463068FCF7DEFABF
:1044400020F0004528462149FCF7CCFB002834D059
:10445000676800213846FCF7B1FB50B939467068EF
:10446000FCF7CCFA20F0004739462846FCF7BAFBA7
:1044700050B3A76800213846FCF7A0FB50B9394675
:10448000B068FCF7BBFA20F0004739462846FCF735
:10449000A9FBB8B1E46800212046FCF78FFB50B9B6
:1044A0002146F068FCF7AAFA20F00044214628468D
:1044B000FCF798FB18B12846F8BD044DC8E725461F
:1044C0002846F8BD3D46E5E73D46D2E7FFFF7F7F42
:1044D0002DE9F04F7A4B83B01B780093002B00F04E
:1044E000AE80784A03F1FF3814785FFA88F84445C3
:1044F000019200F0A1803426734D06FB0856716AC4
:10450000306AFCF7C7F90146FCF7BCF8D6F81CA0E6
:1045100081465146FCF766FB06F11803002800F0BF
:10452000C0804FF0230BC3F80090B8F1000F40F0AB
:10453000C1805C4500F0A1804FF034085F4627E061
:10454000DFB2624B08FB09591B78BB422ED0D9F869
:104550001CA0D9F818005146FCF730FBB0B9D9F8C7
:104560002410D9F82000FCF795F90146FCF78AF8E9
:10457000DBF81810FCF786F8834650465946FCF7DE
:1045800045FB002800F08580C9F818B0A74212D07A
:10459000B346B94608FB07567B1E002FD0D1232710
:1045A0004A4B08FB09591B78BB42D0D103F086F96E
:1045B000019B1C78CBE7424B1B780093661CF6B23C
:1045C000242E08BF00264FF03409009B09FB045A33
:1045D0009E4231D009FB0658DAF818B0D8F81870A6
:1045E00059463846FCF712FBA0B1DAF82010DAF889
:1045F0002400FCF74FF90146FCF744F85946FCF754
:1046000041F839468246FCF7E3FA18B1574634467A
:10461000C8F818A009FB06533946D869FCF7CEFA4A
:10462000731C002818BF3446DEB2242E009B33D002
:104630009E4234D1019B1C7003B0BDE8F08F214B2A
:104640001C780193232CF7D01F4DD5F83C17D5F8D3
:104650004007FCF71FF90146FCF714F8D5F8388736
:1046600006464146FCF7BEFAE8B14FF0220BC5F80A
:104670003467174E5C457FF45FAF144B1B78A34241
:104680009CD103F01BF90E4B1B780093019B1C7807
:1046900094E7C9F818A079E7002BCBD00026C246D2
:1046A00098E7D1463DE746464FF0220BC5F8346700
:1046B000074EDFE7009B023B5FFA83FB39E700BF51
:1046C000BC0B0020BD0B00206C040020BE0B0020A2
:1046D000880B002038B524220021074804F00CFB89
:1046E000002301210548064A064D074C037011704E
:1046F0002B70237038BD00BFC00B0020BD0B002005
:10470000BF0B0020BE0B0020BC0B00200A490B4B46
:104710000A781B7893420DD0531CDBB2242B08BFC0
:10472000002310B406480B700478944208BF03704D
:1047300010BC7047704700BFBE0B0020BC0B0020B0
:10474000BD0B00203420034A034B127800FB0230DB
:10475000704700BFBC0B00206C040020054B064ACC
:104760001B7812789A421DBF3422044802FB0300D2
:1047700000207047BE0B0020BC0B00206C04002002
:10478000094B0A4A1B7812780133DBB2242B08BF8D
:1047900000239A4205D03421054A01FB032398697E
:1047A00070470020704700BFBE0B0020BC0B0020EC
:1047B0006C040020044A054B10781B78C01AB0FA2C
:1047C00080F04009704700BFBE0B0020BF0B0020E7
:1047D00038B5837D056BDA0714D5164B587AFCF78C
:1047E00005F81549FCF756F82946FCF753F8044636
:1047F0004FF07E512046FCF7FFF908B94FF07E5488
:10480000204638BD5B0704460BD40A4B187AFBF7E9
:10481000EDFF0949FCF73EF801462846FCF73AF857
:104820000546E46A29462046FCF7DCF90028DFD17A
:104830002C46DDE75C1200200AD7233C2DE9F04F1F
:10484000394A3A4B15781B7885B09D42019365D063
:10485000374C4FF0340A207AFBF7C8FF3549FCF794
:1048600019F80346607A0393FBF7C0FF3149FCF760
:1048700011F84FF07E59DFF8C080DFF8C4B0029025
:1048800024E039460298FCF705F8044649462046DC
:10489000FCF7B2F900B94C4621464046FCF798F9BE
:1048A000B76A002834D041464046FBF7F3FF804604
:1048B00041463846FCF78CF900B30135EDB2242DA2
:1048C000019BF76121D0AB4229D0A0460AFB05B677
:1048D000B37D376BDA07D4D45B0704D43846039929
:1048E000FBF7D8FF07460AFB05B3DC6A39462046CA
:1048F000FCF778F90028C9D13C46C7E70135EDB28D
:10490000242D019BC6F81C80DDD143B10025DCE7D6
:1049100021462046FBF7BEFF8046C9E7064C074B01
:104920001C6205B0BDE8F08FBE0B0020BC0B002060
:104930005C1200200AD7233CFFFF7F7FC00B0020C2
:104940006C04002034222DE9F04F8A468346DFF8BC
:104950001893B94C99F8005097B002FB0546002116
:10496000304604F0C9F99AF808300AAF9807B375D1
:104970004CBFB24BB24BD6F810800FCB87E80F007C
:10498000B04FDBF800103A6810460192FBF782FF47
:1049900004F018FB01460A983423081A80EAE07CE8
:1049A000ACEBE07CE04538BFE04603FB05F344F8A0
:1049B00003C02344C3F8108002930691FBF716FF4F
:1049C000019A1146FCF71AF800210E90FCF700F945
:1049D00028B1029B9C4A998A12880A439A827A6873
:1049E000DBF8041010460192FBF754FF04F0EAFADA
:1049F00001460B983423081A80EAE07CACEBE07C9B
:104A0000E04538BFE04603FB0543C3F804C0C3F8E4
:104A1000108002930791FBF7E9FE019A1146FBF71C
:104A2000EDFF00210F90FCF7D3F828B1029B8649D7
:104A30009A8A49880A439A82BA68DBF808101046B5
:104A40000192FBF727FF04F0BDFA01460C983423CE
:104A5000081A80EAE07CACEBE07CE04538BFE04639
:104A600003FB0543C3F808C0C3F810800293089104
:104A7000FBF7BCFE019A1146FBF7C0FF0021109026
:104A8000FCF7A6F828B1029B6F499A8A89880A43E5
:104A90009A82FB68DBF80C1018460193FBF7FAFECC
:104AA00004F090FA02460D984FF0340B101A80EA89
:104AB000E071A1EBE071884538BF88460BFB054BE0
:104AC000CBE903180992FBF791FE019B1946FBF70E
:104AD00095FF00211190FCF77BF830B9B8F1000F79
:104AE0000DD1404617B0BDE8F08F574BBBF81420EE
:104AF000DB881343ABF81430B8F1000FF1D00DF19F
:104B000038084046FFF730FC4FF0340B03460BFBF0
:104B1000054B4146CBF824304C48FFF783FC034655
:104B20004146CBF820304A48FFF77CFC9BF8163012
:104B3000CBF82C00D9076CD5CBF83000454A99F852
:104B400000101278914202D09B0740F18F803423ED
:104B5000002203FB05439A619A62342303FB054359
:104B60009A7D900764D4D1071F6B00F1E88053074A
:104B70000AD4394B187AFBF739FE3946FBF78AFE1F
:104B80003649FBF787FE0746342303FB0544E46AF6
:104B900039462046FCF726F800B93C464FF07E51D6
:104BA0002046FCF729F808B94FF07E54244D2146E1
:104BB0002F6AD6F828A03846FCF70AF8002800F03B
:104BC000CD8039463846FBF765FE074639465046E4
:104BD000FBF7FEFF002840F0BE80F761204A214E1F
:104BE00011782C624B1CDBB2242B08BF002306ACCF
:104BF00089F80010137098E80F0086E80F0094E819
:104C00000F0085E80F00FFF763FC012017B0BDE837
:104C1000F08FDAF800101A07CBF830108ED5DBF8D9
:104C200024000193FBF736FE019BCBF8300085E7AB
:104C3000012017B0BDE8F08F6C0400208012002026
:104C4000C00B00209415002050A20008B4150020CD
:104C5000A4150020BE0B00205C1200200AD7233CC4
:104C6000BF0B0020D00B0020BC0B0020DFF8A8A158
:104C7000DDF838B0DAF81030594618460193FBF7E2
:104C800009FE0246019B584619460192FBF7F8FCC3
:104C90000246DAF81430DDF83CB019465846129254
:104CA0000293FBF7F7FD019B0146049003F10040DE
:104CB000FBF7E6FC0246029B584619469346FBF773
:104CC000DFFC8446DAF81830109A19461046039330
:104CD0000292CDF84CC0FBF7DDFD01460590584629
:104CE000FBF7CEFC8446039B029A19461046CDF88A
:104CF0000CC0FBF7C5FC8446119ADAF81CA01146DB
:104D000050460292CDF850C0FBF7C4FD8346039B8A
:104D100059461846FBF7B4FC029A514682461046A3
:104D2000FBF7AEFC0346364950461593FBF76EFF82
:104D3000D0B13423002203FB05439A620DE7314BC7
:104D4000587AFBF753FD3946FBF7A4FD2E49FBF7D4
:104D5000A1FD044622E7C6F81CA03FE721462046F5
:104D6000FBF798FD074631E750462849FBF730FF2F
:104D700028B1342303FB0543254A9A62EDE612A8C5
:104D8000FFF7F2FA12A92348FFF74CFB03460199FB
:104D900004980193FBF776FC0599FBF773FC4FF041
:104DA0007E5182465846FBF76DFC01465046FBF7A4
:104DB00069FC4FF07C51FBF76DFD04F067F982460A
:104DC000019B51461846FBF765FDB96CFBF762FD88
:104DD000514607464FF07E50FBF752FC01463846DD
:104DE000FBF70CFE4FF0340B002107460BFB054B85
:104DF000FBF702FF00B90027CBF82870ADE600BF33
:104E0000EFFF7F3F5C1200200AD7233CEFFF7FBFFC
:104E1000FFFF7F7FB4150020C00B0020064A074B20
:104E200010B4D2E90004D2E90212C3E90004C3E9D4
:104E3000021210BC704700BF80120020C00B00207F
:104E4000064A074B12781B789A4233BF03F1FF30B2
:104E50002333981A801AC0B2704700BFBC0B0020E1
:104E6000BE0B002008B502F029FD044A044B12785D
:104E70001A70BDE80840FFF72BBB00BFBE0B002037
:104E8000BD0B002010B50446007828B101F0FAFDF2
:104E900014F8010F0028F9D110BD00BF6328F8B540
:104EA00004461DD91B4EA6FB0035EF08A6FB0736AE
:104EB000F60806F1300006EB8606A7EB460601F081
:104EC000E1FD06F13000C0B201F0DCFD07EB870028
:104ED000A4EB40003030C0B2BDE8F84001F0D2BDD4
:104EE000092806D804F13000C0B2BDE8F84001F04E
:104EF000C9BD0A26B4FBF6F505F13000C0B201F0D9
:104F0000C1FD06FB1540BDE8F8403030C0B201F0ED
:104F1000B9BD00BFCDCCCCCC30B30022F0B5144F1E
:104F200085B014460546A7FB0023DB0803EB83018D
:104F3000A0EB410104A80619621C092D1846D2B243
:104F400006F80C1CEDD86AB10DF103039D1801ABF6
:104F50002D1B9C1814F8010D3030C0B201F092FDE9
:104F6000A542F7D105B0F0BD302001F08BBD00BFE8
:104F7000CDCCCCCCF0B50D4685B000210646FBF774
:104F800027FE002840F0D280012D40F2D7802C4629
:104F9000704F30463946FBF77DFC023CE4B2012CF1
:104FA0000646F6D805F0010323B130466A49FBF7FF
:104FB00071FC06464FF07C513046FBF763FBFBF774
:104FC00045FE002800F0BC800024644F0246A7FB89
:104FD0000013DB0803EB8301A0EB410004A900F1FF
:104FE00030062144092A04F10104184601F8106C26
:104FF000E4B2EBD8A54272D93022631CDBB204A91B
:1050000021449D4201F8102C61D9A01CC0B204A912
:105010001944854201F8102C59D9E11C04AEC9B2DB
:105020003044A94200F8102C51D2201DC0B23144A6
:10503000A84201F8102C4AD2611DC9B230448D42F9
:1050400000F8102C43D9A01DC0B23144854201F8AC
:10505000102C3CD9E11DC9B230448D4200F8102C0F
:1050600035D904F10800C0B23144854201F8102C52
:105070002DD904F10901C9B230448D4200F8102C39
:1050800025D904F10A00C0B23144854201F8102C40
:105090001DD9164604F10B0204A9D2B20844954268
:1050A00000F8106C13D904F10C0104A8C9B2024431
:1050B0008D4202F8106C0AD904F10D02D2B20144FB
:1050C000954201F8106C02D9024402F8106C6A1E75
:1050D000141B9D4238BF00241C4404F0FF04A54269
:1050E0001CD06CB16F1E0DEB0406FFB2A54209D0B7
:1050F00016F8010D013C01F0C5FC14F0FF04F5D1D8
:1051000005B0F0BD2E2001F0BDFC16F8010D01F038
:10511000B9FC3C46002FE9D105B0F0BD302204AB0C
:105120006C1C2B4403F8102CE4B2DAE72D2001F0BC
:10513000A9FC012D06F100463FF629AF2B4633E7C7
:105140000446002D7FF458AF302301248DF8003041
:10515000C8E700BF0000C84200002041CDCCCCCC45
:10516000F0B57F4B85B093F8584014F0010473D02C
:105170007C49FBF78FFB00210546FBF729FD002842
:1051800040F0CD8078492846FBF784FB4FF07C51F6
:10519000FBF778FAFBF75AFD002800F0C6800025DF
:1051A000DFF8CCC12A460146ACFB0043DB0803EB29
:1051B0008304A0EB440000F1300704A886180135F1
:1051C00009291846EDB206F8107CEBD8032D23D838
:1051D0003021941CE4B204AB2B44042C03F8101CC3
:1051E00000F0B6800332D2B204AB2344042A03F8A1
:1051F000101C00F0B380302304A91144022A01F8E6
:10520000103C01D18DF80330042CC5F1030588BF93
:1052100000252C4404F0FF05042D03D1302305257F
:105220008DF804306E1EF6B208E013F8110C01F090
:1052300029FC7EB1013D013EEDB2F6B204AB042D76
:105240002B44F2D12E2001F01DFC9DF8030001F04B
:1052500019FCEFE705B0F0BD00210546FBF7B8FCEF
:10526000002869D141492846FBF714FB4FF07C51D7
:10527000FBF708FAFBF7EAFC002864D03C4F224613
:105280000146A7FB0043DB0803EB8304A0EB4400CB
:1052900000F1300604A88518541C09291846E4B208
:1052A00005F8106CEBD8022C1AD83020931CDBB216
:1052B00004A92144032B01F8100C4BD004A90B4482
:1052C000FF2A03F8100C47D1302201238DF8022069
:1052D000032BC4F1020488BF00241C4404F0FF0423
:1052E000032C03D1302304248DF80330651EEDB266
:1052F00009E013F8110C01F0C5FB002DAAD0013C08
:10530000013DE4B2EDB204AB032C2344F1D12E20D5
:1053100001F0B8FB9DF8020001F0B4FBEFE72D208F
:1053200001F0B0FB05F100452CE743F230030546E0
:105330000222ADF800305EE72D2001F0A3FB05F15D
:10534000004005468EE743F23003ADF80030BBE77E
:10535000032559E70224BBE70223B9E7032453E7F7
:10536000941500208B42213D00401C4600007A44E9
:10537000CDCCCCCCF0B54A4B85B093F8584014F066
:10538000010446D04749FBF785FA00210446FBF7A4
:105390001FFC00286DD144492046FBF77BFA4FF0F3
:1053A0007C51FBF76FF9FBF751FCB8B100243F4E7D
:1053B0000246A6FB0013DB0803EB8301A0EB4100D0
:1053C00004A900F130052144092A04F1010418461A
:1053D00001F8105CE4B2EBD8002C5DD130238DF8DD
:1053E0000030302302248DF8013004AB2344013C0B
:1053F00013F8110CE4B201F045FB012CF5D12E207D
:1054000001F040FB9DF8000005B0BDE8F04001F060
:1054100039BB00210546FBF7DBFBB0BB4FF07C51ED
:105420002846FBF72FF9FBF711FC40B31F4F22462C
:105430000146A7FB0043DB0803EB8304A0EB440019
:1054400000F1300604A88518541C09291846E4B256
:1054500005F8106CEBD894B10DF1FF331D19AD1A9E
:105460006C4414F8010D01F00DFBA542F9D105B013
:10547000F0BD2D2001F006FB04F100448BE7302045
:1054800005B0BDE8F04001F0FDBA2D2001F0FAFAB8
:1054900005F100400546C1E7012CA6D1A1E700BFF8
:1054A000941500208B42213D00002041CDCCCCCC76
:1054B00000B5012183B00820FCF744F8094B01A98D
:1054C00009480193FBF70AFE0021084A084B92F9AC
:1054D000582019808A42A4BF4FF400721A8003B08A
:1054E0005DF804FB00020348000C01409415002005
:1054F0009212002000230749074A91F9581013809F
:105500009942AABF4FF400714FF40073118000B1AB
:1055100013807047941500209212002008B50548AA
:10552000FBF762FF044B00F400701B88181A18BFC9
:10553000012008BD000C01409212002038B50B4834
:10554000FBF752FF0A4B00F400701B8883420CD01B
:105550000021084A084D094B094C11700FCB84E813
:105560000F002B7843F040032B7038BD000C014036
:10557000921200206C1200206B120020801200207A
:105580007012002008B5FFF7E9F820B1BDE8084027
:10559000022003F021B908BD70B5B34B1B78002B76
:1055A00040F08380B14CB24D2B7803F0FF0593B3EC
:1055B000E80600F1D780E90700F1F18015F0E80F67
:1055C0000AD023789A0700F0FB806EB2002EC0F25A
:1055D0003281E82003F00AF9A80719D515F0680F01
:1055E00013D12378402B00F06781002B40F04D81D0
:1055F00000232371FFF7B2F820B1A37813F0400322
:1056000000F08F810023A3702370022003F0EEF8D6
:10561000690700F1AA80974B1B7803F0FF05002B68
:1056200065D1954B1B7803F0FF0523B9237813F060
:10563000FC0F36D170BD03F00FF9A27A15F0010FFF
:105640000CBF13466423A90744BF0A33DBB26E07BD
:1056500044BF0A3BDBB2280744BF0133DBB2E90693
:1056600044BF03F1FF33DBB2C82B28BFC8230A2B8A
:1056700038BF0A239A4206D000212279A37242F051
:10568000080323712173AE0623781DD5102B1BD17F
:10569000E37A002B40F019810223E37215F0C00F6A
:1056A00018D1BDE8704002F01FB9012603F0FF05D4
:1056B0006E4C2846013D267000F02CFBB54274D993
:1056C0006B4D03F0A5F86FE715F0C00FAFD0002BBE
:1056D00040F0ED80694E357A690640F1B28005F000
:1056E000BF052846FCF756F8237835729FE703F08C
:1056F000ABF8217A15F0010F0CBF0B466423AE07FF
:1057000044BF0A33DBB2680744BF0A3BDBB22E0753
:1057100044BF0133DBB2E80644BF03F1FF33DBB221
:10572000C82B28BFC8230A2B38BF0A23607A15F07C
:10573000200F14BF6422024615F0400F18BF32221A
:1057400015F0800F18BF1922994202D182423FF40E
:1057500068AF0021237262722173FFF76FF8FFF7C1
:1057600081FB5EE70123637070BD237813F0D00FD7
:1057700002D0E378002B67D094F90220A378002AA6
:1057800066DB13F0200253D0402203F07F0343F086
:105790000103A3702270042003F028F83BE700F017
:1057A00067FF012003F022F808E7304600F0C8FA4E
:1057B000102003F01BF82E4D2B78DE06FCD580E779
:1057C00013F0280F0ED0A27812F0C00F00F09780CF
:1057D0006AB2164668060FD599060DD4A17841F035
:1057E000400107E0002BF3D101226E06A27073D5B1
:1057F00041216AB21646A170280702D513F0E00FC6
:105800006DD0A9067FF5E2AE062000F099FA94F972
:105810000220A378002A07DB2278402A00F090803B
:10582000802A01D04022227043F02003A370CDE6ED
:10583000A2702270AFE72378012B21D08023237040
:10584000C7E645F040054CE794F90230002B49DAF1
:1058500000232371FEF73EFF01F016FFFCF764F80A
:10586000FFF7DCFAA3788CE7901200205C1200208E
:105870006B120020581200206A120020C011002074
:10588000A37843F00503A370D8E7DA067FF5BDAE31
:10589000A278D0077FF5B9AE102B7FF4A9AEE37ADA
:1058A000002B3FF4A5AE43F00803E372ADE613F01E
:1058B000180F3FF4BCAE0DE7A37813F020027FF47D
:1058C000A4AED90635D5227092E6D8077FF5E6AEAC
:1058D00043F00403E372E1E62B076EB291D5102387
:1058E00023708EE7FFF7BEFA23799A0703D5A278D3
:1058F00042F00102A27023F0060323714BE701F08E
:10590000DDFF022223782271202B7FF46BAF6AB275
:10591000002A1646FFF65EAFA17861F07F01A17004
:1059200058E70822A370227001F0DEFF01F0B4FCFA
:105930006BE65E077FF569AE43F00803A37064E68B
:105940001A077FF56FAF23F01C0343F0020369E7EA
:105950002DE9F041FEF702FF002800F0C380867DAC
:10596000704CA378002B40D04FF07E574FF0814809
:105970006D4D6278002A38D1DA0731D5227812F0DD
:10598000C00F34D013F0040151D0802A00F0B5804C
:10599000402A00F09180180722D56A7A012A7DD02A
:1059A00099071DD4614A92F8582092076DD5227943
:1059B000297A42F00802012922710BD006F040003A
:1059C000FBF7E8FE01213846FEF774FCA37803F0EC
:1059D00002022AB943F010030220A37002F0FCFE79
:1059E000FFF7DAFDA378002BC3D1BDE8F081E37A9D
:1059F00063B198072ED56B7A012B67D10023E37230
:105A0000FFF7CAFDA378002BB3D1EEE723791B077C
:105A1000E6D506F0300001F0FFFB237923F0080300
:105A20002371FFF7B9FDA378002BA2D1DDE7012098
:105A3000E17201F0F1FB0120FBF7ACFEA37823F04B
:105A4000020343F00403A370FFF7A6FDA378002B25
:105A50008FD1CAE713F00C0FC2D06A7A012A0CD09A
:105A60000A2000F06DF9314B93F8583099073ED574
:105A70002279E37A42F0080222711A07BED5022089
:105A800002F0AAFE0023E372BAE706F0300001F04C
:105A9000C3FB01214046FEF70DFCA378297A03F0F1
:105AA0000202012995D0002A88D0FFF775FDA3785E
:105AB000002B7FF45EAF98E702F0BCFBA3780028D0
:105AC0007FF469AF03F0DF03A37064E7012001F006
:105AD000A3FB0123E372FFF75FFDA378002B7FF4A4
